:020000040800F2
:10000000A0C5002025430008D3410008D5410008C1
:10001000DB410008DD410008E3410008000000006A
:10002000000000000000000000000000E94100089E
:10003000EB41000800000000ED410008EF4100081E
:10004000494300084D430008514300085543000848
:10005000594300085D4300086143000865430008F8
:10006000694300086D4300087143000875430008A8
:10007000794300087D430008814300088543000858
:10008000894300088D430008914300089543000808
:10009000994300089D430008A1430008A5430008B8
:1000A000A9430008F1410008AD430008B14300082E
:1000B000B5430008B9430008BD430008C143000828
:1000C000C5430008C9430008CD430008D1430008D8
:1000D000D5430008D9430008DD430008E143000888
:1000E000E5430008E9430008ED4300080000000074
:1000F0000000000000000000000000000000000000
:100100000000000000000000F1430008F543000873
:10011000F9430008FD4300080144000805440008B5
:10012000094400080D440008114400081544000863
:1001300019440008F7410008FD4100081D4400086B
:100140002144000825440008294400082D440008E3
:10015000F0B4C2788A18DFF81C32DA710E4684785F
:1001600014EB16249C7145785D7100781871274650
:10017000FFB2B7EB162F06DA6D1C5D71EDB2002DE4
:1001800001D1401C1871D2B201F0FF018A420DDA90
:10019000641C9C71E4B2002C08D15879401C587141
:1001A000C0B2002802D11879401C1871F0BC704709
:1001B00010B40A44521E0BE00C784B7803EB042376
:1001C00018180446A4B29BB29C4200D2401C891C61
:1001D0009142F1D308D1097810EB0120024692B286
:1001E000B2EB012F00D2401C80B210BC704780B52A
:1001F0001422DFF8F41A0020FFF7DAFF010002D121
:100200004FF6FF7002E0001240EA012080B202BD0A
:1002100038B5DFF8D84A217C627C02EB0122A2F1DA
:100220001405082204F11A01401980B2FFF7C0FF3B
:100230002A4692B204F12201FFF7BAFF010002D16F
:100240004FF6FF7002E0000A40EA012080B232BDA2
:100250000620DDE730B4474900204872034604E039
:1002600001EB42029383401C4872487A0246042AFA
:10027000F6DD18464872DFF8784A40F21C6504E063
:100280006A4322445376401C4872487A0246042A44
:10029000F6DD4FF48060C88218464872DFF8542AB1
:1002A00003E01846908001204872487A0028F8D070
:1002B00030BC704738B502462E4BD88A401CD882D5
:1002C00080B2B0F5FA4F02DB4FF48050D8820020A4
:1002D00058720CE0D88ADFF81C4AA48805462D0A1B
:1002E00045EA0025ADB2AC42E7D001205872587AF9
:1002F0000028EFD0002420465872DFF8F85901E0BA
:1003000001205872587A002803D1A8880028F7D114
:100310002C46002C01D1002032BDD88A03461B0A8E
:1003200043EA0023A380E180002A05D100220421B2
:10033000204600F0E3FC03E01088208050886080B5
:10034000FF202072204632BD38B50146DFF8A849AB
:10035000256B05F10800FFF7FBFE20792872607914
:10036000216B4872A079216B8872E079216BC87289
:1003700031BD00001CA50020F8B5DFF87C592C6BBE
:100380000146042900F03681DFF8606906F1360184
:10039000A962E962014603290BD1607E00F00F00DB
:1003A000032802D1208A00286AD0002028822872DF
:1003B000F1BD022969D1E878401CE870C0B200287C
:1003C0000ED1A878401CA870C0B2002808D1687867
:1003D000401C6870C0B2002802D12878401C2870E8
:1003E00000202861617E072901D0052908D1A07E5F
:1003F000401CA076C0B27828D7D100206076D4E720
:100400000029D2D0208A002836D0A07E411EA176B5
:100410000028CAD1E07E06F12207012808D1002079
:1004200060768020287200F012FD14207873D9E3E2
:100430000146042900DD0420012101FA00F0A07624
:10044000E07E401CE076607E00F00F00401E072832
:10045000ABD8DFE810F04A0209000C0021030800C5
:10046000210308002103A0E70020787341E2042063
:10047000287200F0ECFC75E301F00F01032994D120
:100480000820287200F0E3FC3EE3052810D1686BD9
:100490008088002889D00020286306F12A00A862FD
:1004A000E862002028610820287200F0EBFCA1E03F
:1004B000B07B45287FF479AF317C707C00EB012064
:1004C000298A8142FFF671AF2882307D10F03F0FFC
:1004D0007FF46BAF707D00287FF467AFAC89002C90
:1004E00002D1E889002813D0F07D112807D14FF6FA
:1004F000FF70F18B814202D1318C81423CD0F08B74
:10050000A0427FF452AF308CE98988427FF44DAF2E
:100510004FF6FF77FFF76BFEB8427FF446AFF07DF2
:1005200006280AD1FFF794FEB8427FF43EAFDFF809
:10053000C027144606F122078CE011281CD00128A0
:100540007FF433AF06F12200017808297FF42DAF44
:100550000021017041884FF6F772914202DB0931A8
:10056000418001E008314180708BF083B08B308492
:100570007483E889B083B4E3288A1C382882DFF8C2
:1005800074376B6302E002F20C6068636A6B03F21B
:100590000C608242BFF409AF90880028F3D006F1C6
:1005A00022014C888442EED1D088002802D00988EC
:1005B0008142E8D11188002902D1508800280DD04D
:1005C0004FF6FF70814202D15488844206D0708B6E
:1005D0008842D8D1B08B51888842D4D1002028637A
:1005E0000220287206F12A00A862E86200206882D0
:1005F00000F048FC688A00283FF4D7AE00F11C02E6
:100600002A82DFF8E81613469BB21B0A0B744A7461
:100610006B6B1A7A8A751122CA75083001F12202B1
:100620000446A4B2240A44EA002494800020D08026
:1006300098881080D8885080A8894883E889888362
:100640001888C8835888088401F13600A86234E30A
:1006500004F21C6441F670001044A042C0F0AE8069
:10066000607E0028F4D07888A1888842F0D138884C
:10067000E1888842ECD1708B21888842E8D1B08B28
:1006800061888842E4D12C6300202872787B41077E
:1006900000F14281397B0909890069722A8A511A5D
:1006A00014392982627E02F00F02022A04D1024626
:1006B00002F03F02122A19D089B2002902D110F0AB
:1006C000030F13D03979227A914240F089827979E7
:1006D000627A914240F08482B979A27A914240F0E4
:1006E0007F82F979E27A914240F07A82C0063ED563
:1006F000218A00293BD004F10C00FFF729FD28795D
:10070000397A814233D1797A6A7991422FD1B97A93
:10071000AA7991422BD1F97AEA79914227D12073B3
:1007200068796073A879A073E879E073E07E0028A7
:1007300017D1A17D94F9180094F91A20821A08465D
:10074000A2EBD00252B25118A175100000D5404260
:10075000E17D4018A0EB9100E075A17D00EBD10098
:10076000207601202872207EA07600202082607EE4
:1007700000F00F01491E07293FF617AEDFE811F020
:100780000900D3006C01160266027F0230020A02E1
:100790000BE6287AC0077FF508AE0320607640207C
:1007A000287200202082288A002800F0A981297A56
:1007B00041F002012972FFF7C7FDA1E1787B00F04B
:1007C0003F00022840F00B8178882883002169725D
:1007D00005F11C0401E0491C6972697A0B46042B7F
:1007E00000F3FD8034F813309842F4D10020014624
:1007F00069720DE0072909D1002806D0817E02F137
:100800001A0C1CF804C0614500D210195B1C6B72F5
:100810006B7A1C46042C08DC40F21C614C4302F14C
:100820001901095D0029E5D1101904003FF4BDAD9F
:100830002C630120A07620760020A0750420E075AE
:100840000020E0767888A0803888E080708B208057
:10085000B08B6080012060762878207368786073A0
:10086000A878A073E878E07301202082F879E0721C
:10087000B879A07278796072387920720120FFF718
:1008800063FD3A7B104600F0F00051282DDB00207C
:10089000687201E05B1C6B726B7A1846114609099D
:1008A000491FB0EB810F20DA304400F13607397868
:1008B000A972002919D00129ECD07878022901D138
:1008C000042804D0002810D0C3186B72E4E7B9786C
:1008D000F87840EA01202883014640F2A75291426D
:1008E00001DB40F2A6506082A082102006F12201B6
:1008F000487306F12200417B41F00201417302215D
:1009000001750421417505218175A621C1752C2130
:100910002982602101736BE100206076202028721B
:1009200000F095FA41E5287AC00751D5787B00F0B0
:100930003F0012284CD13A7B104600F0F0005128BD
:1009400031DB0020687201E05B1C6B726B7A184629
:1009500011460909491FB0EB810F24DA304400F138
:10096000360C9CF80010A97200291CD00129EBD08C
:100970009CF80100022901D1042804D0002812D0DB
:10098000C3186B72E2E79CF802109CF8030040EA7F
:1009900001202883014640F2A752914201DB40F238
:1009A000A6506082A0820320607638792072787920
:1009B0006072B879A072F879E0720120FFF7C4FC88
:1009C0004220287200202082286100F040FA9BE03B
:1009D0002020287200F03BFA0020296B4876787BB3
:1009E00040073FF5E2AC142078732820288250207D
:1009F0003873FB796B72F87AF871FB72B8796872A8
:100A0000B97AB971B872797969727A7A7A717972C8
:100A10003A796A723C7A3C713A725B1CFB72DBB2C7
:100A2000002B0BD1401CB872C0B2002806D1491C63
:100A30007972C9B2002901D1521C3A7238882883D0
:100A4000798839807880708BF083B08B3084A88966
:100A50007083E889B08320E1797BCA0721D5C0067D
:100A60001FD4208A00287FF4A0AC288A401C80B2C2
:100A7000FFF76AFC297A41F010012972288A0028C0
:100A800002D041F00201297200F0E1F90120208238
:100A9000082060760020E076112006F122014873DC
:100AA000A0E088060DD5F87CB97CAA6A0B4684467E
:100AB0004CEA032C6244AA622A8A40EA0120101AF6
:100AC0002882288A002808D0617EC90605D4297AA0
:100AD00041F002012972FFF737FCB87BF97B01EB8B
:100AE00000212983A18A288B814201D3002800D1CB
:100AF0002983288B6082287A10F0030F3FF455ACCD
:100B00000020688200F0A3F9297A06F122008A0603
:100B100005D50021698261761421417362E0CA061D
:100B20000AD50021698201212182042161760021F8
:100B3000E1761121417355E0688A002810D0C8077A
:100B400001D500202082208A002808D1608A294609
:100B5000498A884200D908466882208200E068827B
:100B60000020E076E86AA86206F12201688A00287F
:100B700007D0208A002804D0283028821820487303
:100B800032E0287A80077FF510AC282028821020D8
:100B9000487329E0287AC0077FF507AC002060760B
:100BA0001020287200F053F9FFF7FFBB288A0028B5
:100BB00001D0FFF7C9FB287A797BC9073ED5C0076A
:100BC00005D5072060760020A076208201E006206F
:100BD00060760120FFF7B8FB1020287200F037F98B
:100BE0001020787328202882502006F122010873F3
:100BF00006F12200217A0172617A4172A17A817232
:100C0000E17AC172217B0171617B4171A17B8171AC
:100C1000E17BC1710621F175A1880180E1884180E5
:100C2000A9897183E989B1832188F183618831843D
:100C3000617EC9062DD50021C1812EE0C00719D5DE
:100C40000520607600202082FFF7AFBB288A0028AD
:100C500001D0FFF779FB787BC0070BD507206076C2
:100C60000020A0760120FFF76FFB1020287200F013
:100C7000EEF8B5E7288A0028B2D1FFF796BB287AAC
:100C8000C0077FF592AB072060760020A076FFF7C3
:100C90008CBB05218173A621C173FF20B075288A02
:100CA0000146090A3174707406F122040020608242
:100CB0002082FFF7CDFAC04320820C4C4520A07360
:100CC0000020E073A082A88A401CA882014689B255
:100CD000090AA174E07400202083FFF788FAC0435A
:100CE000208300202872F1BD5E9E0020509E0020CF
:100CF000BC610020449800201CA5002062F30F2254
:100D000062F31F4200B500BF1300964694461039A7
:100D100028BFA0E80C50FAD85FEA417C28BF0CC07D
:100D200048BF40F8042BC90728BF20F8022B48BF52
:100D300000F8012B00BD30B4002513E050F8042B5F
:100D4000D30744BFA9F101039A18091F042942F8E7
:100D5000045BFAD213468C0744BF15809B1CC9075D
:100D600048BF1D7050F8041B0029E7D130BC704704
:100D700080B50020009001466846FFF79BFAAA491B
:100D80008864002802D04FF48A41818001BD7CB57F
:100D900000F045F8FFF75EFA00F06CF9A248817C9C
:100DA0008DF80010C17C8DF80110027D8DF80220B5
:100DB000437D8DF80330847D8DF80440C07D8DF82F
:100DC00005009A4D9DF800602E706970AA70EB7056
:100DD0002C716871964997484279037943EA022356
:100DE0000B80C279837943EA02234B809249427A8D
:100DF000037A43EA02230B80C27A837A43EA02230E
:100E00004B808E49427B037B43EA02230B80C27BEB
:100E1000807B40EA02204880BDE87340A8E710B517
:100E2000814C082343F2EC00221804F1CC01204647
:100E300000F029FB082304F5A67204F14C012046BA
:100E400000F057FB2046BDE8104000F085BC7C4810
:100E500001784A0603D500207A49088070470906C0
:100E600001D520210170784909688A884EF603036C
:100E70009A4205D10078800702D501F11C0000E0FC
:100E80007047704738B57148006800F10C048588D8
:100E90004EF60310854206D169480078800702D5D6
:100EA000204600F07FFDB5F58A4F08D164480078F0
:100EB000800704D52046BDE8324000F073BD31BD47
:100EC00038B5594800F083F85E4C2088002815D0CA
:100ED0005F488089082809D10120FFF74DFA208852
:100EE000002803D000F0C4F900F041F800F062F9E6
:100EF000208800283AD0BDE8314038E055490878CC
:100F0000002833D000200870054611E0524840F216
:100F10001C61694308444C4908600220FFF72CFA21
:100F20002088002803D000F0A3F900F020F86D1C01
:100F3000052DEBD300200DE048484449086005200A
:100F4000FFF71AFA2088002803D000F091F900F08A
:100F50000EF801200028EFD041490878002805D07C
:100F600000200870BDE8314000F099B831BD38B5B7
:100F7000374C3C490878012820D104F12A0300208D
:100F80001870394802785A70384A15789D7055782B
:100F9000DD7000230B7036490B88B3F5007F0DDA46
:100FA0000023137053704FF400720A8019460170C9
:100FB00008461D49896C8880FFF7DAFE1A48C16A25
:100FC0008C6020490988BDE8344000F0CABA38B5C1
:100FD0000446002500F042FB002801D0284632BD1F
:100FE000E26B216C1A4800F04FFDE06B1549088058
:100FF000206B05E0016841F000410160C0686D1C94
:10100000A16B8D42F6D30020A063206841F2140149
:101010004258120606D5802242500020216841F233
:1010200008028850012032BD3001002080A5002038
:1010300028A500204880002094A5002090A500202D
:1010400024A500202CA500204CA5002050A50020A0
:10105000509E002098A50020BC61002044980020EC
:1010600099A500209AA500202C0100201C0000203A
:101070002000002070B5C44C002020700AE000223F
:101080000421C24B00EB400603EB860000F050FD4C
:101090006D1C2570257828460828F0DB70BD70B5DA
:1010A000B94CA5786D1CA5700020207015E000EBF0
:1010B00040018A00B54B981801889B1C9A5A11432D
:1010C00009D02946C9B2827A891A782903DB00221D
:1010D000042100F02DFD761C267026783046082865
:1010E000E5DB70BDF8B503460D46A74C0020207027
:1010F00001E0521C227022781046082818DAA34911
:1011000000EB400611EB860631880029F1D070888B
:101110000028EED01F888F42EBD159888142E8D158
:1011200006222946301D00F0AFFCA078B072F1BD58
:1011300000202070954A01E0491C21702178084662
:10114000082809DA00EB400612EB860630880028F2
:10115000F2D170880028EFD108291ED10020E0705C
:10116000607020700FE00A365143715CA278E67817
:1011700017468C46A7EB0C07BE4202DA511AE17003
:101180006070401C2070207801460C227F4E082998
:10119000E9DB607820704243164404221946304649
:1011A00000F072FC06222946301D00F06DFCA0788C
:1011B000B072F1BDF8B5764C20882A2802D2002002
:1011C0002080F1BD00202080724DA88AB0F5807F7C
:1011D00003D0B0F5007F39D0F1BD6F4EE88C318877
:1011E000884243D1288D718888423FD105F116018C
:1011F00005F11C00FFF776FF4FF40070A88206226D
:1012000005F1160105F1200000F03EFC634F0622B7
:10121000394605F1160000F037FC06223946A81DB4
:1012200000F032FC062205F12001284600F02CFCDB
:10123000A88BE884E88B28853088A8837088E883A9
:101240004FF4C160A8812A202080F1BD5248E98C6A
:10125000028891420AD1298D4088814206D105F148
:10126000160105F11C00BDE8F4403BE7F1BD0000AC
:101270002DE9F0414FF6FF71464CE28B8A4208D1CE
:10128000228C8A4205D1062248A1204600F0FCFBB0
:101290006DE043490A88404D2E883B4FE38B134055
:1012A000B44602EA0C02934206D14988228C0A40D5
:1012B0006B8819408A4205D03A490A88BA80498821
:1012C000F98003E0E18BB980218CF980002139702D
:1012D00001E0491C397039780A46082A0CDA2B4893
:1012E00002EB420300EB8300BA8803889A42F0D1F4
:1012F000FA8843889A42ECD1082933D1FF2206218B
:10130000204600F015FC0022062104F1200000F028
:101310000FFCDFF8888006224146A01D00F0B4FBD8
:101320000622414604F1160000F0AEFBB888E084C6
:10133000F8882085A6836888E0834FF48070A082B7
:10134000E081082020820620A0740420E0744FF47D
:10135000C160A08104F13600134908602A200C49BD
:1013600008800FE00622011D204600F08DFB0622BA
:101370000A49A01D00F088FB0820A08104480188CC
:101380000E310180BDE8F08188A5002030A4002046
:101390002CA50020509E002028A5002080A500201C
:1013A00094A5002090A5002044A50020FFFFFFFF8A
:1013B000FFFF0000F8B5040001D10120F2BD04F1E7
:1013C00044052878002804D100206870204600F0E9
:1013D000FEFBDFF8A415086820F4000008600A6826
:1013E000206A02430A6020684FF48056815941F018
:1013F0000101815100F0A4FC074620688159C9070A
:101400000CD500F09DFCC01B40F2F5118842F4D3CE
:1014100003202870002068700320F2BD066926F0C2
:101420001C0601F00FF8DFF854150918DFF85025F5
:10143000914202D246F0080608E0DFF84815081885
:10144000DFF84415884201D246F00C062068066198
:101450004FF40060E0604FF48040A06003202082E1
:101460000021204600F099F9012028700020F2BDEB
:1014700010B500F144040221217000F02AFC002084
:101480002070607010BDF0B40446002604F14405DD
:101490006878012801D1022029E00120687002202B
:1014A0002870E16219E0F96016E011EB06174FF4BD
:1014B0008010386040F2F45070431044B860E06926
:1014C000002803D1386840F440003860581E864236
:1014D000E9D207F11000F860761C9E42E5D320683F
:1014E00041F2100281500120287000206870F0BC89
:1014F0007047F0B4002500F144046678012E01D154
:1015000002202CE0012666700226267081621CE013
:10151000F16019E001EB05164FF00047376044F227
:10152000F457776040F2F4576F431744B760876908
:10153000012F03D1776827F0004777605F1EBD4217
:10154000E6D206F11007F7606D1C9D42E2D30068F9
:1015500041F20C0281500120207000206070F0BC2C
:101560007047F0B40246002002F144046378012B76
:1015700001D1022070E0012363700223237000294F
:1015800005D10120207000206070012064E0D76A3E
:101590003B68002B05D512202070002060700120D0
:1015A0005AE040F2F455A94208D92B46B1FBF3F6B4
:1015B00005FB1613002B02D0761C00E00126012E3D
:1015C00037D1386840F040503860C1F30C01D06A20
:1015D0004160D06A016841F000410160D06AC06892
:1015E000D06228E0D36A1F6827F040571F600028A8
:1015F00004D1D36A1F6847F080571F60D36A5D60CB
:10160000731E98420CD1D76AD7F800C04CF0005C2A
:10161000C7F800C005FB1313C3F30C03D76A7B6044
:10162000D36A1F6847F000471F60D36ADB68D36244
:10163000401CB042D6D3106841F2140143585B07F6
:1016400006D5042343500020116841F2040288505B
:101650000120207000206070F0BC704700F1440150
:101660004A78012A01D10220704701224A700222E1
:101670000A70826A1368002B2ED41368DB0519D513
:10168000826B521C8263012A01D1826A0263826AE0
:101690004263826A1268C2F30D42121FC263026B78
:1016A00092680264826AD268826201200870002017
:1016B0004870704713689B0508D502630022426397
:1016C00001228263826AD268826205E0826B521CC8
:1016D0008263826AD26882620120087000204870AA
:1016E0000120704738B50446206841F2140541597D
:1016F00049060CD5204600F00DFF402021684851D6
:1017000004F1440001210170002141700EE04059B4
:10171000C0070BD5204600F0FEFE0120216848518D
:1017200004F1440001210170002141704FF4803028
:10173000216848512068405900040CD5204600F02B
:10174000EBFE4FF400402168485104F144000121B0
:1017500001700021417031BD38B5044604F14405E3
:101760006878012801D1022032BD01206870022072
:101770002870204600F0A2F8204600F0B2F820467B
:1017800000F0D2F8204600F0BFF8204600F0C4F880
:10179000012028700020687032BD70B50446002911
:1017A00005D04FF40060E0604FF48040A060E06935
:1017B000002802D14FF4806100E000212268136804
:1017C00072480340A0680343E0680343194341F4AF
:1017D0000071116020680568012000F09FFE2068FC
:1017E000056040202168486020684568012000F0BD
:1017F00095FE206845600020216888602168C860E7
:10180000226891694FF64170014041F08001916179
:1018100020688569012000F081FE20688561002034
:101820002168C8612068C569012000F077FE206842
:10183000C561226841F2180691595548014041F0AE
:10184000087141F00401915120688559012000F090
:1018500065FE206885514FF480564E4821688851B6
:1018600020688559012000F059FE20688551A06943
:10187000012808D1206841F21C01425842F480320C
:1018800042F04002425004F1120200212046BDE81D
:1018900070405079137943EA00233F4840180360B1
:1018A000D07893781B0443EA0063507843EA00231E
:1018B00010780343394841180B6070471CB5044643
:1018C000002000902068016841F008010160206854
:1018D00000680090012000F03CF800982168086042
:1018E00013BD1CB50446002000902068016841F03B
:1018F00004010160206800680090012000F029F8D0
:1019000000982168086013BD006841F21801425830
:1019100042F4005242507047006841F218014258A8
:1019200042F002024250704738B504460020009051
:10193000206841F21805415941F480114151206855
:1019400040590090012000F004F8009821684851A7
:1019500031BD81B012490968C9084FF47A72B1FBF0
:10196000F2F14843009000BF0098411E009100280A
:10197000F9D101B0704700000400014000D3CEFE51
:10198000C0E1E40040F1E9FD40787D010F8120FFD6
:10199000233FDEF80020C102408002404480024024
:1019A00018000020F8B505462F4C228840F2DC5084
:1019B0001146814200DB02462C4801682C4E0B8800
:1019C00073804B88B380CB88F3802A4F7B8B0B804E
:1019D000B98B03685980798C0068C18026480168FA
:1019E00005F1240000F050F805F1250001780329E5
:1019F00001D0052909D14178317080787070787CE8
:101A0000397C40EA01202038B0802288314605F137
:101A1000240000F039FE001D18490870BDE8F140AF
:101A200038B5ADF5007D124C20788DF80000607857
:101A30008DF801000120124908700322694604F163
:101A4000080000F031F804F10F0004F10805451B0F
:101A50002A4604F108010848006800F015F8094812
:101A600005800DF5017D30BD2CA5002050A500207E
:101A70001C000020509E002044A500202C010020C6
:101A80009AA500202EA5002062B38B0708D0521E15
:101A900011F8013B00F8013B00F024808B07F6D1E0
:101AA000830740F0208000BF103A07D330B4B1E87C
:101AB0003810103AA0E83810F9D230BC530724BFD0
:101AC000B1E80810A0E8081044BF51F8043B40F802
:101AD000043BD20724BF31F8022B20F8022B44BF6D
:101AE0000B7803707047121F17D35B0009D151F8B0
:101AF000043B20F8023B1B0C121F20F8023BF6D2DD
:101B00000BE051F8043B00F8013B1B0A20F8023BB4
:101B10001B0C121F00F8013BF3D238BF121D521EDE
:101B200024BF11F8013B00F8013BF8D870470000D2
:101B300062F30F2262F31F42401810F0030308D033
:101B4000C91A1FD3DB0748BF00F8012D28BF20F8B2
:101B5000022D130030B414461546103928BF20E971
:101B60003C00FAD8490728BF20E90C0048BF40F8DC
:101B7000042D890028BF20F8022D48BF00F8012D50
:101B800030BC7047C91818BF00F8012DCB0728BF1B
:101B900000F8012D7047000081B06248016841F0F3
:101BA00001010160016801F00101009100994168A3
:101BB00041F080514160406800F0805000900098F2
:101BC0005948016821F0E061016001B0704730B50B
:101BD00085B0044610220021684601F063F82068B1
:101BE0005249884273D15248016841F480410160F2
:101BF000016801F4804104910499016841F40041B5
:101C00000160016801F4004104910499016841F404
:101C100080310160016801F48031049104994168C8
:101C200041F010014160416801F0100104910499F4
:101C3000416841F004014160416801F004010491F0
:101C40000499416841F008014160406800F00800D3
:101C50000490049802200090019003200390354CDA
:101C60006946204601F028F882200090002001906B
:101C70000290314D6946284601F01EF8042000907C
:101C800002200190032003906946284601F014F8D1
:101C9000302000900020019002906946204601F01B
:101CA0000BF84FF480600090002001900290234CCC
:101CB0006946204601F000F84FF460500090022081
:101CC0000190032003906946204600F0F5FF05B01F
:101CD00030BD00681549884200D0704780B514486F
:101CE000016821F400410160016821F48031016044
:101CF000016821F48041016032210E4801F0A5F80D
:101D000086210D4801F0A1F84FF460510B4801F015
:101D10009CF83D2001F086F93E20BDE8024001F02C
:101D200081B9000018100240040001400080024008
:101D3000141002400010014000080140000C014056
:101D400001484068704700BF0C00002038B5FFF71D
:101D5000F7FF0546DFF86C47206840F0010020607F
:101D60002068800706D4FFF7EBFF401B0328F7D35A
:101D7000032032BD206820F0F80040F08000206091
:101D8000FFF7DEFF002161600546606810F00C0F70
:101D900007D0FFF7D5FF401B41F289318842F4D3C9
:101DA000E6E7DFF82407DFF824170860DFF82007EC
:101DB000006801F043F9002801D0012032BDFFF78F
:101DC000BFFF0546206820F08070206020688001F9
:101DD00005D5FFF7B5FF401B0328F7D3C8E7002060
:101DE0006060FFF7ADFF0546206820F410202060FA
:101DF0002068800305D5FFF7A3FF401B6528F7D3B4
:101E0000B6E7206820F480202060FFF799FF0546A0
:101E1000206820F0806020602068000105D5FFF771
:101E20008FFF401B6528F7D3A2E7FFF789FF2168E2
:101E300021F08051216005462068800005D5FFF71C
:101E40007FFF401B6528F7D392E70020E062606ABD
:101E500040F0807060620020A06032BD2DE9FC413E
:101E6000040000F0EF81DFF85C562078C00713D53E
:101E7000686800F00C00042807D0686800F00C00C7
:101E800008283FD16868C0033CD52868800303D583
:101E9000A068002800F0D6812078800719D56868EE
:101EA00010F00C0F07D0686800F00C0008286BD108
:101EB0006868C00368D42868800703D56069012872
:101EC00040F0C081286820F0F800A16940EAC10014
:101ED00028602078000740F18480DFF8F815E06979
:101EE000002800F0A58001200860FFF729FF0646C2
:101EF000686A800772D4FFF723FF801B0228F7D996
:101F00000320A2E1A068B0F5803F04D1286840F426
:101F1000803028601DE0002808D1286820F4803037
:101F20002860286820F48020286012E0B0F5A02FF7
:101F3000286807D140F480202860286840F4803069
:101F4000286006E020F480302860286820F4802093
:101F50002860A06800280BD0FFF7F2FE064628682C
:101F6000800399D4FFF7ECFE801B6528F7D3C7E701
:101F7000FFF7E6FE0646286880038DD5FFF7E0FEF2
:101F8000801B6528F7D3BBE7DFF84C156069002894
:101F900015D001200860FFF7D3FE064628688007A9
:101FA00005D4FFF7CDFE801B0228F7D9A8E72868E3
:101FB00020F0F800A16940EAC100286089E700200C
:101FC0000860FFF7BDFE0646286880077FF581AFF1
:101FD000FFF7B6FE801B0228F6D991E7012000F03A
:101FE0005FFA207840077BD50026E869C00009D455
:101FF000E86940F08050E861E86900F080500090A6
:1020000000980126DFF8D4743868C0051ED43868FB
:1020100040F480703860FFF793FE80463868C00552
:1020200014D4FFF78DFEA0EB08006528F6D367E710
:1020300000200860FFF784FE0646686A8007D0D556
:10204000FFF77EFE801B0228F7D959E72069012897
:1020500004D1286A40F0010028621CE0002808D161
:10206000286A400840002862286A20F0040028629C
:1020700011E00528286A07D140F004002862286A88
:1020800040F00100286206E0400840002862286A0B
:1020900020F004002862206900280DD0FFF750FED0
:1020A0000746286A800715D4FFF74AFEC01B41F295
:1020B00089318842F5D323E7FFF742FE0746286AB5
:1020C000800707D5FFF73CFEC01B41F289318842EB
:1020D000F5D315E7012E03D1E86920F08050E861BF
:1020E000E06A002855D06968C90308D5696801F01D
:1020F0000C01082903D1E96AC90300F1A380022871
:1021000033D12868C00006D5E86A00F0F000616BA2
:10211000884240F09780DFF8C0630020B066FFF788
:102120000FFE07462868000105D5FFF709FEC01B12
:102130006528F7D3E4E6E86A20F0F000616B084315
:10214000E862E86A20F47060216B0843E8620120CD
:10215000B066FFF7F5FD06462868000119D4FFF7C1
:10216000EFFD801B6528F7D3CAE6E86A20F48030CB
:10217000E8620020DFF860138866FFF7E1FD06469D
:102180002868000105D5FFF7DBFD801B6528F7D324
:10219000B6E6206A002857D0696801F00C010829CA
:1021A00043D0DFF83463022831D100203066FFF7D6
:1021B000C7FD07462868800105D5FFF7C1FDC01B94
:1021C0000228F7D99CE6606AB0F5803F09D1E96A38
:1021D00060680143E962E96A0909E06850EA0111AF
:1021E000E962696821F47411606A0143A06A0143DD
:1021F000696001203066FFF7A3FD0446286880016E
:1022000022D4FFF79DFD001B0228F7D978E60020B5
:102210003066FFF795FD04462868800114D5FFF766
:102220008FFD001B0228F7D96AE601280AD06868EA
:1022300000F48031626A914204D100F47010A16A06
:10224000884201D0012000E00020BDE8F6810000B6
:102250002DE9F04104460F46002C62D0DFF8806281
:10226000306800F00700B84209D23068C00857EA69
:10227000C0003060306800F00700B84251D12068DB
:10228000DFF84052810712D5400703D5686840F453
:10229000E06068602078000703D5686840F460500B
:1022A0006860696821F0F001A068014369602078E6
:1022B000C00727D56068012803D12968890308D49D
:1022C0002FE00228296802D1890102D429E0890778
:1022D00027D56968890850EA81006860FFF730FDFA
:1022E0008046686800F00C006168B0EB810F09D08F
:1022F000FFF726FDA0EB080041F289318842F0D3B8
:10230000032034E0306800F0070087420BD23068C9
:10231000C00857EAC0003060306800F00700B842DB
:1023200001D0012023E02078400705D5696821F419
:10233000E061E068014369602078000706D56868BD
:1023400020F46050216940EAC100686000F03AF86A
:10235000084979441E316A68C2F30312895CC84097
:102360005A4908605A48006800F068FE0020BDE83D
:10237000F08100BFA01F000030B585B00C461022D0
:10238000002101A800F08EFC02200290032004909E
:10239000002003904FF480700190524D686940F026
:1023A00004006861686900F004000090009801A9C9
:1023B0004D4800F081FC286820F0706004432C60D8
:1023C00005B030BD2DE9D0414648016801F00C024E
:1023D000042A02D0082A02D031E0444830E000BF8D
:1023E00044A2C1F38343D45CC90324D545A1826AC6
:1023F00002F00F02895C826AD20314D5826AC2F3AA
:102400000312521CA1FB0223806AC0F30320801C2C
:10241000A4FB0067DFF8D480A8FB060108FB0711C6
:1024200000F04AFE03E031486043B0FBF1F00D2CB0
:1024300006D1400804E020462D49484300E02248E8
:10244000BDE8D081214800687047000080B5FFF7E3
:10245000F9FF054979441031224A1268C2F3C222B9
:10246000895CC84002BD00BFD81E00000F22026078
:102470001C4A136803F003034360136803F0F0037E
:102480008360136803F4E063C3601268D20802F447
:10249000E06202611248006800F0070008607047BF
:1024A00081B00A490968C9084FF47A72B1FBF2F1A8
:1024B0004843009000BF0098411E00910028F9D1C8
:1024C00001B070470010024000127A00180000208E
:1024D000140000208004424200004242007000408C
:1024E000002002400410024000080140001BB70019
:1024F00000093D000000040506070809000000006F
:10250000000D00000102030405060708090A0B0C70
:102510000D0E0F10704770477047000038B5044625
:10252000FFF70EFC054614F1010F02D004480078B5
:102530000419FFF705FC401BA042FAD331BD00BFD0
:102540000C00002080B500F016FF3420DFF8901654
:102550000860BDE8014000F01CBF18B585B0044616
:102560000020009000F007FFDFF8780684420DD2CB
:1025700000200190039401200290DFF86C06041BF8
:10258000E40A0494694601A800F076FF00F001FF18
:10259000401E8041C043C00F06B010BDF8B50446D0
:1025A0000D461646002700F0E6FE01E0241D7F1CC4
:1025B000B74215D2DFF83406844211D255F82720ED
:1025C00000232146022000F08FFE002806D120685B
:1025D00055F827108842E9D00220F2BD0320F2BD51
:1025E00000F0D7FE0020F2BD1FB500221021684682
:1025F000FEF784FB00F0DCFA00283FD1DFF8F0059D
:10260000FEF736FFDFF8EC0500F0E8FF4FF48040FE
:1026100000901120019000200290012003906C4650
:102620002146DFF8D40500F010FCC0200090012006
:10263000019000200290022003902146DFF8BC05A3
:1026400000F003FC4FF48070009002200190032002
:1026500003902146DFF8A80500F0F7FB01F0A9F987
:10266000FFF774FB01F044FADFF89805DFF89815DE
:102670000860DFF89805006880471FBDDFF8900507
:102680000021416001701FBDF8B5034614460126C4
:102690004878097850EA0120DFF87855288135D14B
:1026A000002028806860E86031465878052802D10B
:1026B000204604281CD0A21E92B226460FE09F5C42
:1026C00007F00F0701FB0700E86001EB8100410004
:1026D000985C002801D132460A3A521E92B2E8684C
:1026E000A6F108079742EADBDFF82C15884201D3F0
:1026F0000120F2BDDFF824154861002000F071F8D8
:10270000DFF80005FFF729FF064667E029880A463B
:10271000801A01282DD1084680082882A2EB800269
:102720006A82491C29805202AA82002005F1160102
:1027300005E0AA8A12181E1D365C8E54401CB0F5A6
:10274000007FF6DB0026688A032803D02046B0F518
:10275000017F3ADA288ADFF8AC1401EBC021696006
:102760004FF4007205F116016868FFF717FF06467F
:102770002BE0002832D189082982A2EB81026A82EB
:102780005202AA82002005F1160105E0AA8A121859
:102790001E1D365C8E54401CB0F5007FF6DB002613
:1027A000688A032803D02046B0F5017F0DDA288A15
:1027B000DFF8501401EBC02169604FF4007205F19D
:1027C00016016868FFF7EAFE0646B4F5017F05DAF0
:1027D00000F0D5F90120DFF8381408703046C0B297
:1027E000F2BD78B585B00C46010003D10126DFF8B3
:1027F000305408E0012803D10126DFF8285402E014
:102800000226DFF81C540020009000F0B4FD0020E8
:10281000019003950120029030460490694601A87A
:1028200000F02AFE00F0B5FD760232462146284629
:10283000FFF7B4FE06464FF4806229462046FFF7B4
:1028400023F93046C0B206B070BD000070B50C214F
:10285000DFF8D40301F060F9DFF8C4134A881346A7
:10286000834202D1002A40F08381EC4C088820800A
:10287000C0202071A82060710020A0716420E07148
:10288000FF2525726572A5720020E072C0202073BA
:10289000A82060730020A0730120E0730020206155
:1028A00060614FF00110A0610020A083A077024674
:1028B000102104F11F00FFF73BF905220FF27031E0
:1028C00004F11F00FFF7E0F80022102104F12F00AF
:1028D000FFF72EF904220FF2603104F12F00FFF709
:1028E000D3F804F13F000A2101700021417081708A
:1028F0001221C17004F144005021018004F5E876F2
:10290000A2213187512181800022202104F14A0037
:10291000FFF70EF95FF00E02C9A104F14A00FFF7BC
:10292000B3F80022202104F16A00FFF701F90F2219
:10293000C7A104F16A00FFF7A7F804F18A0001219A
:10294000017000218170012141700021C1700A468F
:10295000202104F18E00FFF7EBF83D22FA2104F16B
:10296000AE00FFF7E5F83D22282104F5D470FEF70C
:10297000C5F942F20F7030807080B080F0803081F5
:1029800070810020307375735520B0731520F0737B
:102990004E20307417207074C220B074BE20F074C2
:1029A000A8203075012070757B20F08204F5F47545
:1029B000002220212846FEF7A1F92022A8A12846BE
:1029C000FFF762F8A220308704F20A2500222021B6
:1029D0002846FFF7ADF800BFA6A6052231462846D7
:1029E000FFF752F804F22A25002220212846FFF79B
:1029F0009FF8052231462846FFF746F81920A4F82B
:102A0000C00204F2C225002220212846FFF790F8D8
:102A10009AA6052231462846FFF736F804F2E22549
:102A2000002220212846FFF783F805223146284658
:102A3000FFF72AF804F20235002220212846FFF78A
:102A400077F8052231462846FFF71EF85FF00D02A1
:102A50008BA104F24A20FFF717F804F26A20002144
:102A6000017072490A681288120A42704A68138813
:102A700083701288120AC27089680A680271096834
:102A800089B2090A417159218171DC21C171072282
:102A90007FA104F27220FEF7F7FF0A227EA104F262
:102AA0008220FEF7F1FF0020A4F8120804F61405B6
:102AB00002464FF4FA612846FEF720F904F2B920E5
:102AC0000021017041708170C17004F29220C02118
:102AD0000170A8214170002181709821C1700021EE
:102AE0004171042101710021C180012101724172F3
:102AF0008172C021C172A821017300214173972105
:102B00008173C021C173A8210174002141749821EF
:102B10008174C021C174A8210175002141759921DA
:102B20008175002101830F2141834FF47A718183E4
:102B30000821C1830C2101840F214184002181845B
:102B40000C21201D00F0E8FF60804FF4FA61284658
:102B500000F0E2FFA4F8120840F2E27104F11E0056
:102B600000F0DAFFA08321460320BDE8704038E67C
:102B70004FF480622948BDE87040FEF795BF70B5FC
:102B8000274C61691F4800F0C7FF0546234E4FF4EC
:102B9000806221463046FEF787FF35800C21301DCC
:102BA00000F0BAFF708031460020BDE8704018E6A2
:102BB00070B51B4D6969134800F0AEFF0446174E0F
:102BC0004FF4806229463046FEF76EFF308884421B
:102BD00003D1002C01D0002070BD012070BD000089
:102BE0000C2002400000040801000408FDFF030857
:102BF00030010020D8A40020001401400010014042
:102C0000000801400070000808ED00E004700008B2
:102C100078A500202C90002001900300488000201F
:102C20000050000800580008045000080000002070
:102C30007669736F7200000070696E6700000000B3
:102C4000506F776572207377696368204F4E00007C
:102C5000506F776572207377696368204F4646002E
:102C60004E616D6520534E4D5020536572766572EE
:102C70000000000061646D696E000000000000004B
:102C80004D6F73636F77206F666669636500000040
:102C9000444B5346203539006E657470696E672E5B
:102CA0007275000010B5044610460A4601462046DB
:102CB000FEF73EFF204610BDF8B50246002425462B
:102CC0000CE026EA0303C36007E09E4386604E687B
:102CD000B602C668F5D53343C360641C0B6818465A
:102CE000E04000F0B1800126A6403340B342F4D169
:102CF0004868002827D001281AD002281DD00328B0
:102D00002ED0112816D012281AD08E4FB8421AD0C1
:102D10008D4FB84217D08D4FB84214D08C4FB84267
:102D200011D08C4FB8420ED08B4FB8420BD018E068
:102D3000CD6816E0CD682D1D13E0CD68083510E094
:102D4000CD680C350DE08868002801D1042508E025
:102D5000012802D10825166103E00825566100E02C
:102D60000025B3F5807F01D2164600E0161DB3F5AD
:102D7000807F01D2A70002E0A4F10807BF000F2066
:102D8000D6F800C000FA07FE2CEA0E0C05FA07F789
:102D900047EA0C0737604E68F6009ED56F4E3768DD
:102DA00047F001073760366806F001060096009E7E
:102DB0002646B6086A4F57F826E04FEA840C0CF016
:102DC0000C0C00FA0CF02EEA0000DFF898E17245D6
:102DD00002D14FF0000E16E0DFF88CE1724502D10F
:102DE0004FF0010E0FE0DFF884E1724502D14FF0A1
:102DF000020E08E0DFF878E1724502D14FF0030ED1
:102E000001E04FF0040E0EFA0CFC4CEA000047F80B
:102E1000260058484E68F603066802D51E43066031
:102E200001E09E4306604E68B603466802D51E4325
:102E3000466001E09E4346604E68F60286687FF574
:102E400044AF1E43866042E7F1BD2DE9F0410246E2
:102E5000002316E0A3F10805AD0004E0161DB0F54F
:102E6000807FF7D29D003768AC4027EA040404272E
:102E700007FA05F525433560D46824EA0000D060E0
:102E80005B1C0846D8404BD0012098400840F7D042
:102E90001D46AD08324E56F825E09F0007F00C079E
:102EA0000F2404FA07FC0CEA0E0EDFF8B880424546
:102EB00002D14FF0000816E0DFF8AC80424502D1A5
:102EC0004FF001080FE0DFF8A480424502D14FF037
:102ED000020808E0DFF89880424502D14FF003086D
:102EE00001E04FF0040808FA07F7BE4513D156F881
:102EF000257027EA0C0C46F825C0C5431D4E3768DF
:102F00002F40376077682F407760B7682F40B760F1
:102F1000F7683D40F560B0F5807F9FD216469EE78A
:102F2000BDE8F081002A01D0016170470904016108
:102F30007047C26801EA0203914341EA034101611B
:102F40007047000000001110000012100000211056
:102F50000000221000003110000032101810024052
:102F60000800014000080140000C01400010014031
:102F700000140140000401402B4A13684FF6FF0182
:102F80000B40000200F4E060184328490843106039
:102F9000704725480068C0F302207047010007D43D
:102FA000012200F01F018A402149400941F82020F8
:102FB00070470901020002D41E48815470471E4820
:102FC00002F00F02104400F8041C704710B400F027
:102FD0000700C0F10703052B00D30423041D072CB1
:102FE00001D2002000E0C01E012404FA03F35B1E9E
:102FF0001940814004FA00F0401E1040084310BC04
:103000007047B9E770B504460D461646FFF7C1FF95
:1030100032462946FFF7DAFF01462046BDE87040F8
:10302000C7E7BBE7704700000CED00E00000FA05C1
:1030300000E100E000E400E018ED00E018B587B022
:10304000014600221920FFF7DDFF1920FFF7E9FFF5
:103050001548016841F400610160006800F40060F7
:103060000090009801A902A8FFF700FAFFF7EEF917
:1030700040000E4C0E49216040F2E731E1600D49FD
:10308000B0FBF1F0401E606000202061A06020468F
:1030900000F05CFD002803D1204600F079FD00E03F
:1030A000012008B010BD00001810024090A40020BC
:1030B000002C014040420F00BBBBE1B1B2F5803FA4
:1030C00080F07E80022A1ED98C46B1FBF2F102FB11
:1030D00011C31B0443EA1043B3FBF2FC02FB1C3395
:1030E00080B240EA0343B3FBF2F002FB103240EA45
:1030F0000C4000237047022A05D98446B0FBF2F049
:1031000002FB10C270474AB105D100F00102490824
:103110005FEA3000704700220023704700F060BE75
:103120000B000200002100207047904271EB030C5D
:10313000F6D3B3F5803F2FD2F0B5B3FA83F7B1FAE7
:1031400081F4A7F10F0E3D1B5340CEF1200602FA89
:103150000EF2F3415340B5F10F0746D80F3C2C4413
:103160004140C4F12006A040F1414140B1FBF3F6DB
:1031700003FB1611A2FB0645001BA94102D2761ED5
:103180008018594180EA010221FA0EF362FA0EF228
:1031900000215A403046F0BD30B4B1FBF3FC03FBD4
:1031A0001C11A2FB0C45001BA94103D2ACF1010C80
:1031B0008018594130BC02460B46604600217047DA
:1031C000B2F1807F65D3F0B5B2FA82F7B1FA81F43B
:1031D000C7F10F063D1B22FA06F307F1110EF2416B
:1031E00020355A40B5F10F07B8D94140C4F1200647
:1031F000A040F1414140B1FBF3FC03FB1C11A2FBD9
:103200000C45001BA94103D2BCF1010C80185941A7
:103210000F2F12D30F3FC90341EA5041B1FBF3F620
:1032200003FB1611A2FB0645D4EBC030A94102D224
:10323000761E8018594146EACC3C07B34140C7F19D
:103240002006B840F1414140B1FBF3F603FB1611F3
:10325000A2FB0645001BA94102D2761E80185941E7
:1032600080EA010221FA0EF3C7F1200462FA0EF29D
:103270000CFA07F05A402CFA04F13043F0BD80EA12
:10328000010221FA0EF3002162FA0EF260465A4062
:10329000F0BD8C46B1FBF2F102FB11C31B0243EA05
:1032A0001063B3FBF2FC02FB1C331B024CEA002050
:1032B00043EA1063B3FBF2FC02FB1C331B024CEA33
:1032C000002043EA1063B3FBF2FC02FB1C331B0239
:1032D0004CEA002043EA1063B3FBF2FC02FB1C3211
:1032E0004CEA0020002370472DE9F04780468946CC
:1032F00014461D465A4E307E012801D1022038E086
:10330000012030764CF25037384600F053F8010077
:103310002DD1B8F1010F02D14FF0010807E0B8F14B
:10332000020F02D14FF0020801E04FF00408002123
:10333000CA46894603E009F101095FFA89F9C145E6
:1033400015DA204629464FEA091200F04BFD0146E6
:1033500089B20AEB490000F023F8384600F02AF859
:1033600040490A68520852000A600100E3D0002177
:103370003176BDE8F08700203C49CA68120607D5BF
:103380003B4A0A603B4A0A60C968090600D5012029
:1033900070473448016841F08001016000207047A7
:1033A00000222F4BDA612F4A136843F001031360A8
:1033B0000180704738B50446FEF7C2FC05462A482E
:1033C0000168C9070BD514F1010FF8D0002C04D007
:1033D000FEF7B6FC401B8442F1D2032032BD0168E7
:1033E000890601D5202101600168C90605D401695B
:1033F000C90702D40068400703D500F004F8012093
:1034000032BD002032BD002117480268D20605D522
:103410001349CA6942F00202CA61102102685207C8
:1034200006D50F4AD36943F00103D36141F004018B
:103430000269D20708D50A4AD36943F00403D3616D
:10344000026952085200026140F20112914204D115
:103450000169490849000161704701607047000037
:1034600058A50020102002400C20024004200240F9
:1034700023016745AB89EFCD2DE9F84307460E469A
:103480000124DFF8C850287E012801D102203FE046
:10349000204628764CF2503838680228404611D130
:1034A000FFF788FF002830D1204600F033F840466F
:1034B000FFF780FF0446DFF89800016821F004015F
:1034C000016022E0FFF776FF00281ED14FF0FF30A9
:1034D0003060D7F8089001E009F50069F868B9682C
:1034E00001EBC021894510D2484600F020F8404643
:1034F000FFF760FF0446DFF85800016821F0020181
:1035000001602000E8D0C6F8009000202876204610
:10351000BDE8F28300200D49C8610D48016841F003
:1035200004010160016841F0400101607047002121
:10353000064AD16106490A6842F002020A60486000
:10354000086840F0400008607047000058A500205F
:103550001020024010B4002801D101203CE0036893
:1035600000F13802DFF8F8108B420BD2DFF8F410CC
:10357000CB181421B3FBF1F189009160DFF8E8105A
:1035800051600AE0DFF8E410CB181421B3FBF1F12D
:1035900089009160DFF8D8105160022180F8211075
:1035A00003681C686FF30D1441680C4381680C4379
:1035B000C1680C4301690C4341690C4381690C43A8
:1035C000C1690C431C6000211160012180F82110A9
:1035D000002180F82010084610BC7047002801D157
:1035E0000120704701680A68520852000A600021F1
:1035F0000268116002685160026891600268D160DF
:10360000036800F12802DFF858108B420BD2DFF874
:103610005410CB181421B3FBF1F189009161DFF84C
:10362000481051610AE0DFF84410CB181421B3FBB5
:10363000F1F189009161DFF838105161012391693E
:103640008B4051694B600021116051609160D160E5
:10365000116180F8211080F82010084670470000A2
:1036600008040240F8FFFDBF00000240F8FBFDBF68
:103670000004024080B5FEF765FF00F029FA00F073
:1036800014F8FFF7E3F800F0D1F800F0ACF800F020
:1036900079F8FDF77CFBFDF713FCDFF8E003007819
:1036A0000128F8D1FEF7A0FFF5E700B59BB038225E
:1036B000002105A8FFF7F6FA142200216846FFF75B
:1036C000F1FA2022002113A8FFF7ECFA052005905B
:1036D0004FF48030079005210891012109910A914A
:1036E000069002210D910E904FF440200F90084655
:1036F00010904FF4606011903020129005A8FEF7F2
:10370000ADFB002801D000F0E1F90F20009002206D
:103710000190002002904FF4A06003904FF480606D
:10372000049001216846FEF793FD002801D000F0C7
:10373000CDF9012013904FF4807014904FF4604045
:1037400018903020199013A800F05CFB002801D0DD
:1037500000F0BCF900224FF030611046FEF70CFE7D
:10376000C748016821F0F00141F0300101600168B3
:1037700021F4704141F4604101600120C1490860B9
:103780001BB000BD80B5C048C04901600121416047
:103790004FF4804181604FF40061C16000210182DB
:1037A0008174BB4909680988090AC174B949096863
:1037B0000A8802750988090A4175B74909680A68C3
:1037C0008275096889B2090AC17501218161C161E7
:1037D0004FF400010162FDF7EDFD002802D0BDE8C5
:1037E000014073E101BD80B5AC48016841F00101C1
:1037F0000160006800F0010000900098A848A94905
:10380000016000214160402181608021C160002170
:103810000161416181614FF40051C161FFF79AFE7E
:10382000002802D0BDE8014050E101BD78B585B067
:10383000102200216846FFF735FA984D686840F07D
:1038400010006860686800F01000049004986868D0
:1038500040F004006860686800F004000490049878
:10386000686840F008006860686800F0080004902C
:103870000498686840F020006860686800F02000E4
:103880000490049801224FF480418748FFF74AFBD7
:10389000864C002280212046FFF744FB286840F434
:1038A00080402860286800F48040049004982868CC
:1038B00040F400402860286800F400400490049818
:1038C000286840F480302860286800F48030049034
:1038D0000498686840F010006860686800F01000A4
:1038E00004900498686840F004006860686800F01C
:1038F000040004900498686840F0080068606868F4
:1039000000F0080004900498022000900190032029
:10391000039069462046FFF7CFF9822000900020EF
:1039200001900290624D69462846FFF7C5F90420D0
:103930000090022001900320039069462846FFF77B
:10394000BBF930200090002001900290694620468B
:10395000FFF7B2F94FF480600090002001900290D0
:10396000544E69463046FFF7A7F94FF46050009077
:10397000022001900320039069463046FFF79CF92E
:1039800080200090012001900020029002200390EE
:1039900069462046FFF790F94FF4807000900220AE
:1039A00001900320039069462846FFF785F906B089
:1039B00070BD00B593B03822002105A8FFF772F959
:1039C000142200216846FFF76DF9022005900120BE
:1039D0000A9010200B9000200D90109005A8FEF783
:1039E0003DFA002801D000F071F80F20009000206F
:1039F000019002900390049001466846FEF728FC6F
:103A0000002801D000F062F801201E49086013B0C0
:103A100000BD00682849884200D0704780B500F09A
:103A2000BBFA264A13685B1C13604FF4FA70B3FBB1
:103A3000F0F04FF4FA7101FB103000280FD1012093
:103A40001F49087042F21070834204D301201D49BF
:103A500008700020106080211448FFF76AFA1A48A5
:103A6000016844F62062914202D2491C016001BD06
:103A70000021016001200149087001BD78A50020E6
:103A80002C100240700042423001002000800240B1
:103A90000000002004000020080000201410024054
:103AA000D8A400200800024000140140001001408A
:103AB00000080140000C0140002C014054A50020EA
:103AC00098A5002099A500207CA5002072B6FEE7ED
:103AD00080B50F48016841F0100101600320FFF735
:103AE00090FA0020FFF7AAFAFEF756F8002002BD70
:103AF00080B508484FF0FF3101600022426001604C
:103B00000260C1611146C16100F04EFA002002BDA1
:103B1000002002400C10024070B402460020034610
:103B20000DE0094C7C4420340546ADB212F8016B1F
:103B300086EA252634F8164084EA00205B1C8B4276
:103B4000EFDB80B270BC70477004000038B5040031
:103B500001D1012032BD04F13C056878002804D170
:103B600000202870204600F039F902206870211DDD
:103B7000206800F0F0F80120A872A870E8702871A1
:103B80006871A871E871287268726870002032BD8F
:103B900090F83D10012901D001207047022180F8E2
:103BA0003D100168CA6842F00102CA600068DFF88F
:103BB000441088420ED0B0F1804F0BD0DFF838109F
:103BC000884207D0DFF83410884203D0DFF8301085
:103BD000884209D1816801F00701062908D00168EF
:103BE00041F00101016003E0016841F00101016061
:103BF00000207047002C01400004004000080040F5
:103C0000000C004010B5044620680169890717D5EB
:103C1000C168890714D56FF0020101610120207786
:103C20002068806910F0030F204602D000F0BDF933
:103C300004E000F0BBF9204600F0B9F9002020773D
:103C400020680169490717D5C168490714D56FF085
:103C500004010161022020772068806910F4407F10
:103C6000204602D000F0A1F904E000F09FF92046C0
:103C700000F09DF90020207720680169090717D519
:103C8000C168090714D56FF008010161042020778D
:103C90002068C06910F0030F204602D000F085F9BB
:103CA00004E000F083F9204600F081F9002020773D
:103CB00020680169C90617D5C168C90614D56FF017
:103CC00010010161082020772068C06910F4407F4E
:103CD000204602D000F069F904E000F067F92046C0
:103CE00000F065F90020207720680169C90708D530
:103CF000C168C90705D56FF0010101612046FFF7D2
:103D000088FE20680169090608D5C168090605D53D
:103D10006FF080010161204600F04AF920680169D6
:103D2000490608D5C168490605D56FF04001016113
:103D3000204600F03EF92068016989060AD5C1686D
:103D4000890607D56FF0200101612046BDE81040CB
:103D500000F030B910BD10B404681B4B98420BD072
:103D6000B0F1804F08D0194A904205D0184A9042CD
:103D700002D0184A904203D124F070044A681443D8
:103D800098420BD0B0F1804F08D0104A904205D035
:103D90000F4A904202D00F4A904203D124F440745B
:103DA000CA68144324F080044A69144304608A6892
:103DB000C2620A688262984202D10969064A1160A9
:103DC0000121416110BC7047002C014000040040FB
:103DD00000080040000C0040302C014070470000FB
:103DE00070470000D2B2203A22BF21FA02F000212F
:103DF00070472032D141D04048409140D1404840A6
:103E0000704700002DE9F84304460025DFF878618B
:103E10002078C00758D52F46F069C00009D4F06952
:103E200040F08050F061F06900F080500090009800
:103E30000127DFF85881D8F80000C00514D4D8F85D
:103E4000000040F48070C8F80000FDF779FF81465B
:103E5000D8F80000C00507D4FDF772FFA0EB0900F9
:103E60006528F5D303208DE0306A10F440701FD030
:103E7000616801F4407188421AD0306A20F44070C1
:103E8000DFF80C1101220A602A460A603062C0077E
:103E90000ED5FDF755FF8046306A800708D4FDF740
:103EA0004FFFA0EB080041F289318842F4D3D9E7F3
:103EB000316A21F44071606801433162012F03D1FE
:103EC000F06920F08050F0612078800705D5716896
:103ED00021F44041A068014371602078400705D576
:103EE000F16A21F40031E0680143F16220780007B3
:103EF00005D5F16A21F4802120690143F162F06A5D
:103F0000800302D4F06A400301D501200546012D4B
:103F10002ED13068C00023D4A0693168490104D58E
:103F2000F16A01F0F001814220D1F16A21F0F00143
:103F30000843F062F16A21F4704160690143F16263
:103F40000120DFF850100860FDF7FAFE05463068E2
:103F500080000DD4FDF7F4FE401B6528F7D381E700
:103F6000F06A00F470406169884201D0012009E0E4
:103F70002078C00605D5716821F48001E06901430D
:103F800071600020BDE8F283001002400070004024
:103F9000400442427000424202494A68087882184E
:103FA0004A6070470C0000207047704770477047A8
:103FB00070477047704700000000211042206330B6
:103FC0008440A550C660E770088129914AA16BB171
:103FD0008CC1ADD1CEE1EFF1311210027332522219
:103FE000B5529442F772D662399318837BB35AA3C1
:103FF000BDD39CC3FFF3DEE36224433420040114E9
:10400000E664C774A44485546AA54BB52885099510
:10401000EEE5CFF5ACC58DD55336722611163006B8
:10402000D776F6669556B4465BB77AA71997388760
:10403000DFF7FEE79DD7BCC7C448E5588668A77878
:104040004008611802282338CCC9EDD98EE9AFF9B0
:10405000488969990AA92BB9F55AD44AB77A966A58
:10406000711A500A333A122AFDDBDCCBBFFB9EEB00
:10407000799B588B3BBB1AABA66C877CE44CC55C28
:10408000222C033C600C411CAEED8FFDECCDCDDD50
:104090002AAD0BBD688D499D977EB66ED55EF44EF8
:1040A000133E322E511E700E9FFFBEEFDDDFFCCFA0
:1040B0001BBF3AAF599F788F8891A981CAB1EBA1F4
:1040C0000CD12DC14EF16FE18010A100C230E32070
:1040D0000450254046706760B9839893FBA3DAB318
:1040E0003DC31CD37FE35EF3B1029012F322D232C0
:1040F0003542145277625672EAB5CBA5A8958985E8
:104100006EF54FE52CD50DC5E234C324A01481040F
:104110006674476424540544DBA7FAB79987B897B7
:104120005FE77EF71DC73CD7D326F2369106B0165F
:1041300057667676154634564CD96DC90EF92FE977
:10414000C899E9898AB9ABA94458654806782768AF
:10415000C018E1088238A3287DCB5CDB3FEB1EFB57
:10416000F98BD89BBBAB9ABB754A545A376A167AFF
:10417000F10AD01AB32A923A2EFD0FED6CDD4DCD27
:10418000AABD8BADE89DC98D267C076C645C454C4F
:10419000A23C832CE01CC10C1FEF3EFF5DCF7CDFF7
:1041A0009BAFBABFD98FF89F176E367E554E745E9F
:1041B000932EB23ED10EF01EBFF34F8F11490A6805
:1041C00002F4E062104802430A60BFF34F8F00BF61
:1041D000FDE7FEE7FFF7F0FF00BFFEE7FFF7ECFFAC
:1041E00000BFFFF7E9FF00BF704770477047704797
:1041F0000648FFF707BD0648FDF774BA0448FDF707
:1042000071BA00000CED00E00400FA0590A4002053
:104210003001002030B5016884684218416802EB23
:104220005103C90703D54C4401E0491C05D19A420A
:104230000AD012F9011B12F8015B002904F8015B96
:10424000F3D4491EF7D5F2E70C3030BD10B500F0BD
:1042500013F8020000230024E4431068A04203D0B6
:1042600011000220ABBE13605068A04203D0111DA4
:104270000220ABBE536010BD0048704724010020EF
:1042800010B5074979441831064C7C44163404E0D3
:104290000A68081D114488470146A142F8D110BDA3
:1042A00008000000240000008FCAFFFF6CA400007B
:1042B00030010020000000005DFFFFFF74010000DE
:1042C0004A0000000000002000F00DF8002801D096
:1042D000FFF7D6FFAFF300800020AFF30080FFF7B9
:1042E000C9F900F002F80120704700F001B80000A1
:1042F0000746384600F002F8FBE7000080B5FFF7FC
:10430000A5FF024A11001820ABBEFBE72600020001
:1043100070470000000000000000000001020304DC
:104320000607080901488047014800471143000873
:1043300035430008AFF30080AFF30080FFF7C4FF00
:104340000000000001020304FFF7FEBFFFF7FEBFFD
:10435000FFF7FEBFFFF7FEBFFFF7FEBFFFF7FEBF91
:10436000FFF7FEBFFFF7FEBFFFF7FEBFFFF7FEBF81
:10437000FFF7FEBFFFF7FEBFFFF7FEBFFFF7FEBF71
:10438000FFF7FEBFFFF7FEBFFFF7FEBFFFF7FEBF61
:10439000FFF7FEBFFFF7FEBFFFF7FEBFFFF7FEBF51
:1043A000FFF7FEBFFFF7FEBFFFF7FEBFFFF7FEBF41
:1043B000FFF7FEBFFFF7FEBFFFF7FEBFFFF7FEBF31
:1043C000FFF7FEBFFFF7FEBFFFF7FEBFFFF7FEBF21
:1043D000FFF7FEBFFFF7FEBFFFF7FEBFFFF7FEBF11
:1043E000FFF7FEBFFFF7FEBFFFF7FEBFFFF7FEBF01
:1043F000FFF7FEBFFFF7FEBFFFF7FEBFFFF7FEBFF1
:10440000FFF7FEBFFFF7FEBFFFF7FEBFFFF7FEBFE0
:10441000FFF7FEBFFFF7FEBFFFF7FEBFFFF7FEBFD0
:10442000FFF7FEBFFFF7FEBFFFF7FEBFFFF7FEBFC0
:104430000CE8F7FF1FEAF7FF1FECF7FF1F01F90079
:104440000010FC000124F4FA00000281008100FC4D
:0544500000F8FF00016F
:1050000000000000000000000000000000000000A0
:0C50100000000000000000000000000094
:105802000000000000000000000000000000000096
:105812000000000000000000000000000000000086
:040000050800433577
:00000001FF
