:020000040800F2
:1000000088CB0020FD3D0008AF3C0008B13C000853
:10001000B73C0008B93C0008BF3C000800000000E5
:10002000000000000000000000000000C53C0008C7
:10003000C73C000800000000C93C0008CB3C000899
:10004000213E0008253E0008293E00082D3E0008FC
:10005000313E0008353E0008393E00083D3E0008AC
:10006000413E0008453E0008493E00084D3E00085C
:10007000513E0008553E0008593E00085D3E00080C
:10008000613E0008653E0008693E00086D3E0008BC
:10009000713E0008753E0008793E00087D3E00086C
:1000A000813E0008CD3C0008853E0008893E0008DE
:1000B0008D3E0008913E0008953E0008993E0008DC
:1000C0009D3E0008A13E0008A53E0008A93E00088C
:1000D000AD3E0008B13E0008B53E0008B93E00083C
:1000E000BD3E0008C13E0008C53E000800000000FB
:1000F0000000000000000000000000000000000000
:100100000000000000000000C93E0008CD3E0008CD
:10011000D13E0008D53E0008D93E0008DD3E00086B
:10012000E13E0008E53E0008E93E0008ED3E00081B
:10013000F13E0008D33C0008D53C0008F53E00081D
:10014000F93E0008FD3E0008013F0008053F000899
:10015000B0B5C278DFF85C3A8A18DA71847804EBBB
:1001600011249C71E7B245785D71B7EB112F0078CF
:10017000187105DA6D1C5D71EDB20DB9401C187176
:10018000D2B201F0FF018A420BDA641C9C71E4B226
:100190003CB95879401C5871C0B210B91879401C4C
:1001A0001871B0BD30B50A44521E0AE00C784B7885
:1001B00003EB0423181885B29BB29D4238BF401C44
:1001C000891C9142F2D307D1097800EB012082B259
:1001D000B2EB012F38BF401C80B230BD80B5142275
:1001E000DFF8D4190020FFF7DDFF01000EBF4FF646
:1001F000FF70000A40EA012080B202BD38B5DFF886
:10020000BC4904F6284008220178407800EB012020
:10021000A0F11405A81D04F6324180B2FFF7C2FF19
:10022000AAB204F63A41FFF7BDFF01000EBF4FF638
:10023000FF70000A40EA012080B232BD70B5DFF8DD
:1002400074490A2104F1180000F0BCFC0020DFF81A
:1002500070190022C3B240F21C656B43401CCD18DC
:10026000C6B2042E6A76F5DD4FF48060E082DFF8D6
:100270004C098280A0F810260220607270BD2DE922
:10028000F043DFF83049DFF83499E58A0A46294619
:1002900040F20C66491C8BB2B3F5FA4FA8BF4FF47D
:1002A000805100235FFA83FE09F1040706FB0EFE6E
:1002B00037F80E800F043F0E47EA0127BFB2B8455A
:1002C000E8D05B1CDFB2022FECDB4FF0000C5FFAD2
:1002D0008CF1714309EB0103998849B10CF1010CD0
:1002E0005FFA8CF3022BF2DB84F809C0002010E0E7
:1002F000290A41EA05219980DA8008B9186003E0EB
:100300000188198040885880FF21197284F809C03B
:100310001846BDE8F08338B5DFF89848E56A01462D
:1003200005F10800FFF714FF20792872E06A61796F
:100330004172E06AA1798172E06AE179C17231BDEE
:100340002DE9F84FDFF86C58DFF870A8EC6A042844
:100350000AF64E480AF6264700F093800328C5F8AF
:100360002480C5F828800AF646460CD1607E00F04D
:100370000F00032804BF208A00286ED000212982A4
:10038000297200F006BC02286AD1E878401CE870A7
:10039000C0B260B9A878401CA870C0B238B96878FB
:1003A000401C6870C0B210B92878401C2870002129
:1003B0002961617E072918BF052908D1A07E401C4C
:1003C000A076C0B27828D9D100206076D6E700297F
:1003D000D4D0208A00283CD0A07E421E0028A276DD
:1003E000CCD1E07E012806D100206076802100F08B
:1003F000DEFB142060E301F00F010428CEBF1022C1
:1004000001228240491E401C0729A276E076B5D819
:10041000DFE811F0460209001B0005030800050390
:1004200008000503AAE7002070700221707840F0F0
:10043000020070703172042070720521B172A62022
:10044000F0722C21298260203AE3042100F0AFFBF6
:10045000FCE201F00F01032990D108202872CAE2C2
:1004600005280AF6424432D1296B88880028D9D061
:1004700000210820E9626C62AC622961287200F0F8
:100480003BFC688A0028CDD000F11C010A042982B7
:10049000120EBA70F9700830296B0A7A3A72112379
:1004A0000204120E7B7242EA00223A830020788313
:1004B0008A88BA82C888F882AA89BA81E889F881CC
:1004C0000A883A8248887882C5F824804DE33878D3
:1004D0004528C1D1B978F87800EB0120298A8142FA
:1004E000A0DB2882B87910F03F0F04BFF87900280C
:1004F000B2D1B5F80CB0BBF1000F04BFE8890028F9
:100500004FF6FF790ED0787A112801BF388A484516
:10051000798A49452CD0388A584502BF798AE889BA
:10052000814247D1FFF75AFE484543D1787A0628E1
:1005300007D1FFF763FE48453CD1DFF884964C466F
:1005400049E0112814D0012804BF387D082831D192
:10055000002139754FF6F771F88A8842ACBF09302F
:10056000083000F01EFBA7F80CB0E889F8810EE314
:10057000288AA0F11C0129825246908898B1F98AF4
:10058000814210D1D08800281CBFB98A81420AD18B
:10059000118881B9508898B1B889884202BFF98919
:1005A000508881420CD002F20C620AF618418A424D
:1005B000E3D32A63E2E6494504BF50884845EBD1BE
:1005C00000210220E96228726C62AC6269822A63AF
:1005D00055E704F21C6441F670014944A142C0F0A1
:1005E000A380607E0028F4D0F88AA188884202BFE8
:1005F000B88AE1888842ECD1B8892188884202BF54
:10060000F88961888842E4D100202872EC62707811
:10061000410700F1498131782A8A09098900697204
:10062000511A14392982627E02F00F02022A04BF95
:1006300000F03F02122A16D089B2002908BF10F03C
:10064000030F10D0397E227A914202BF797E627AFE
:10065000914206D1B97EA27A914202BFF97EE27A36
:10066000914240F02882C0063CD5218A002939D029
:1006700004F10C00FFF76CFD2879397F814202BF3D
:100680007A7F69798A422DD1BA7FA9798A4202BFDD
:10069000FA7FE9798A4225D1207368796073A97954
:1006A000E07EA173EA79E273B0B994F9183094F955
:1006B0001A20A17D9A1AA2EBD10252B25118100051
:1006C000E27DA17548BF40428018A0EB9200E07522
:1006D000C9B200EBD1002076012028720020217ED3
:1006E000A1762082607E00F00F01491E072909D8FB
:1006F000DFE811F00900E0003901C801120222020E
:10070000E101C1013AE6287AC107FBD503206076F2
:100710004021297200202082288A002803D042210B
:100720002972FFF7F8FD64E1707800F03F000228BD
:100730000DD1F88A002105F11803CCB233F814204A
:10074000904238D0491CCAB2042AF6DD697270782A
:100750004107D7D41420707028212982502030708E
:10076000FB7EF87FF876FB77B87EB97FB976B877ED
:10077000797E7A7F7A7679775B1C3A7E6A723C7FE3
:100780003C763A77FB77DBB2002B01BF401CB87791
:10079000C0B2002805D1491C7977C9B209B9521CE9
:1007A0003A77B88AF98AB98200F0FBF9A889B8814A
:1007B000E989F981CCE10020002309F11A0CDAB2B1
:1007C00040F21C614A4309F11904A15C09EB0204DF
:1007D00071B1072906D120B1817E1CF80220914217
:1007E00000D220465B1CD9B20429E8DD6B7201E01F
:1007F0006B72204604005CD0EC620120A07620766B
:1008000004210020E175A075E076F98AA180B88AFC
:10081000E080B98921800121F8896080617628789B
:10082000207369786173A878A0730120E978E17377
:100830002082F97EE172B87EA072797E6172387E84
:1008400020720120FFF767FD327802F0F000512896
:1008500026DB002300E05B1C1109D8B2491FB0EB76
:10086000810F1FDA0AEB000C0CF64E400178C9B17B
:100870000129F0D04078022908BF042804D00028BC
:1008800018BFC318E8D10DE06B729CF8501C9CF89F
:10089000510C00F080F9A8BF40F2A6506082A082FF
:1008A0001020C1E56B72FBE700206076202100F08C
:1008B0007EF963E5287AC1074DD5707800F03F00D6
:1008C000122848D1317801F0F00051282EDB0022A7
:1008D00000E0521C0B09D0B25B1FB0EB830F38DA7B
:1008E0000AEB000303F64E4090F800C0BCF1000F85
:1008F0002FD0BCF1010FECD0BCF1020F04BF90F877
:1009000001C0BCF1040F05D04078002818BF821840
:10091000E0D11EE06A7293F8501C93F8510C00F07D
:100920003AF9A8BF40F2A6506082A0820320607608
:10093000397E2172787E6072B97EA172F87EE07293
:100940000120FFF7E8FC4220287200212182298241
:100950004FE06A72EAE72020287200F0C0F9E96AE5
:1009600000204876F3E67278298AD30718D5C006A6
:1009700016D4208A00289CD1491C88B2FFF7CBFCF2
:10098000297A288A41F0100108B141F0020100F0F3
:100990000EF901202082082100206176E0763EE0F9
:1009A00090060AD5F079B2796B6A40EA022E734458
:1009B00040EA02206B62091A2982288A40B1617ECE
:1009C000CA0605D4297A41F002012972FFF7A3FC77
:1009D000B178F07800EB0120A18A83B2994201D36B
:1009E00082B202B908466082287A10F0030F3FF401
:1009F000C5AC0020688200F072F9297A880604D517
:100A000000216982617614210AE0C8060AD5002116
:100A1000698201202082042100206176E076112184
:100A200071704AE0688A78B1C80702D50021218236
:100A300001E0208A38B9608A6A8A904288BF1046ED
:100A40006882208200E068820020E076A96A688AD5
:100A5000696200281CBF208A002804D02830288220
:100A6000182070702BE0287A810754D5282028821E
:100A70001021717023E0287AC1074CD500206076E0
:100A8000102114E7288A08B1FFF745FC7178287A0D
:100A9000CA073AD5C00705D5072100206176A076A0
:100AA000208201E0062060760120FFF734FC102050
:100AB000287200F014F9102070702821298250202B
:100AC0003070217A3977607A7877A17AB977E07ACD
:100AD000F877217B3976607B7876A17BB976062121
:100AE000E07BF8767972A088B882E188F982A889DB
:100AF000B881E989F9812088388261887982607EAD
:100B0000C10621D50020708022E0C00710D5052144
:100B100000206176208231E4288A08B1FFF7FBFBD0
:100B20007078C10704D5072000216076A176BBE765
:100B3000288A0028BFD121E4287AC107FBD50720E5
:100B400000216076A176F6E70520B070A621F1704D
:100B5000FF203872288A010AB970F8700020F080EE
:100B6000B080FFF74BFBC043B080452038700021B8
:100B70007970F9800022A88A401C0104A882090E1D
:100B8000397178717A81FFF729FBC04378810020A1
:100B90002872BDE8F18F40EA012040F2A751884257
:100BA0007047F882B8893882F9897982704729724A
:100BB00000F095B808AB00206E8C00204880002023
:100BC000BC610020002200F085B930B4002513E09C
:100BD00050F8042BD30744BFA9F101039A18091F49
:100BE000042942F8045BFAD213468C0744BF1580EF
:100BF0009B1CC90748BF1D7050F8041B0029E7D192
:100C000030BC704780B5002100916846FFF737FB84
:100C100010B14FF48A418180994A906401BD7CB53E
:100C200000F045F8FFF70AFB00F06EF99448954D87
:100C3000817C027D437D847D8DF800108DF802203B
:100C4000C17CC07D8DF8050068718DF80330AA70F5
:100C50008DF801106970EB702C718DF804409DF8CF
:100C60000060894889492E704279037943EA02235A
:100C70000B80C279837943EA02234B80427A037A5C
:100C8000834943EA02230B80C27A837A43EA022330
:100C90004B80427B037B7F4943EA02230B80C27B6C
:100CA000807B40EA02204880BDE87340AAE710B587
:100CB000734C43F2EC020823224404F1CC01204699
:100CC00000F070FB082304F5A67204F14C012046E5
:100CD00000F0A5FB2046BDE8104000F04ABD6E487C
:100CE00001784A0603D56D490020088070470A063E
:100CF00044BF20210170704770B56948664E006896
:100D0000858800F10C044EF60310854205D1317838
:100D100088070DD5204600F021FEB5F58A4F07D192
:100D20003078810704D52046BDE8704000F016BE3B
:100D300070BD2DE9F041524E584C5A4D304600F0EE
:100D400027FC002700BBD6F83C80316C4246284681
:100D500000F070FEA4F80080306B05E0016841F0FF
:100D6000004101607F1CC068B16B8F42F6D3002048
:100D7000B06341F2080231688818C368190603D5C8
:100D80008022C26000210160208898B1A8890828CB
:100D900008D10120FFF7D4FA208818B100F09EF99D
:100DA00000F040F800F041F92088002838D0BDE874
:100DB000F04137E03C49087890B300220A700025E2
:100DC0003A4E3B4F40F21C6068433844306002208A
:100DD000FFF7B6FA208818B100F080F900F022F889
:100DE0006D1C052DEED32E4E324F002540F20C60C7
:100DF0006843384430600520FFF7A2FA208818B114
:100E000000F06CF900F00EF86D1C012DEED92A49A6
:100E1000087828B100220A70BDE8F04100F085B8DA
:100E2000BDE8F081F8B52549154C08781D4D01281D
:100E30001CD105F12A0300201870214802785A704D
:100E4000204A16789E705778DF7000230B701E4979
:100E50000E88B6F5007F09DA137053704FF40072F4
:100E60000A800370A26C9380FFF7CCFEE06A0B4906
:100E700085602046BDE8F440098800F014BB0000FE
:100E80003001002068AB00204092002014AB00200D
:100E90007CAB002078AB002010AB002018AB00200A
:100EA00038AB0020608C002080AB002034AB0020E9
:100EB000BC6100204880002081AB002082AB002074
:100EC0002C0100201C0000202000002062F30F22D3
:100ED00062F31F4200B500BF1300964694461039D6
:100EE00028BFA0E80C50FAD85FEA417C28BF0CC0AC
:100EF00048BF40F8042BC90728BF20F8022B48BF81
:100F000000F8012B00BD000038B50024B54DE2B259
:100F10000C2042430421A81800F0E0FD641CE3B259
:100F2000082BF4DBB048047031BD70B5AE4C657869
:100F30006D1C0026F2B20C23AA485A4310440188C3
:100F40004288114307D0827AE9B2891A7829A4BF6E
:100F5000042100F0C3FD761CF2B2082AEADB2670F9
:100F6000657070BD2DE9F04702460B4600260C2740
:100F7000DFF870C29C4DF0B278430CEB000421887E
:100F800000291CBF6088002806D0B2F800E08E451A
:100F900004BF518881423FD0761CF0B20828EADBBA
:100FA00000241946E0B278430CEB00063088002894
:100FB00004BF7088002803D0641CE3B2082BF1DB67
:100FC000E0B295F8018008281BD1002000240023FE
:100FD0005FFA83FE0CF10A0607FB0EFE5FFA80F94A
:100FE00016F80E60A8EB060AD145BCBFA8EB0600B8
:100FF0001C465B1CDEB2082EEADBE0B247430CEB7A
:101000000706106830600622301D00F013FD86F8D8
:101010000A802C70BDE8F08706221946201D00F0DA
:1010200009FD6878A0722E70F4E7F8B56F4C20883F
:101030002A2838BF002141D36D4E6E4D00202080FC
:10104000B28A68882988B2F5807F03D0B2F5007F24
:1010500036D0F1BDF38C8B4204BF328D82423CD13D
:1010600006F1160106F11C00FFF77CFF4FF400713A
:10107000B182062206F1160106F1200000F0DAFC2A
:101080005D4F0622394606F1160000F0D3FC062219
:101090003946B01D00F0CEFC062206F12001304694
:1010A00000F0C8FCB08BF18BF08431852888B083C8
:1010B0004FF4C1606988F183B0812A212180F1BD9C
:1010C000F28C8A4204BF318D814206D106F11601AD
:1010D00006F11C00BDE8F44044E7F1BD2DE9F047FE
:1010E000434E424CF18BDFF810814FF6FF70814286
:1010F00004BF338C834203D15FF0060245A165E053
:101100003E49F38B0A883B48478805883648134098
:101110002A40934205D14988328C0A4039408A429C
:1011200005D037490A8882804988C18003E0F18B65
:101130008180328CC280B0F80690B0F804A02949B2
:101140000022D3B24FF00C0C0CFB03F30B44B3F8AA
:1011500000E0F24504BFB3F802C0E14505D0521CDF
:101160005FFA82FEBEF1080FEBDB02700078082800
:101170002AD1FF220621304600F0B4FC062106F1F8
:10118000200000F0ABFC00F03FF80622414606F1DB
:10119000160000F04FFC4FF480700621A6F826A040
:1011A000A6F82890B583B082F081B174082030820F
:1011B0004FF4C1610420F074F783B18106F1360069
:1011C000104A10602A210AE00622191D304600F05C
:1011D00031FC00F019F80820B08121880E312180FF
:1011E000BDE8F0871CAA002070AB002018AB0020DF
:1011F000608C002014AB002068AB00207CAB00208A
:1012000078AB00202CAB002006224146B01D00F038
:1012100011BC0000FFFFFFFFFFFF0000F8B5044610
:10122000002000900CB90120F2BD04F1440528789B
:1012300020B900216970204600F0A3FCDFF8F41605
:10124000086820F4000008604FF480560A68206A9D
:1012500002430A602068815941F00101815100F088
:101260004DFD074620688159CA070BD500F046FDA1
:10127000C01B40F2F5118842F4D3032028700022ED
:101280006A70F2BD066901F099F8DFF8AC16DFF874
:10129000AC26091826F01C06914238BF46F0080615
:1012A00008D3DFF89C16DFF89C260818904238BF58
:1012B00046F00C06206806614FF4004200F063F827
:1012C00000284DD140F6FF76304601F0CDF8606839
:1012D00000283BD000F012FD074641F2893600F0AD
:1012E0004EF800F00BFDC01BB04222D2009841071F
:1012F000F5D54FF4805200F046F8002830D100F0C8
:10130000FDFC074600F03BF800F0F8FCC01BB042C3
:101310000FD200988106F5D56A461021204600F0CC
:10132000B1F9E8B9009841074CBF4FF400600020C4
:1013300002E000F021F816E2E0600098810759BF52
:101340004FF48041A1600020A06011E0A068E26835
:10135000C0035203000C40EA124200F014F820B11E
:1013600000F00AF801202870F2BD304601F07CF848
:10137000002100F002F8EEE1012120463EE26A463B
:10138000012120467EE100212046B7E110B500F1A1
:1013900044040221217000F07AFC00222270002017
:1013A000607010BD2DE9F04100F0D9F90026687891
:1013B000012808BF022030D00120687002272F705A
:1013C000E1620F461EE001EB061C4FF48010CCF8E2
:1013D000000040F2F45000FB06F89044CCF808807E
:1013E000E06928B9DCF8000040F44000CCF80000C7
:1013F000581E86422EBFCCF80C700CF11000CCF8B1
:101400000C00761C9E42DED3206841F210010122BE
:1014100047502A7000236B700020BDE8F0812DE951
:10142000F04100F1440400256678012E08BF022037
:1014300037D0012666700227277081620E4625E0AC
:1014400001EB051740F2F4584FF0004C08FB05F88B
:10145000C7F800C044F2F45E9044C7F804E0C7F84F
:101460000880D0F818C0BCF1010F05D1D7F804C02E
:101470002CF0004CC7F804C0A3F1010C65452EBF49
:10148000FE6007F1100EC7F80CE06D1C9D42D7D32B
:10149000006841F20C010122465022700023637063
:1014A0000020BDE8F081F0B5024602F144040020BE
:1014B0006378012B01D10220F0BD01236370022566
:1014C000257019B9012020706170F0BDD76A3B68A2
:1014D000002B05D512202070002161700120F0BD85
:1014E00040F2F455A94207D9B1FBF5F605FB1613F6
:1014F00003B1761C012E36D1386840F04050386078
:10150000C1F30C01D06A4160D06A016841F000412A
:101510000160D06AC168D16227E0D36A1F6827F0F2
:1015200040571F6020B9D36A1F6847F080571F607B
:10153000D36A5D60731E98420CD1D76AD7F800C099
:101540004CF0005CC7F800C005FB1313D76AC3F367
:101550000C037B60401CD36A1F6847F000471F6084
:10156000D36ADF68D762B042D7D3106841F2140162
:1015700043585D0706D5042343500020116841F20B
:101580000402885001202070002161700020F0BD0D
:1015900010B500F144014A78012A01D1022010BDA2
:1015A00001224A7002230B70826A1468002C22D434
:1015B0001468E3050CD5836B5B1C8363012B04BFAC
:1015C000836A0363836A4363126800F019F810BDED
:1015D0001268930509D5826A0263002343630122DE
:1015E000836A8263DA68826205E0826B521C8263DE
:1015F000826AD36883620120087000224A7010BD9D
:10160000C2F30D42121FC263026B9368826A0364C5
:10161000D36883620120087000224A70002070475E
:1016200070B541F2140600F09AF8206881594A0614
:1016300008D5204600F02CFF216840208851012267
:101640002A7009E08059C10708D5204600F021FF23
:10165000216801208851287000236B704FF480307E
:10166000216888512268935918040AD5204600F051
:1016700011FF21684FF40040885101222A70002395
:101680006B7070BD2DE9F041044604F144060F462D
:1016900030788228154602D10220BDE8F0818220F0
:1016A0003070BF0120680169228AD20201F01C015A
:1016B00002F47842114307F4F8670F4347F001073B
:1016C000076100F01BFB804601E020680769F8070E
:1016D0000CD500F013FBA0EB0800B0F5803FF4D36D
:1016E00001203070002171700320D6E72068416925
:1016F00089B22960012232700020CEE7F8B500F0EF
:101700002EF80E462878422801D10220F2BD422050
:10171000287092B220680169238A4261DB0201F0DD
:101720001C0103F47843B601194306F4F8662068F7
:101730000E4346F00306066100F0E0FA074601E0BA
:1017400020680669F00706D500F0D8FAC01BB0F58E
:10175000803FF5D307E0012028700020F2BD044649
:1017600004F14405704701202870002169700320AE
:10177000F2BD38B500F037F801D1022032BD00F0DB
:1017800038F8002200922068016841F0080100F05A
:101790001FF8009821680860002200922068016804
:1017A00041F0040100F014F800F018F8206841F24C
:1017B0001801425842F4005242502068435843F006
:1017C000020343500120287000216970002032BDBF
:1017D0000160206802680092012099E00098216869
:1017E0000860204682E0044604F144056878012838
:1017F00070470120687002212970704738B504468F
:1018000029B14FF400604FF48041E060A16023688B
:10181000E0691D68A16800280CBF4FF480620022B7
:1018200049480540E0680D4305432A4342F40072ED
:101830001A6001201D6800F017FE20680560402135
:101840004160456800F04FF821684D6000208860D5
:10185000C8604FF641708A69024042F080028A6196
:1018600001208D6900F000FE206885610021C161C2
:10187000C56900F038F821683448CD6141F218029A
:101880008B58034043F0087343F004038B5001204E
:101890008D5800F0E9FD20682D4900F580508561E4
:1018A0000160056800F01FF8206800F580500560B1
:1018B000A169012905D1C16941F4803141F040019C
:1018C000C161E07DA27D234942EA00220A60227DB7
:1018D000607DE37C120442EA0062A07C42EA0322BB
:1018E00002434A6031BD012000F0BEBD38B5044658
:1018F0000020009041F218052068415941F4801100
:1019000041514259FFF767FF00982168485131BDA6
:10191000114A1368DB084FF47A7181B0B3FBF1F11F
:101920004843009000BF0098411E00280091F9D163
:1019300001B070470400014000D3CEFEC0E1E400D6
:1019400040F1E9FD40787D010F8120FF233FDEF863
:101950000020C1024080024018000020F8B52D4D43
:101960002D4E2A882D4F044640F2DC508242A8BFFB
:1019700002462B480068018871804388B380C18883
:10198000F180798B0180BB8B4380798C254BC180A2
:1019900004F12400196800F04DF804F125000178E5
:1019A000032918BF052909D14178317080787070FA
:1019B000797C387C41EA00212039B18031462A887F
:1019C00004F1240000F00FFE1749001D0870BDE867
:1019D000F14038B5104C154B20786178ADF5007D9D
:1019E00003228DF800008DF801100120187069465F
:1019F00004F1080000F02EF80A480068072204F1FC
:101A0000080100F017F80A4907250D800DF5017D42
:101A100030BD000018AB00201C000020608C0020AE
:101A200038AB00202CAB00202C01002082AB002022
:101A30001AAB002062B38B0708D0521E11F8013B8D
:101A400000F8013B00F024808B07F6D1830740F0BB
:101A5000208000BF103A07D330B4B1E83810103AF4
:101A6000A0E83810F9D230BC530724BFB1E8081001
:101A7000A0E8081044BF51F8043B40F8043BD207EB
:101A800024BF31F8022B20F8022B44BF0B780370DF
:101A90007047121F17D35B0009D151F8043B20F89F
:101AA000023B1B0C121F20F8023BF6D20BE051F850
:101AB000043B00F8013B1B0A20F8023B1B0C121FE1
:101AC00000F8013BF3D238BF121D521E24BF11F89B
:101AD000013B00F8013BF8D870470000002200F0FD
:101AE00005B8000062F30F2262F31F42401810F0A5
:101AF000030308D0C91A1FD3DB0748BF00F8012D24
:101B000028BF20F8022D130030B4144615461039B2
:101B100028BF20E93C00FAD8490728BF20E90C007B
:101B200048BF40F8042D890028BF20F8022D48BF87
:101B300000F8012D30BC7047C91818BF00F8012DFE
:101B4000CB0728BF00F8012D70470000644881B022
:101B5000016841F001010160026802F00102009297
:101B60000099426842F080524260406800F0805024
:101B7000009000985B48016821F0E061016001B0CD
:101B8000704730B585B0044610220021684600F049
:101B90007DFF21685448814270D15448544C0168FB
:101BA000544D41F480410160026802F48042049285
:101BB0000499026842F400420260036803F400439F
:101BC00004930499026842F480320260036803F4CB
:101BD000803304930499426842F0100242604168E5
:101BE00001F0100104910499426842F0040242603D
:101BF000416801F0040104910499426842F008022E
:101C000042600221406800F00800049004980091AE
:101C10000191204603210391694600F041FF822093
:101C200000210090019102912846694600F038FF9A
:101C3000042000F025F8284600F032FF3020002173
:101C40000090019102912046694600F029FF4FF46F
:101C5000605000F015F8284800F022FF0022002113
:101C60003D2001F083F83D2001F09DF80022002185
:101C70003E2001F07BF83E2001F095F805B030BD24
:101C80000221009001910322039269467047006887
:101C90001549884200D0704780B51448026822F484
:101CA00000420260016821F4803101603221026843
:101CB00022F4804202600E4800F0B2FF86210D48F7
:101CC00000F0AEFF4FF460510B4800F0A9FF3D203B
:101CD00001F074F8BDE802403E2001F06FB800004A
:101CE000181002400400014000800240141002401D
:101CF0000010014000080140000C0140014840680C
:101D0000704700BF0C00002038B5FFF7F7FFDFF881
:101D100008470546206840F00100206021688807D8
:101D200006D4FFF7EBFF401B0328F7D3032032BD97
:101D3000206820F0F80040F080002060FFF7DEFF10
:101D4000002161600546606810F00C0F07D0FFF7B6
:101D5000D5FF401B41F289318842F4D3E6E7DFF832
:101D6000BC26DFF8BC06DFF8BC161060086801F07E
:101D700031F808B1012032BDFFF7C0FF05462068E9
:101D800020F0807020602168880105D5FFF7B6FF3C
:101D9000401B0328F7D3C9E700206060FFF7AEFFC0
:101DA0000546206820F4102020602168880305D5AE
:101DB000FFF7A4FF401B6528F7D3B7E7206820F49E
:101DC00080202060FFF79AFF0546206820F08060A1
:101DD00020602168080105D5FFF790FF401B6528AA
:101DE000F7D3A3E7FFF78AFF216821F08051216034
:101DF00005462068810005D5FFF780FF401B652858
:101E0000F7D393E70020E062616A41F0807161627C
:101E1000A06032BD2DE9F843040016D02078DFF829
:101E2000F865C10713D5706800F00C00042807D0CE
:101E3000706800F00C00082841D17068C1033ED5DD
:101E40003068810303D5A068002800F0BD812078A8
:101E5000DFF8D475810719D5706810F00C0F07D022
:101E6000706800F00C00082861D17068C1035ED46E
:101E70003068810703D56069012840F0A581316889
:101E8000A06921F0F80141EAC0013160217808071A
:101E900040F18180E069DFF89415002800F0A68009
:101EA00001220A60FFF72AFF0546706A810763D4A2
:101EB000FFF724FF401B0228F7D9032087E1A06821
:101EC000B0F5803F04D1306840F48030306014E0D9
:101ED00008B930680AE0B0F5A02F306806D140F4A8
:101EE00080203060316841F4803105E020F480309A
:101EF0003060316821F480213160A06858B1FFF76B
:101F0000FDFE054630688103A1D4FFF7F7FE401BB4
:101F10006528F7D3D1E7FFF7F1FE05463068810366
:101F200095D5FFF7EBFE401B6528F7D3C5E7606941
:101F3000A8B101213960FFF7E1FE0546306881074D
:101F400005D4FFF7DBFE401B0228F7D9B5E7306860
:101F5000A16920F0F80040EAC100306096E73860DF
:101F6000FFF7CCFE0546316888078FD5FFF7C6FE20
:101F7000401B0228F7D9A0E7DFF8A0040168C908D0
:101F80004FF47A72B1FBF2F2009200BF0098411E4A
:101F900000280091F9D1207841076ED5F06900251D
:101FA000C10009D4F06940F08050F0610125F0696A
:101FB00000F0805000900098DFF87484D8F800009A
:101FC000C10520D4D8F8000040F48070C8F80000A3
:101FD000FFF794FE8146D8F80000C10513D4FFF73F
:101FE0008DFEA0EB09006528F5D366E70860FFF7D2
:101FF00085FE0546706A8107CDD5FFF77FFE401B41
:102000000228F7D959E72069012808D008B9306AB1
:1020100009E00528306A06D140F004003062306AD9
:1020200040F0010005E0400840003062306A20F0D6
:102030000400306241F28938206960B1FFF75EFE2A
:102040008146306A810713D4FFF758FEA0EB0900E0
:102050004045F6D331E7FFF751FE8146306A8107EC
:1020600006D5FFF74BFEA0EB09004045F6D324E769
:102070001DB1F06920F08050F061E06A002851D075
:102080007168CA0308D5716801F00C01082903D1F1
:10209000F16ACA0300F19880022831D13068C1008A
:1020A00006D5F06A616B00F0F000884240F08C8049
:1020B0000020B866FFF722FE05463068010105D50D
:1020C000FFF71CFE401B6528F7D3F6E6F06A616B4C
:1020D00020F0F0000843F062F06A216B20F4706099
:1020E0000843F0620120B866FFF708FE0546306835
:1020F000010117D4FFF702FE401B6528F7D3DCE689
:10210000F06A20F48030F0620021B966FFF7F6FD36
:1021100005463068010105D5FFF7F0FD401B652835
:10212000F7D3CAE6206A002850D0716801F00C018C
:1021300008293CD002282ED100F04BF80546306823
:10214000810105D5FFF7DAFD401B0228F7D9B4E677
:10215000606AB0F5803F09D1F16A60680143F162BD
:10216000F16AE068090940EA0111F1627268606A87
:10217000A16A22F4741202430A437260012000F043
:1021800029F804463068810120D4FFF7B7FD001B11
:102190000228F7D991E600F01CF804463068810166
:1021A00014D5FFF7ABFD001B0228F7D985E60128FF
:1021B0000AD07068626A00F48031914202BF00F474
:1021C0007010A16A884201D0012000E00020BDE823
:1021D000F28300203866FFF791BD00002DE9F04141
:1021E0000400884651D0DFF84C62306800F00700E8
:1021F000404502D200F074F847D12068864D81072F
:1022000012D5400703D5696841F4E0616960207820
:10221000010703D5686840F4605068606968A06889
:1022200021F0F001014369602178C80725D5606875
:10223000012802D129688A0303E00228296802D113
:102240008A0102D421E08A071FD56968890840EA1B
:1022500081006860FFF752FD07466868616800F01A
:102260000C00B0EB810F08D0FFF748FDC01B41F216
:1022700089318842F1D303202DE0306800F0070057
:10228000804504D200F02CF801D0012023E0207812
:10229000410705D56A68E06822F4E06202436A609B
:1022A0002178080706D56968206921F4605141EA60
:1022B000C001696000F044F86A68084979441C313B
:1022C000C2F30312554B895CC8401860554800683A
:1022D00000F080FD0020BDE8F08100BF101B000071
:1022E0003168C90848EAC1013160306800F0070070
:1022F0004045704730B585B00C461022002101A83A
:1023000000F0C4FB022103220291049200214FF449
:102310008072494D0391019201A9686940F004005F
:102320006861686900F0040000900098434800F07C
:10233000B7FB286820F0706004432C6005B030BD06
:102340003D493F480A6802F00C03042B00D1704756
:102350002DE9F041082B2ED13BA4C2F38343D203D5
:10236000E45C24D5D1F828203BA302F00F029A5C4C
:102370008B6ADD0314D58B6A886ADFF8C480C0F3EA
:102380000320801CA4FB0067C3F30313A8FB060112
:102390005B1C08FB0711A2FB032300F057FD02E0C2
:1023A0006043B0FBF2F00D2C06D1400804E020465B
:1023B0002449484300E01A48BDE8F0811748006806
:1023C0007047000015481C4A0068136801497944A9
:1023D000891C01E0441A0000C3F3C222895CC84092
:1023E000704710B50F220260134A136803F003030D
:1023F0004360146804F0F0048460136803F4E0633D
:10240000C3601268D20802F4E062026109480268FF
:1024100002F007020A6010BD001002401800002000
:1024200000127A0014000020000042428004424260
:1024300000700040002002400410024000080140EB
:1024400040787D0100093D000000040506070809E9
:1024500000000000000D000001020304050607084B
:10246000090A0B0C0D0E0F1038B50446FFF746FC99
:1024700014F1010F054602D0044908780419FFF74A
:102480003DFC401BA042FAD331BD00BF0C00002030
:10249000704770477047000080B500F096FD34200B
:1024A000DFF860150860BDE8014000F09EBD18B57A
:1024B00085B004460020009000F087FDDFF8480555
:1024C00084420DD200200190039401200290DFF895
:1024D0003C05041BE40A0494694601A800F0EEFDE3
:1024E00000F083FD401E8041C043C00F06B010BD08
:1024F000F8B504460D461646002700F066FD01E0DB
:10250000241D7F1CB74215D2DFF80405844211D286
:1025100055F8272000232146022000F01BFD00284B
:1025200006D1206855F827108842E9D00220F2BD74
:102530000320F2BD00F059FD0020F2BD38B584B093
:10254000002210216846FEF7C1FCDFF8C84400F005
:1025500041FA00283DD1DFF8C004FEF717FFDFF88D
:10256000BC0400F057FE4FF4804000901120019011
:1025700000200290012003906D462946DFF8A00458
:1025800000F04EFBC020009001200190002002903E
:10259000022003902946DFF88C0400F041FB4FF441
:1025A0008070009002200190032003902946DFF8FC
:1025B000780400F035FB00F087FFFFF7A5FB01F082
:1025C00019F8DFF868040460DFF8640400688047E5
:1025D00007E02046FFF76BFFDFF858040021416059
:1025E000017005B030BDF8B50346144601264878A1
:1025F000097850EA0120DFF84054288135D10020C5
:1026000028806860E86031465878052802D1204665
:1026100004281CD0A21E92B226460FE09F5C07F051
:102620000F0701FB0700E86001EB81004100985CA7
:10263000002801D132460A3A521E92B2E868A6F149
:1026400008079742EADBDFF8F413884201D3012040
:10265000F2BDDFF8EC134861032000F06EF8DFF8FC
:10266000B403FFF724FF064664E029880A46801A6F
:1026700001282CD1084680082882A2EB80026A82B9
:10268000491C29805202AA82002005F1160105E0AA
:10269000AA8A12181E1D365C8E54401CB0F5007FAD
:1026A000F6DB0026688A032803D02046B0F5017FB8
:1026B00038DA288AD74901EBC02169604FF40072EB
:1026C00005F116016868FFF713FF06462AE00028A7
:1026D00030D189082982A2EB81026A825202AA8241
:1026E000002005F1160105E0AA8A12181E1D365CAD
:1026F0008E54401CB0F5007FF6DB0026688A032864
:1027000003D02046B0F5017F0CDA288AC14901EBDD
:10271000C02169604FF4007205F116016868FFF787
:10272000E7FE0646B4F5017F04DA00F03AF901202D
:10273000C04908703046C0B2F2BD78B585B00C46CD
:10274000010002D10126BF4D06E0012802D1012679
:10275000BD4D01E00226BB4D0020009000F035FC8D
:1027600000200190039501200290304604906946B4
:1027700001A800F0A3FC00F038FC760232462146A6
:102780002846FFF7B5FE06464FF4806229462046EC
:10279000FFF750F93046C0B206B070BD000000002F
:1027A000F8B51821A94800F039FFA6494A88134610
:1027B000834202D1002A40F0ED80A14C002020800D
:1027C000C0202071A82060710020A0710A20E07153
:1027D000FF2626726672A6720020E072C020207367
:1027E000A82060730020A0736420E07300202061A3
:1027F00060614FF00110A0610020A083A077024625
:10280000102104F11F00FFF76DF900BF90A505220C
:10281000294604F11F00FFF70DF90022102104F1F1
:102820002F00FFF75FF90522294604F12F00FFF77B
:1028300001F904F13F000021017041708170C17005
:1028400004F144005021018004F1E207A2213985FE
:10285000512181800022202104F14A00FFF742F932
:102860005FF00E027CA104F14A00FFF7E3F80022BA
:10287000202104F16A00FFF735F90F227AA104F153
:102880006A00FFF7D7F804F18A0001210170817016
:102890004170C1700022202104F18E00FFF722F95F
:1028A0000022282104F1AE00FFF71CF900220C21C0
:1028B00004F1D600FFF716F942F20F7038807880E5
:1028C000B880F88038817881002038737E733E208C
:1028D000B8737520F8734C2038748E207874C0203B
:1028E000B8742B20F874F4203875122078757B208A
:1028F000F88204F1FA06002210213046FFF7F2F8C0
:102900005FF010025CA13046FFF794F8A2203885F2
:1029100004F58676002210213046FEF7D7FA05220C
:1029200029463046FFF786F804F58E7600221021FE
:102930003046FEF7CBFA052229463046FFF77AF8F3
:10294000002240F2C56104F59670FEF7BFFA002040
:10295000A4F8F20704F2F47502464FF4FA6128462F
:10296000FEF7B4FA1821201D00F058FE60804FF4E5
:10297000FA61284600F052FEA4F8F20740F2E27134
:1029800004F11E0000F04AFEA08321460320BDE8AA
:10299000F440D2E64FF480622948BDE8F840FFF7E2
:1029A00059B870B5274C61691A4800F037FE0546E2
:1029B000234E4FF4806221463046FFF74BF83580B6
:1029C0001821301D00F02AFE708031460320BDE83A
:1029D0007040B2E670B51B4D69690E4800F01EFEEE
:1029E0000446174E4FF4806229463046FFF732F80E
:1029F0003088844203D1002C01D0002070BD01201A
:102A000070BD00000C200240000002080100020816
:102A1000FDFF01080050000830010020C4AA00207A
:102A200000140140001001400008014008ED00E0E2
:102A30000450000860AB002004A2002001B0010097
:102A400040920020004000080048000804400008B0
:102A500061646D696E000000506F77657220737756
:102A6000696368204F4E0000506F7765722073775E
:102A7000696368204F4646004E616D6520534E4D98
:102A800050205365727665720000000010B5044650
:102A900010460A4601462046FFF724F8204610BD9E
:102AA0002DE9F8474FF0000E0024964A964BDFF8C8
:102AB0005C824FF00F0982460CE0D7683840D06046
:102AC00006E095604D68AD02F7D5D0680743D76042
:102AD0000EF1010E0F6837FA0EF000F09F80012012
:102AE00000FA0EF63740B742F2D1486838B30128F1
:102AF0001AD002281DD003282ED0112816D0122853
:102B00001AD0834DA8421CBF824DA84217D0824DD7
:102B1000A8421CBF814DA84211D0814DA8421CBFC4
:102B2000804DA8420BD018E0CC6816E0CC68241D7C
:102B300013E0CC68083410E0CC680C340DE08868F1
:102B400008B9042409E0012819BF0824CAF8146050
:102B50000824CAF8106000E00024B7F5807F03D293
:102B600050464FEA8E0C05E0AEF108050AF104006C
:102B70004FEA850C056809FA0CF6B54304FA0CF621
:102B8000354305604868C000A2D5D8F8000040F081
:102B90000100C8F80000D8F8005005F001050095C4
:102BA0004FEA8E0500984FEA9E0053F8206005F02A
:102BB0000C0C09FA0CF526EA05055B4EB24508BF78
:102BC00000260ED0594EB24508BF012609D0584EF6
:102BD000B24508BF022604D0564EB2450CBF0326AC
:102BE000042606FA0CF6354343F82050F8434D68A6
:102BF000ED0315684CBF3D43054015604D68AD03BE
:102C000055684CBF3D43054055604D689668ED02E0
:102C10004CBF47EA060500EA060552E7BDE8F18722
:102C20002DE9F04702460026364BDFF8DCA00F24E2
:102C300032E0A6F10805101D4FEA850C1CE0C743E1
:102C400005FA08F5A94511D15AF82C5025EA0E05C8
:102C50004AF82C501D683D401D605D683D405D6038
:102C60009D683D409D60DD683D40DD60B0F5807F42
:102C7000DFD210464FEA860C056804FA0CF84FF0D4
:102C8000040925EA080509FA0CFC4CEA050505606B
:102C9000D0680740D760761C31FA06F023D00120B7
:102CA000B0400840F7D04FEA960CB7005AF82C50C5
:102CB00007F00C0804FA08FE1B4F0EEA0509BA4299
:102CC00008BF0025BBD0194FBA4208BF0125B6D0B6
:102CD000174FBA4208BF0225B1D0164FBA420CBFF7
:102CE00003250425ABE7BDE8F08702B909040161BB
:102CF0007047C26801EA0203914341EA034101615E
:102D00007047000000040140080001401810024014
:102D1000000011100000121000002110000022100D
:102D2000000031100000321000080140000C01408A
:102D300000100140001401400901020002D42048A3
:102D4000815470471F4B02F00F021A4402F8041C12
:102D500070471D4B19684FF6FF020002114000F446
:102D6000E0600843194908431860704770B5164B76
:102D70001C68C4F302230124C3F10705052D2EBFEF
:102D80000F2504FA05F56D1E1E1D072E34BF002306
:102D9000DB1E2940994004FA03F3BDE870405B1E36
:102DA0001A401143C8E7010007D4012200F01F01B7
:102DB000074B8A40400943F82020704770470000C5
:102DC00000E400E018ED00E00CED00E00000FA0582
:102DD00000E100E018B5014687B000221920FFF796
:102DE000C5FF1920FFF7DFFF1448154C016841F4B7
:102DF0000061016001A9006800F400600090009883
:102E000002A8FFF7EEFAFFF7DDFA0E49216040F263
:102E1000E73240000C49E260B0FBF1F0401E606018
:102E200000222261A260204600F010FC18B9204662
:102E300000F019FC00E0012008B010BD181002409D
:102E40007CAA0020002C014040420F00D3BBD9B126
:102E5000B2F5803F5BD2022A1ED98C46B1FBF2F15B
:102E600002FB11C31B0443EA1043B3FBF2FC02FB59
:102E70001C3380B240EA0343B3FBF2F002FB103292
:102E800040EA0C4000237047022A05D98446B0FB73
:102E9000F2F002FB10C270474AB105D100F0010206
:102EA00049085FEA3000704700220023704700F0B5
:102EB0000FBD0B000200002100207047F7D3002255
:102EC00000237047904271EB030CF2D370B5B1FA56
:102ED00081F4B3FA83F52C1BA340C4F1200532FA28
:102EE00005F63343A2405FF00046E64002E05B088F
:102EF0005FEA3202841A71EB030524BF204629469B
:102F00007641F4D302000B003000002170BD70B593
:102F1000B1FA81F4B2FA82F5C4F120046419B4F173
:102F20002006DAD3B2405FF00044F440002502E00E
:102F300052085FEA3303C61A71EB020E24BF304613
:102F4000714664416D41F3D302000B00200029005B
:102F500070BD00002DE9F84F524E0746307E012823
:102F60008B461446994608BF02202CD001203076AB
:102F70004CF2503A504600F04BF8010021D1012F9D
:102F800008BF012103D0022F0CBF0221042100251C
:102F9000454F884600E06D1C454512DA20464946FB
:102FA0002A0100F097FC81B20BEB450000F025F8F8
:102FB000504600F02DF83968490849000200396090
:102FC000E9D000213176BDE8F28F3949CA68002086
:102FD000130600D4704710B5364A374C0A600C60AF
:102FE000C9680A0648BF012010BD2F48016841F09A
:102FF0008001FFE701600020704710B5294B0022D7
:10300000DA61294A146844F001041460018010BD9B
:1030100070B50446FEF772FE0646244D2868C107C7
:103020000AD514F1010FF9D024B1FEF767FE801B19
:103030008442F3D2032070BD2868810644BF20205B
:1030400028602968C80605D42969C80702D42968F8
:10305000480703D500F004F8012070BD002070BDC2
:1030600010B5124A0F4913680020DC0604D5C86960
:1030700040F00200C861102013685C0705D5CB69D9
:1030800043F00103CB6140F004001369DC0707D56E
:10309000CB6943F00403CB61116949084900116110
:1030A000106010BD40AB0020102002400C200240F8
:1030B0000420024023016745AB89EFCD2DE9F0479D
:1030C000DFF8C4600746307E01250128884608BF26
:1030D00002203BD035764CF250393868DFF8AC40EE
:1030E000022848460ED1FFF793FF60BB012000F095
:1030F0002FF84846FFF78CFF0546206820F00400B3
:10310000206020E0FFF784FFE8B94FF0FF30C8F8F7
:103110000000D7F808A001E00AF5006AF868B9686D
:1031200001EBC0218A450ED2504600F01EF84846F9
:10313000FFF76EFF0546206820F00200290020609E
:10314000EAD0C8F800A0002030762846BDE8F08715
:103150000D490020C8610D48026842F00402026077
:10316000016841F0400101607047074A0021D161C8
:1031700006490B6843F002030B604860086840F0A2
:10318000400008607047000040AB00201020024063
:1031900030B508B9012030BD0268DFF8FC40A2421A
:1031A00000F138030BD2DFF8F4108A181425B2FBB3
:1031B000F5F29200DFF8E8409A605C600AE0DFF820
:1031C000E4108A181424B2FBF4F29200DFF8D8104D
:1031D0009A605960022280F8212001680C684168D9
:1031E000826805686FF30D140C43C16814430269CB
:1031F0000C434169144382690C43C16914430C4375
:103200002C6000221A60012380F8213080F82020F1
:10321000002030BD30B508B9012030BD01680A6812
:10322000520852000A6000210368196000230468F4
:1032300061600268DFF86040916000F12802016877
:10324000CB600368A3420BD2DFF85010CB181425D3
:10325000B3FBF5F39B00DFF84840936154610AE04B
:10326000DFF84010CB181424B3FBF4F39B00DFF815
:103270003810936151619169546901238B406360F7
:103280000021116051609160D160116180F82110BE
:1032900080F82010002030BD08040240F8FFFDBF78
:1032A00000000240F8FBFDBF00040240F0B585B00D
:1032B000FFF7F2F800F08EF900F0B0F8FFF770FABF
:1032C000102200F0FDF8B04CB04F6068B04D40F0F7
:1032D000100060600122606800F0100004904FF45C
:1032E00080460498616841F004016160606800F004
:1032F000040004900498616841F00801616060680E
:1033000000F0080004900498616841F020016160B9
:103310004FF48041606800F0200004900498384623
:10332000FFF7E3FC0022C0212846FFF7DEFC112155
:1033300001910022012103910292009669463846CC
:10334000FFF7AEFBC0210091012201920021029102
:103350000222039269462846FFF7A2FB4FF48070D1
:103360000221009001910322039269468948FFF7E8
:1033700097FB206840F0010020600022216801F0E6
:103380000101009140230098834884490160426014
:103390008021C16083604FF400510261426182610B
:1033A000C161FFF7F5FE08B100F012F97C487D49D4
:1033B000016001224FF400614260C16000227A493D
:1033C0008660028209680A8882740988774A090A35
:1033D000C1741168764A0B8803750988090A41751A
:1033E00011680B6883750122096882610904090E5E
:1033F000C1754FF400020021C1610262FDF70EFFAA
:1034000008B100F0E5F8FDF70AFC6A4CFDF791FC05
:1034100020780128FAD1FFF791F8F7E700B59BB0C3
:1034200000F079F800F04BF82022002113A8FFF7F4
:103430002DFB0521059107224FF480310791089259
:1034400006910E9102224FF4C0110D920F9110922D
:1034500001234FF40061402209930A9311911292C3
:1034600005A8FEF7D7FC08B100F0B2F802210191DF
:10347000002202920F204FF4A061009003914FF4BC
:103480008062049202216846FEF7A8FE08B100F0AF
:103490009FF801214FF480721391149213A800F049
:1034A00029FA08B100F094F800224FF000610020E2
:1034B000FEF720FF4049012008601BB000BD142228
:1034C00000216846FFF7E2BA00B593B000F023F898
:1034D000FFF7F5FF01210A9102200590102200213B
:1034E0000B920D91109105A8FEF794FC08B172B6ED
:1034F000FEE70F20009000210191029103910491B9
:103500006846FEF76BFE08B172B6FEE72A49012055
:10351000086013B000BD3822002105A8FFF7B6BA35
:1035200000682649884200D0704710B500F0A2FA22
:10353000234A13684FF4FA705B1CB3FBF0F04FF4AE
:10354000FA71136001FB103070B91E4942F2107419
:103550000120A342087003D31B49087000231360A5
:1035600040210B48FFF7C5FB1848016843F6982235
:10357000914202D2491C016010BD0021016001206E
:103580000C4A107010BD00001410024000140140DD
:103590000010014000080140C4AA002008000240B9
:1035A00030010020008002400000002004000020C4
:1035B0000800002060AB002070004242002C014057
:1035C0003CAB002080AB002081AB002064AB00202E
:1035D00072B6FEE780B50F48016841F01001016046
:1035E0000320FFF7B6FB0020FFF7F4FBFEF7AEFA6F
:1035F000002002BD80B508484FF0FF310160002275
:10360000426001600260C161C26100F03BFA0020CB
:1036100002BD0000002002400C10024070B50246BE
:1036200000200023084C7C441E3409E012F8016B92
:1036300085B286EA252634F8165085EA00205B1C00
:103640008B42F3DB80B270BD4C04000038B504003F
:1036500001D1012032BD00F04AF818B900F043F85A
:1036600000F034F92CE090F83D10012901D0012040
:103670007047022180F83D100168CA6842F00102DB
:10368000CA600168DFF87020914218BFB1F1804F25
:103690000AD0DFF8682091421FBFDFF864309942FA
:1036A000DFF86020914205D1896801F00701062901
:1036B00004D001680A6842F001020A6000207047E5
:1036C00002206870211D206800F0C2F80120A87255
:1036D000A870E87028716871A871E8712872687222
:1036E0006870002032BD002129702046704704F127
:1036F0003C05687870470000002C01400004004041
:1037000000080040000C004010B504462068016924
:103710008A0715D5C1688A0712D56FF002010161C9
:1037200001222277806910F0030F204602D000F0BA
:10373000AAF903E000F0A8F900F087F8002020774C
:10374000206801694A0715D5C1684A0712D56FF08C
:103750000401016102222277806910F4407F204633
:1037600002D000F090F903E000F08EF900F06DF85F
:1037700000202077206801690A0715D5C1680A076B
:1037800012D56FF00801016104222277C06910F0A0
:10379000030F204602D000F076F903E000F074F940
:1037A00000F053F80020207720680169CA0615D57B
:1037B000C168CA0612D56FF0100101610822227794
:1037C000C06910F4407F204602D000F05CF903E0AD
:1037D00000F05AF900F039F80020207720680169DC
:1037E000CA0708D5C168CA0705D56FF00101016194
:1037F0002046FFF795FE206801690A0608D5C168D2
:103800000A0605D56FF080010161204600F03DF900
:10381000206801694A0608D5C1684A0605D56FF0D7
:1038200040010161204600F031F9206801698A06F3
:103830000AD5C1688A0607D56FF0200101612046CC
:10384000BDE8104000F023B910BD204600F020B9BB
:10385000F0B5194F0368194C194D1A4EB84218BFEC
:10386000B0F1804F04D0B0421CBFA842A0420CD19E
:103870004A6823F070031343B84218BFB0F1804F79
:1038800005D0B04218BFA84201D0A04203D1CA68F7
:1038900023F4407313434A6923F080031343036006
:1038A000B8428B68C3620A68826202D10969064A1B
:1038B000116001234361F0BD002C0140000C004069
:1038C0000008004000040040302C01407047000018
:1038D00070470000D2B2203A22BF21FA02F0002144
:1038E00070472032D141D04048409140D1404840BB
:1038F000704700002DE9FC410546DFF86861287833
:10390000C10752D5F0690024C10009D4F06940F024
:103910008050F0610124F06900F080500090009820
:10392000DFF844713868C10511D4386840F48070FC
:103930003860FEF7E3F980463868C10507D4FEF722
:10394000DDF9A0EB08006528F6D3032087E0306A94
:1039500010F440701EBF696801F44071884219D0AC
:10396000DFF80811306A01220A60002320F4407059
:103970000B603062C0070DD5FEF7C0F90746306A0C
:10398000810707D4FEF7BAF9C01B41F2893188429A
:10399000F5D3DAE7326A686822F440720243326291
:1039A0001CB1F06920F08050F0612878810705D5BE
:1039B0007268A86822F4404202437260297848077E
:1039C00005D5F16AE86821F400310143F1622978F4
:1039D000080705D5F16A286921F480210143F162C5
:1039E000F06A810302D4F06A41032ED53068C10029
:1039F00023D4A86931684A0104D5F16A01F0F001C5
:103A0000814220D1F16ADFF8682021F0F0010843FB
:103A1000F062F16A686921F470410143F1620121A9
:103A20001160FEF76BF90446306881000DD4FEF793
:103A300065F9001B6528F7D387E7F06A696900F428
:103A40007040884201D0012009E02878C10605D5E0
:103A50007268E86922F48002024372600020BDE8C7
:103A6000F681000000100240007000404004424215
:103A70007000424202494A68087882184A607047DA
:103A80000C000020704770477047704770477047C0
:103A90007047000000002110422063308440A55090
:103AA000C660E770088129914AA16BB18CC1ADD184
:103AB000CEE1EFF13112100273325222B55294422C
:103AC000F772D662399318837BB35AA3BDD39CC3D4
:103AD000FFF3DEE36224433420040114E664C77478
:103AE000A44485546AA54BB528850995EEE5CFF524
:103AF000ACC58DD55336722611163006D776F666CC
:103B00009556B4465BB77AA719973887DFF7FEE773
:103B10009DD7BCC7C448E5588668A7784008611897
:103B200002282338CCC9EDD98EE9AFF948896999C3
:103B30000AA92BB9F55AD44AB77A966A711A500A6B
:103B4000333A122AFDDBDCCBBFFB9EEB799B588B13
:103B50003BBB1AABA66C877CE44CC55C222C033CB7
:103B6000600C411CAEED8FFDECCDCDDD2AAD0BBD63
:103B7000688D499D977EB66ED55EF44E133E322E0B
:103B8000511E700E9FFFBEEFDDDFFCCF1BBF3AAFB3
:103B9000599F788F8891A981CAB1EBA10CD12DC111
:103BA0004EF16FE18010A100C230E32004502540A7
:103BB00046706760B9839893FBA3DAB33DC31CD307
:103BC0007FE35EF3B1029012F322D23235421452F7
:103BD00077625672EAB5CBA5A89589856EF54FE553
:103BE0002CD50DC5E234C324A01481046674476447
:103BF00024540544DBA7FAB79987B8975FE77EF7A7
:103C00001DC73CD7D326F2369106B0165766767696
:103C1000154634564CD96DC90EF92FE9C899E98972
:103C20008AB9ABA94458654806782768C018E108E6
:103C30008238A3287DCB5CDB3FEB1EFBF98BD89B46
:103C4000BBAB9ABB754A545A376A167AF10AD01A36
:103C5000B32A923A2EFD0FED6CDD4DCDAABD8BAD92
:103C6000E89DC98D267C076C645C454CA23C832C86
:103C7000E01CC10C1FEF3EFF5DCF7CDF9BAFBABFE6
:103C8000D98FF89F176E367E554E745E932EB23ED6
:103C9000D10EF01EBFF34F8F104911480A6802F48D
:103CA000E06202430A60BFF34F8F00BFFDE7FEE70B
:103CB000FFF7F0FF00BFFEE7FFF7ECFF00BFFFF7E5
:103CC000E9FF00BF70477047704770470548FFF72E
:103CD0001BBD00E000BF0448FDF7A2BC0CED00E0F6
:103CE0000400FA057CAA00203001002030B50168EC
:103CF00084684218416802EB5103C90703D54C445C
:103D000001E0491C05D19A420AD012F9011B12F8B0
:103D1000015B002904F8015BF3D4491EF7D5F2E7F3
:103D20000C3030BD10B500F013F802000023002461
:103D3000E4431068A04203D011000220ABBE136020
:103D40005068A04203D0111D0220ABBE536010BDCD
:103D5000004870472401002010B507497944183104
:103D6000064C7C44163404E00A68081D1144884758
:103D70000146A142F8D110BD080000002400000057
:103D80004BCEFFFF54AA00003001002000000000CD
:103D90005DFFFFFF740100004A00000000000020EA
:103DA00000F00DF8002801D0FFF7D6FFAFF3008038
:103DB0000020AFF30080FFF779FA00F002F801204D
:103DC000704700F001B800000746384600F002F8DE
:103DD000FBE7000080B5FFF7A5FF024A110018209D
:103DE000ABBEFBE7260002007047000000000000A9
:103DF000000000000102030406070809014880478B
:103E000001480047E93D00080D3E0008AFF300807F
:103E1000AFF30080FFF7C4FF0000000001020304BD
:103E2000FFF7FEBFFFF7FEBFFFF7FEBFFFF7FEBFC6
:103E3000FFF7FEBFFFF7FEBFFFF7FEBFFFF7FEBFB6
:103E4000FFF7FEBFFFF7FEBFFFF7FEBFFFF7FEBFA6
:103E5000FFF7FEBFFFF7FEBFFFF7FEBFFFF7FEBF96
:103E6000FFF7FEBFFFF7FEBFFFF7FEBFFFF7FEBF86
:103E7000FFF7FEBFFFF7FEBFFFF7FEBFFFF7FEBF76
:103E8000FFF7FEBFFFF7FEBFFFF7FEBFFFF7FEBF66
:103E9000FFF7FEBFFFF7FEBFFFF7FEBFFFF7FEBF56
:103EA000FFF7FEBFFFF7FEBFFFF7FEBFFFF7FEBF46
:103EB000FFF7FEBFFFF7FEBFFFF7FEBFFFF7FEBF36
:103EC000FFF7FEBFFFF7FEBFFFF7FEBFFFF7FEBF26
:103ED000FFF7FEBFFFF7FEBFFFF7FEBFFFF7FEBF16
:103EE000FFF7FEBFFFF7FEBFFFF7FEBFFFF7FEBF06
:103EF000FFF7FEBFFFF7FEBFFFF7FEBFFFF7FEBFF6
:103F0000FFF7FEBFFFF7FEBF0CE8F7FF1FEAF7FF62
:103F10001FECF7FF1F01F9000010FC000124F4FA68
:0D3F200000000281008100FC00F8FF00019C
:1040000000000000000000000000000000000000B0
:0C401000000000000000000000000000A4
:1048020000000000000000000000000000000000A6
:104812000000000000000000000000000000000096
:0400000508003E0DA4
:00000001FF
