:020000040000FA
:020000040800F2
:10400000F04A00204DB201081D9001081F900108E0
:10401000219001082390010825900108000000006C
:10402000000000000000000000000000473401080C
:104030002790010800000000013401085D300108EC
:1040400061B4010865B4010869B401082990010848
:104050006DB4010871B4010875B4010879B40108A0
:104060007DB4010881B4010885B4010889B4010850
:104070008DB4010891B4010895B4010899B4010800
:104080009DB40108A1B40108A5B40108A9B40108B0
:10409000ADB40108B1B40108B5B40108B9B4010860
:1040A000BDB4010833900108C1B40108C5B40108CA
:1040B000C9B40108CDB40108D1B40108D5B40108D0
:1040C000D9B40108DDB40108E1B40108E5B4010880
:1040D000E9B40108EDB40108F1B40108F5B4010830
:1040E000F9B40108FDB4010801B5010800000000A1
:1040F00000000000000000000000000000000000C0
:10410000000000000000000005B5010809B5010825
:104110000DB5010811B5010815B5010819B501085B
:104120001DB5010821B5010825B5010829B501080B
:104130002DB501083D9001084790010831B50108EF
:1041400035B5010839B501083DB5010841B501088B
:10415000000000000000000000000000000000005F
:10416000000000000000000000000000000000004F
:10417000000000000000000000000000000000003F
:10418000000000000000000000000000000000002F
:105000002DE9F34F83B00700DFF8308B7868C8F8DC
:10501000000078891428C0F2DA82DFF8B497D9F852
:105020000010D9F8140001F08DFD002805D199F881
:10503000140010F0F000E02800D1C8E2D8F8000019
:10504000808901F0A7FD80B2000BC0B280008DF80E
:1050500009009DF80900142805DB38899DF809101E
:1050600089B2884200D2B2E2DFF868679DF8090091
:1050700014383080DFF860470020206078899DF880
:10508000091089B288420BD33088DFF850170880A6
:105090009DF80910494209B2380002F09FF84DE02E
:1050A0003868002808D1DFF8743CB222DFF83017E6
:1050B000DFF86C0C02F00EFC7FF01301380002F0F8
:1050C0008DF8DFF8180779890180318806888E1BF2
:1050D000B0F9001009B2494209B2380002F07EF876
:1050E00038684089310089B28842C0F070823868DF
:1050F00040682060310009B2494209B2386802F0C4
:105100006DF83889801B38817889002808D0DFF84D
:105110000C3CCF22DFF8CC16DFF8040C02F0DAFBEF
:10512000388939680989884208D0DFF8F03BD022F5
:10513000DFF8B416DFF8E80B02F0CCFBD8F800007B
:10514000008801F027FDD8F800100880D8F800008A
:10515000408801F01FFDD8F800104880D8F8000002
:10516000406801F01FFDD8F800104860DFF8181CF7
:105170000860D8F80000806801F014FDD8F800102D
:105180008860DFF808ACCAF80000D8F80000C089D1
:1051900001F000FDD8F80010C881D8F8000080891F
:1051A00001F0F8FC10F03F00DFF8E41B0870DFF8B6
:1051B000E00B007810F0030F01D0012000E0002088
:1051C000DFF8D0BB39894018ABF800000026DFF8C3
:1051D000C80B0468002C60D0207D002808D1DFF8BF
:1051E0003C3BE222DFF8B41BDFF8340B02F072FB29
:1051F000207D0A2808D1DFF8243BE322DFF8A01B3A
:10520000DFF81C0B02F066FB207D012808D1DFF8D7
:105210000C3BE422DFF88C1BDFF8040B02F05AFB96
:10522000208BD8F800100988884233D1E08AD8F85A
:105230000010498888422DD16068D9F81010884242
:1052400028D12068D9F81410884223D1E068A04200
:1052500008D1DFF8C83AEC22DFF8DC1BDFF8C00A1F
:1052600002F038FB002E08D0E068F060DFF8280B71
:105270000068E060DFF8200B0460E068A04208D11D
:10528000DFF8983AF422DFF8B41BDFF8940A02F052
:1052900021FB02E02600E4689CE7002C5CD1DFF8EB
:1052A000A00B00680400002C2AD0207D0A2808D01A
:1052B000DFF8683AFE22DFF88C1BDFF8640A02F0A0
:1052C00009FB208BD8F800100988884216D1E08AA3
:1052D000D8F800104988884210D16068D9F81010B9
:1052E00088420BD12068D9F81410884206D12000DA
:1052F00000F029FA380001F085FF6BE1E468D2E79D
:1053000000200600DFF8401B08680500002D13D0C0
:10531000E88AD8F80020528890420AD12868D9F843
:105320001420904208D0002D02D02868002800D117
:1053300002E02E00ED68E9E7002D0DD0002E04D02C
:10534000E868F0600868E8600D60280000F066F921
:10535000380001F057FF3DE1002C00F01781DFF825
:10536000EC9A0020C9F800003889A9F80800C9F8AB
:105370000470D8F80000C9F80C00DFF8D48A0020C7
:10538000C8F800000020DFF8CC1A08700020DFF811
:10539000C81A0880DFF8F8090078000703D5787B81
:1053A00050F001007873606F002813D0200003F0E4
:1053B000ADF810F10D0F06D0606F00280AD0BBF8D1
:1053C0000000002806D0608D002802D1200004F0E3
:1053D00041F9C8E0DFF8840A0460200000F006FA12
:1053E0008DF808009DF9080010F10D0F00F0BB804A
:1053F000DFF860AA9AF80000000713D5D4F88C00F3
:10540000002805D07FF00D012069D4F88C2090474A
:105410002100DFF8840903F086FA2100012004F05E
:1054200071FDA0E000208DF80800DFF82CBABBF871
:10543000000000281BD0BBF80000ADF80000E06FB2
:10544000002808D0BDF8002021002069E36F9847AC
:105450008DF8080002E000208DF808009DF9080092
:1054600010F10D0F00F07F800020ABF8000020004D
:1054700000F0B3F8002876D1D8F8000000283BD01F
:10548000606F002809D0DFF894384FF4D272DFF84B
:10549000D019DFF88C0802F01DFAA07EC00607D5EF
:1054A000D8F8000001F0AEFE200002F023FC5AE024
:1054B000D4F8800000280AD00023D8F8002021006A
:1054C0002069D4F880C0E0478DF8080008E0002388
:1054D000D8F800202100002003F096F88DF808008D
:1054E0009DF9080010F10D0F3DD09DF9080000282E
:1054F00002D0D8F8000060679AF80000800626D530
:10550000606F002806D0606F407B50F02000616F14
:1055100048731CE0208DB0F5A86F02D0208D401C90
:105520002085D4F88000002809D000230022210023
:105530002069D4F880C0E0478DF8080002E0002020
:105540008DF808009DF9080010F10D0F0BD0002018
:10555000DFF808190860200000F03FF8002802D1A9
:10556000200004F0BAF80020DFF8F01808600020EE
:10557000C8F80000D9F80400002827D0D9F80400A2
:1055800001F040FE0020C9F804001FE0D8F8000038
:10559000808901F0FFFA400715D4D8F80000008890
:1055A0000190D8F800004088009019F1100319F11B
:1055B0001402DFF8D4070168BBF800004118DAF8DC
:1055C000000004F053FA380001F01CFE02E038003D
:1055D00001F018FE05B0BDE8F08F10B50400DFF84B
:1055E00074080078C00617D5A07EC00609D4D4F888
:1055F0008C00002805D07FF00E012069D4F88C20A3
:1056000090472100DFF8900703F08DF92100012079
:1056100004F078FC012000E0002010BD2DE9FE43DD
:105620000500DFF86C070178490700F18A800178EE
:10563000C90619D56648DFF804150A681288019270
:1056400009684988009110F1100310F11402DFF885
:1056500038070168DFF83C0700884118DFF82C079D
:10566000006804F003FA6CE00078800769D5687D73
:1056700003F06AF80400002C0CD1A869002806D0B9
:105680005FF0FF3200212869AB69984701E07FF0A5
:105690000F0056E04E484169216000696060E88A69
:1056A000E082DFF89884D8F8000000882083032087
:1056B0002075DFF8D496D9F80000401C6062606A5B
:1056C000E062200003F07FF906006665E664666428
:1056D000A665D9F80000401E206528692061A567ED
:1056E000287A10F00C002072DFF8AC060168E16047
:1056F000046004F047FC0120DFF868170870200000
:1057000001F092F9D8F80000C089A4F85C00B4F860
:105710005C00A4F85E00211D608E03F05DF96086D8
:105720001221200003F0CAFE0700380040B2002812
:1057300004D00021200002F05CFA02E0200003F017
:10574000CCFFBDE8F7831CB50400DFF84406017800
:1057500049073BD40178890725D5DFF82C160A685C
:10576000606A121A002A25D40A68606A121A208D0B
:10577000121A012A1EDA1648DFF8C02313681B88A4
:10578000019312685288009210F1100310F1140274
:105790000968DFF8000600884118DFF8F0050068A6
:1057A00004F064F912E00078C00703D5DFF8B8060A
:1057B00000682062DFF8DC050088002806D0A07EA3
:1057C00050F00200A076200003F087FF13BD000018
:1057D000D0440020D446002094460020D646002025
:1057E000DCB10108B8B3010860A601082DE9FC414D
:1057F000050000260027DFF8988598F8000040078C
:1058000044D5287D022808D1DFF880050068E96CBE
:1058100088421BD10120060018E0DFF86C150868EB
:105820006A6A904202D1012006000FE00A68686AA5
:10583000121A002A0AD40968686A091A288D091AF6
:10584000012903DAA87E50F00200A8763000C0B229
:10585000002819D0287D002809D1DFF8C03440F293
:10586000E722DFF80816DFF8B80402F033F8DFF8B3
:10587000E405017851F008010170A87E10F0FE00E7
:10588000A8767FF00D007CE200207AE298F8000014
:1058900080070BD5287D022808D0287D032805D055
:1058A000A87E50F00200A87600206AE2A87EC0061A
:1058B00003D4DFF8B40500682862002085F896005C
:1058C000280001F0B1F8287D022814D0C0F05882D9
:1058D000042800F07B81C0F0D380062800F0D58139
:1058E000C0F08281082800F0FF81C0F06F81092894
:1058F00000F0318244E298F8000010F01200122803
:1059000040F09780DFF8841408686A6C521C90425B
:1059100040F08F80DFF870040268521C6A626A6A85
:10592000EA620968696485490968C989A5F85C1053
:10593000B5F85C10A5F85E100068401E28650420CC
:105940002875291D688E03F047F8688641F21D10FE
:10595000698E4900814202D3698E490001E041F21B
:105960001C116A8E92008A4203D2688E80B2800037
:1059700009E0698E4900814203D3688E80B24000FD
:1059800001E041F21C10A5F84800B5F862000028BB
:1059900009D1DFF8883340F21A32DFF8D414DFF887
:1059A000800301F097FFB5F86200401EA5F8620081
:1059B000E86E0400002C10D1A86E0400002C09D160
:1059C000DFF8583340F22232DFF8A814DFF8500332
:1059D00001F080FF2068A86601E02068E8662000EA
:1059E00002F0EAFDE86E002803D15FF0FF30288660
:1059F00004E000202886002085F84200D5F88400C5
:105A0000002807D0002229002869D5F8843098475B
:105A1000070001E0002007007FF00C0039000200C1
:105A200049B2914200F0AD81A87E50F00200A87604
:105A300025E098F80000C00621D5DFF83C043F4976
:105A40000A681288019209684988009110F11003D0
:105A500010F11402DFF830030168DFF83803008822
:105A60004118DFF82803006804F000F895F84200B8
:105A7000062804DA00202886280004F07FF87FE159
:105A800098F80000C00640F19380DFF800C3DCF80E
:105A90000010686C091A491E002972D4DCF8001045
:105AA000E86C091A01296CDA04202875A86F00280F
:105AB0000BD0A86F8069002807D1984B40F2513273
:105AC000DFF8B813964801F005FFA86F002803D14E
:105AD0007FF0050007000EE0A86F8069002807D05E
:105AE000002229002869AB6F9B699847070002E0F4
:105AF0007FF00F000700380040B200280AD03800BD
:105B000040B210F10D0F02D0280002F0F3F87FF040
:105B10000C0036E1280000F0B3F9DFF83C130888E8
:105B2000002802D00888401E088041F21D10698EAE
:105B30004900814204D3698E490003E09046002069
:105B400041F21C116A8E92008A4203D2688E80B2A2
:105B5000800009E0698E4900814203D3688E80B2DB
:105B6000400001E041F21C10A5F84800B948007857
:105B700080062AD5A87E50F00200A8760720287556
:105B800023E0BD48DFF8041C0A6812880192096806
:105B90004988009110F1100310F114027A4801684D
:105BA0007C4800884118DCF8000003F05FFF0CE03F
:105BB00098F80000800708D573480068696A491E94
:105BC000884202D1280003F0F9FFD9E0280000F054
:105BD00057F9A0480078800605D5A87E50F002004D
:105BE000A87607202875CBE0280000F049F99948ED
:105BF000007880063AD598F80000C0062FD5634893
:105C00000068E96C88422AD1A86E002827D1A87EB6
:105C100050F00200A876280002F05CFE5E480168A1
:105C2000A94203D10168C96801600AE00068002840
:105C300007D0C168A94202D1E968C16001E0C0682B
:105C4000F5E70020E8600120864908700A202875E1
:105C50007B480168E960056004F094F914E0A87ECF
:105C600050F00200A876082028750DE098F8000092
:105C7000C00609D545480068E96C884204D1A86E81
:105C8000002801D1062028757AE0280000F0F8F8F5
:105C900070480078800626D5A87E50F00200A876CD
:105CA000280002F017FE3C480168A94203D10168B0
:105CB000C96801600AE00068002807D0C168A942ED
:105CC00002D1E968C16001E0C068F5E70020E86042
:105CD0000120644908700A20287559480168E96064
:105CE000056004F04FF94BE0280000F0C9F898F87F
:105CF0000000C0062ED525480068E96C884229D1ED
:105D0000A86E002826D1280002F0E4FD2248016890
:105D1000A94207D10168C96801600EE088890108BD
:105D2000949E01080068002807D0C168A94202D1EA
:105D3000E968C16001E0C068F5E70020E860012083
:105D4000484908700A2028753D480168E9600560E7
:105D500004F018F914E0280000F092F898F8000018
:105D6000C0060CD509480068E96C884207D1A86EC6
:105D7000002804D13748017851F010010170FFE785
:105D80000020BDE8F6810000984600209C460020D7
:105D9000E6460020DC46002088460020BC9E010824
:105DA000A8990108E49E010870B505000C00E86898
:105DB000808900F0EFFEC00705D5200002F0F1FB5E
:105DC0000020040036E0002C1FD0DFF8540C0168DE
:105DD00028894118E0684068091A2089091A0029B1
:105DE00013D4E068808900F0D5FEC00707D50120F4
:105DF00000F0D0FEE96889890843E96888812600B7
:105E00002468300002F0D8FBDDE7002C12D0DFF868
:105E1000101C0A6828898218E0684068121A012A52
:105E200008DBE06842680868121A2A8129896868D4
:105E300001F0C1F82C6070BDD4990108009A0108E6
:105E40008C460020309701088446002090450020B1
:105E5000A0460020E7460020DA460020A4460020A5
:105E6000ACAB0108E34600207C46002080A6010878
:105E7000DCAD010808B00108D0440020A0A601084C
:105E80002DE9F84F84B0060000200290307D0428F0
:105E900009DADFF8503C4FF48162DFF8881BDFF845
:105EA000480C01F017FDDFF82C0C0078C00640F11B
:105EB000FE81B6F85C10706D41180391DFF8601B2D
:105EC000326D0868121A002A18D4306D0A689042A0
:105ED00006D1726DDFF8140C0068121A002A0DD476
:105EE000706DDFF8082C1268904233D1B6F85C0070
:105EF000DFF898281268D28990422BD2DFF88C08FC
:105F00000068C089A6F85C00B6F85E00B6F85C20B0
:105F1000904203D2B6F85C00A6F85E0008683065CF
:105F2000DFF8C80B00687065B6F85C0000280AD17D
:105F300096F8950000280DD1002086F894000120E5
:105F400086F8950006E096F89500002802D000201B
:105F500086F89500DFF8947B3968706C091A01297E
:105F600045DADFF88C0B0088002838D1716DB6F85F
:105F70005C0041180398814231D1B6F93000002805
:105F80002DD4706C3968884229D10120029096F88E
:105F9000430096F84310491CC9B2884204D296F8CF
:105FA0004300401C86F8430096F8430004280FDBAA
:105FB000B6F84810B6F84820708E821892B2914216
:105FC0000DD2B6F84810708E4118A6F8481006E0B9
:105FD00096F84300032802D1300003F020FE029817
:105FE000002840F0C380002086F84300BEE03968F6
:105FF000706C091A491E002900F1B5803968F06CEF
:10600000091A012980F2AF80B07E400707D5B07E23
:1060100010F0FB00B076B6F84A00A6F84800002061
:1060200086F84200B6F93C00B6F93E1011EBE001EB
:10603000A6F84010002086F8430038687064307D70
:10604000042827DBB6F84800B6F84A1088420FD279
:10605000B6F84810B6F84820708E821892B2914275
:1060600018D2B6F84810708E4118A6F8481011E002
:10607000B6F84810728E708E4243B6F8480092FB14
:10608000F0F04118B6F848000A0092B2904201D2EE
:10609000A6F84810F06E002859D0F06EC06840682D
:1060A00000F080FD8046F06EC068808900F072FDCF
:1060B00010F0030F01D0012100E00021F06E0089F3
:1060C00010EB080811EB08083868B8EB0008B8F1C5
:1060D000010F3CDAF06E0400F06E0068F066606854
:1060E00001F016F9B6F8621080B2814209D2DFF8E9
:1060F000F43940F29E42DFF8FC19DFF8EC0901F0B8
:10610000E9FB606801F004F9B6F86210081AA6F815
:106110006200DFF8E4190A88208982180A802000CA
:1061200002F04AFAB6F862000028B3D0F06E0028F8
:106130000CD1B06E002809D1DFF8A83940F2A7428F
:10614000DFF8B819DFF8A00901F0C4FBA2E7F06E90
:10615000002803D15FF0FF30308601E00020308658
:106160000020F07602E0300003F074FAB06E0028F0
:1061700064D0B06EC068406800F014FD8046B06E18
:10618000C068808900F006FD10F0030F01D00121E6
:1061900000E000213868B0EB0808B06E0089B8EB69
:1061A0000008B8EB0108B8F1000F47D43968F06C6B
:1061B000091A012942DAB06E0400B06E0068B066B8
:1061C000B06E002802D10020A6F86400606801F0DB
:1061D0009FF8B6F8621080B2814209D2DFF8043924
:1061E00040F2D542DFF80C19DFF8FC0801F072FB31
:1061F000606801F08DF8B6F86210081AA6F862001F
:10620000DFF8F4180A88208982180A80200002F03A
:10621000D3F9B6F862000028A8D0F06E00280CD19F
:10622000B06E002809D1DFF8BC3840F2DD42DFF85B
:10623000CC18DFF8B40801F04DFB97E7B6F8601012
:10624000DFF8B40800884118A6F86010706B0028C9
:106250002DD0B16B3868091A002928D5DFF8A008BD
:106260000168706B081A00B2B6F93C10B0EBE1009F
:10627000B18F4118B187010009B2002901D500B2E0
:10628000404200B2B6F93E10B0EBA100ADF80600F6
:10629000F18FBDF806004118F187B6F93C00B6F958
:1062A0003E1011EBE001A6F8401000207063DFF80B
:1062B00040783888002800F07D83307D072880F200
:1062C0007983DFF85C87716AD8F80000091A491EE3
:1062D000002900F19480716AD8F80000091A388802
:1062E000091A491C012980F28A80DFF818A8DAF817
:1062F00004B0716AD8F80000091A8946DAF8040077
:10630000002809D1DFF8DC3740F23C52DFF8F817FB
:10631000DFF8D40701F0DEFA47F6FF70814509DBAC
:10632000DFF8C03740F23D52DFF8E017DFF8B8077A
:1063300001F0D0FADAF80400408948453ADADAF890
:1063400004000089484509DADFF8983740F23F52E7
:10635000DFF8BC17DFF8900701F0BCFADAF80400A8
:106360000089B0EB0900ADF80400BBF80A0048450D
:106370000DDABBF80A00B9EB0009BDF80400ABF870
:1063800008000020ABF80A00DBF800B0EDE7D9F117
:10639000000109B2584600F021FF00281DD0DFF8A7
:1063A000443740F24C52DFF86C17DFF83C0701F03D
:1063B00091FA12E0D9F1000109B2DAF8040000F014
:1063C0000DFF002809D0DFF81C3740F25152DFF8EA
:1063D0004417DFF8140701F07DFABAF80810726A62
:1063E000D8F80000121A891AAAF80810706AC8F8BA
:1063F0000000D8F80000DAF80C10486009E0D8F87E
:106400000010706A091A002903D5B07E50F002000E
:10641000B076D8F80010706A091A002900F1C68217
:10642000D8F80010706A091A308D091A491C012920
:1064300080F2BC82706AD8F80010884240F0B981BE
:10644000DFF8C0A6DAF80C00808900F0A3FB10F09A
:10645000030F01D0012000E00020BAF80810401816
:106460003880308D3988884250D2DAF80C00808923
:1064700000F090FBC00712D5DAF80C00808900F01C
:1064800089FB10F03E0000F085FBDAF80C108A89D9
:106490004CF2FF010A401043DAF80C108881308D6D
:1064A000AAF80800DAF80C00808900F073FB800776
:1064B00004D5BAF80800401EAAF80800BAF8081077
:1064C000DAF8040000F077FDDAF80C00808900F0BB
:1064D00061FB10F0030F01D0012000E00020BAF8AA
:1064E000081040183880D8F8001038884118726AAF
:1064F000308D8218914209D0DFF8E83540F27F52A2
:10650000DFF81416DFF8E00501F0E4F9306F002839
:1065100000F09580DAF80C00808900F03BFBC007A2
:106520000CD5306F002800F08A80D6F870B0306F3C
:1065300000683067584602F03FF8F2E7306F040019
:10654000002C36D0D8F8001038884118E068406830
:10655000091A2089091A00292BD4E068808900F0E3
:1065600019FBC0071FD5DAF80C00808900F012FB78
:10657000800718D4012000F00DFBDAF80C1089898F
:106580000843DAF80C108881DAF80C00808900F0F2
:1065900001FB10F0030F01D0012000E00020BAF849
:1065A00008104018388000942468009802F004F81D
:1065B000C6E7002C42D0D8F8001038884118E068AF
:1065C0004068091A012939DBE0684168D8F8000001
:1065D000091AAAF80810DAF80C00808900F0DAFA33
:1065E000800704D5BAF80800401EAAF80800BAF8D7
:1065F0000810DAF8040000F0DEFCDAF80C008089FC
:1066000000F0C8FA10F0030F01D0012000E00020D4
:10661000BAF8081040183880D8F8001038884118A7
:10662000E0684068814209D0DFF8B83440F2AF52E8
:10663000DFF8E814DFF8B00401F04CF93467D8F85B
:106640000010388841187162308D3988884209D22B
:10665000DFF8903440F2B952DFF8C414DFF8880450
:1066600001F038F9318D3888091A3185300001F090
:1066700020FCDAF804000089002807D0DAF80400CA
:10668000DFF8A01408600020CAF80400DAF80C0053
:10669000808900F07FFAC00705D5DFF88C04017807
:1066A00051F020010170306F002871D0306FC06848
:1066B0004068716A88426BD1306F0500306FC068E6
:1066C0004068C8F80000E868808900F063FA10F0BC
:1066D000030F01D0012000E00020716A2A89801890
:1066E00040187062E868808900F054FA10F0030FD7
:1066F00001D0012000E00020318D2A8980188142DC
:1067000009D2DFF8E03340F2DE52DFF82014DFF880
:10671000D80301F0DFF8E868808900F03BFA10F058
:10672000030F01D0012100E00021328D2889121AC7
:10673000511A3185300001F0BCFB686800890028DF
:106740000DD0DFF8E0231068002804D069681068D5
:1067500000F002FE01E06868106000206860E868F0
:10676000808900F017FAC0070AD5DFF8BC0301786A
:1067700051F020010170307D042801D107203075CF
:1067800028683067280001F017FF8CE7904600204A
:10679000B07EC00708D5B07E10F0FE00B076B07EA7
:1067A00050F00200B07603E0B07E50F00100B07609
:1067B00012E1300002F04EFF306F002805D1DFF803
:1067C000440301F008FF306706E100200090306FBD
:1067D0000400002C00F00081D8F80000E16849684E
:1067E000884216D1C74821890289914210D201F00E
:1067F000F2FE0500002D0AD00098002802D0009873
:10680000056000E0356721002800FFF7CDFAE3E0DE
:10681000E2E00098002812D1D8F80010E068406843
:10682000091A002942D5B74801F0D5FE0500002D10
:1068300004D0356721002800FFF7B6FACCE0D8F87D
:1068400000100098C0684068091A491E00292DD41C
:10685000D8F80010E0684068091A491C012925DAB7
:10686000A84801F0B8FE0500002D1ED00098C068B1
:106870004168009800894118D8F80000091A0129D8
:106880000DDBD8F800100098C0684068091A00981D
:106890000181009801890098406800F08CFB009805
:1068A000056021002800FFF77FFA95E020680028A6
:1068B00079D1D8F80010E0684068091A012972DB24
:1068C000E068808900F066F9C00700F185808D4896
:1068D00001F081FE20602068002863D0E0684168F4
:1068E00020894118D8F80000091A012909DBD8F8D5
:1068F0000010E0684068091A21812189606800F071
:106900005AFB3988D8F800004118706A091A308D8E
:10691000091A012946DB2068C068808900F03AF92D
:10692000C00712D52068C068808900F033F910F0E4
:106930003E0000F02FF92168C9688A894CF2FF01F6
:106940000A4010432168C9688881716A308D4118F6
:10695000D8F80000091A20680181206801892068A0
:10696000406800F028FB2068C068808900F012F9B8
:1069700010F0030F01D0012000E0002021680989F8
:1069800040183880D8F8001038884118726A308D65
:106990008218914206D0534B40F27B625E495248C6
:1069A00000F098FF18E00094246812E7300002F02D
:1069B00051FE11E01A490A68706A121A002A07D4B7
:1069C0000968706A091A308D091A491C012903DB0C
:1069D000B07E50F00200B07605B0BDE8F08F10B484
:1069E00053490868002805D05248534A1388048840
:1069F000A3420AD25148006810F114014E4802889F
:106A0000531C038092B2885C08E013880088181A2F
:106A100013885B1C13800968C0B2085C10BC704707
:106A200098460020C8AB01082DE9F0470400444F08
:106A3000388800284BD0DFF800910020A9F800002A
:106A4000B9F800003988884241D2FFF7C8FF804674
:106A50004046C0B2002803D0022803D001D326E06C
:106A600035E0EDE7FFF7BBFF042805D13888B9F81A
:106A70000010891C884200DA29E0FFF7B0FF824647
:106A80005FEA0A2AFFF7ABFF50EA0A00060030006F
:106A900080B240F25111884203DA300080B20028FF
:106AA00002D14FF4A87000E030006086C8E7FFF71D
:106AB00096FF05002800C0B2022808DBB9F80010D4
:106AC0002800C0B2801E4118A9F80010B8E7BDE840
:106AD000F0870000E64600201348017851F01001CD
:106AE0000170704788890108949E01089C46002027
:106AF000DC4600200C9F0108DA460020C0A60108F1
:106B00007C46002090450020ECB10108FCB1010852
:106B10000CB201081CB00108A4920108D49001082D
:106B2000E0A60108A0460020E7460020349F0108A7
:106B300094460020D6460020D846002090460020EB
:106B4000D446002030B402001300D043002801D006
:106B5000002A01D101201BE091F82F00800701D409
:106B6000002015E04868824201D1002010E08C68C6
:106B70001C404D6888680540AC4208D1886832EAFC
:106B800000008C68E443A04201D1012000E0002015
:106B900030BC70470100080080B2000A50EA0120B2
:106BA00080B270470100080210F47F0050EA0160D3
:106BB0000A00120A12F47F42104350EA1160704733
:106BC00038B503F027FC05000020DFF8581A0870DC
:106BD000280003F028FCDFF88C0B0468002C0AD096
:106BE000206F002805D0206F01F0DBFC002020671B
:106BF00001E0E468F2E731BD10B50400FFF7E0FF03
:106C000010BD70B503F006FC0400DFF8185A2E78AA
:106C100001202870200003F006FC3000C0B20028DC
:106C20000FD100220021DFF8400B03F09FFC002869
:106C300007D003F0EFFB040000202870200003F0D1
:106C4000F2FB70BD2DE9F84F06000F0090463000B2
:106C5000C0B2002806D002280AD006D304280DD0DE
:106C600009D30EE05FF0360A17E05FF0220A14E065
:106C70005FF00E0A11E05FF0000A0EE05FF0000A1C
:106C80000BE0DFF8E83A4FF48B72DFF89C19DFF87D
:106C9000E00A00F01FFE002032E14046C0B20028AA
:106CA00000F0CB80022800F00881C0F006810328A4
:106CB00040F015810D2003F0F3F80400002C03D1FF
:106CC000FFF79FFF00201BE184F80C80002020606C
:106CD000504680B220441030C01C800880006060A4
:106CE000207910F0030F09D0DFF8803A40F2291222
:106CF000DFF8801ADFF8780A00F0ECFD2781380011
:106D000080B2514689B2C91C89088900D1F5C47185
:106D1000884201D2390007E0514689B2C91C4FF6BA
:106D2000FC700140D1F5C471618114F5CC706168CB
:106D300062891144884209D2DFF8303A4FF49872E0
:106D4000DFF8341ADFF8280A00F0C4FD504680B29C
:106D5000C01C80088000D0F5C470002809D1DFF87D
:106D60000C3A4FF49972DFF8141ADFF8040A00F0B5
:106D7000B1FD0120E0810094390089B26089091ACF
:106D80008946B9F1010F57DB0D2003F089F80500A2
:106D9000002D06D1FFF735FF200000F033FA002068
:106DA000AEE085F80C800020687300202860009811
:106DB00005604FF6FF70814509DBDFF8B0394FF40D
:106DC000A672DFF85C1ADFF8A80900F083FDA5F8C9
:106DD0000890484680B2B0F5C47F01D2484601E031
:106DE0004FF4C470688115F110006860287910F0C4
:106DF000030F09D0DFF874394FF4A972DFF8241AB1
:106E0000DFF86C0900F066FD14F5CC7061686289EA
:106E10001144884209D2DFF8543940F25512DFF8A4
:106E20005819DFF84C0900F055FD0120E881688908
:106E3000B9EB00090095A4E75DE01AF1130B4FF6DA
:106E4000FC7010EA0B0B390089B2C91C4FF6FC70BC
:106E5000014011EB0B0B584680B2390089B2C91CB6
:106E600089088900884201D2002049E0584680B252
:106E700003F0CEFD0400002C01D1002040E050467C
:106E800080B220441030C01C8008800060602781E0
:106E9000208960810020206084F80C80207910F027
:106EA000030F09D0DFF8C43840F27712DFF8781901
:106EB000DFF8BC0800F00EFD1DE00C2002F0F0FF32
:106EC0000400002C01D100201AE00020606027811E
:106ED000208960810020206084F80C800BE0DFF8BE
:106EE0008C384FF4C672DFF84419DFF8840800F0DC
:106EF000F1FC002004E00120E0810020607320000C
:106F0000BDE8F28F2DE9F84381460E001700984640
:106F1000089C099D4846C0B2002806D0022808D027
:106F200005D3042809D006D309E0362113E0222135
:106F300011E00E210FE000210DE000210BE0DFF851
:106F40002C3840F2C512DFF8E818DFF8240800F00A
:106F5000C1FC00202DE02A0092B20B009BB2DB1C8A
:106F60009B089B00300080B2C3189A4201D20020D7
:106F70001FE00020C8F80000002C08D0080080B2F4
:106F8000C01C800880002044C8F8040002E00020F3
:106F9000C8F80400022088F80D00A8F80860B8F8C6
:106FA0000800A8F80A0088F80C700120A8F80E0064
:106FB0004046BDE8F2832DE9F04105000E00002DAA
:106FC00009D1DFF8A83740F2F312DFF86818DFF8CC
:106FD000A00700F07FFC287B032812D0287B012823
:106FE0000FD0287B00280CD0287B022809D0DFF89E
:106FF0007C3740F2F712DFF84018DFF8740700F032
:1070000069FC3000298980B2884258D2300080B2B1
:107010002F89C71BB0462C006089414689B288423F
:1070200021D26089B8EB00084FF6FF70874209DB78
:10703000DFF8383740F20B22DFF80018DFF83007AE
:1070400000F048FC2089381820812468002C09D1E0
:10705000DFF8183740F20F22DFF8E417DFF81007E7
:1070600000F038FCD8E7207B00281CD1404661891D
:1070700080B2884217D0607B800714D46168091BF6
:1070800018EB010189B2200003F0F6FB0400002C8C
:1070900009D1DFF8D83640F21D22DFF8A817DFF853
:1070A000D00600F017FCA4F80A80608920812068CF
:1070B000002802D0206800F0A5F800202060BDE87C
:1070C000F0812DE9F84304000D001600002C09D1D1
:1070D000DFF8983640F23F22DFF86C17DFF89006B1
:1070E00000F0F8FB280000B2002801D0002C01D1EC
:1070F000002071E0280000B2002814D52F003FB214
:107100007F426089390089B288420BD2DFF85C3651
:1071100040F24722DFF83417DFF8540600F0DAFBBC
:10712000012059E001E02F00BFB294F80C90D4F890
:107130000480484680B2002803D0484680B2032825
:107140000ED16068290009B2494208446060606855
:1071500014F11001884238D2C4F8048001203BE0C9
:10716000484680B2022803D0484680B2012820D188
:10717000280000B200280BD56089390089B2884206
:1071800006D36068290009B24942084460601CE0E7
:10719000280000B201280ADB3000C0B2002806D067
:1071A0006068290009B24942084460600DE001208E
:1071B00012E0DFF8B83540F27722DFF89416DFF8F6
:1071C000B00500F087FB012006E060892818608187
:1071D0002089281820810020BDE8F28338B50400FA
:1071E0000D000022290009B22000FFF76AFF32BD1E
:1071F00038B504000D000122290009B22000FFF774
:1072000060FF32BD2DE9F0470400002C0DD1002CA9
:1072100009D1DFF8583540F2D222DFF82C16DFF81A
:10722000500500F057FB002070E0207B002812D0B2
:10723000207B01280FD0207B02280CD0207B032844
:1072400009D0DFF8283540F2DE22DFF80816DFF833
:10725000200500F03FFB0027002C55D003F0DAF8A2
:107260008046E089002809D1DFF8003540F2EB22A2
:10727000DFF8E415DFF8F80400F02CFBE089401E8D
:10728000E081B4F80E90404603F0CDF8484680B255
:10729000002836D120680600207B0500607B80072F
:1072A00013D5A246DAF81000002809D1DFF8BC3463
:1072B00040F2F922DFF8A415DFF8B40400F00AFB6D
:1072C0002000DAF81010884718E0280080B2032860
:1072D00004D121000D2002F015FE0FE0280080B23D
:1072E000012803D0280080B2022804D121000C20FC
:1072F00002F008FE02E0200003F066FA7F1C340072
:10730000AAE700200400A7E73800C0B2BDE8F08774
:1073100001000020002902D0401C0968FAE780B271
:10732000704738B50400002C15D003F073F8050041
:10733000E089401CE081280003F075F8E08900280E
:1073400009D1DFF81C3540F23932DFF81815DFF8C3
:10735000180500F0BFFA31BD70B504000D00002C17
:1073600001D0002D0AD1DFF8F83440F24D32DFF8B9
:10737000FC14DFF8F40400F0ADFA29E026003068D0
:10738000002805D031892889411831813668F6E70F
:1073900030897189884209D0DFF8C43440F255320F
:1073A000DFF8CC14DFF8C00400F094FA306800284D
:1073B00009D0DFF8AC3440F25632DFF8B814DFF809
:1073C000A80400F087FA3189288941183181356095
:1073D00070BD38B504000D0029002000FFF7BCFF88
:1073E0002800FFF79EFF31BD2DE9F84F05000C0086
:1073F0005FF000080027002D05D0002C03D028895D
:10740000218988420CD2DFF8583440F2BD32DFF8CF
:107410006814DFF8540400F05DFA7FF00F0095E087
:107420006989404680B2091A6289380080B2121A0E
:10743000914203DB6089C01B060003E06889B0EB62
:1074400008000600B1461FFA89F96068390089B260
:1074500000EB010A6868414689B200EB010B4A461D
:107460005146584603F0C4FB16EB0808F719688923
:10747000414689B2884209D2DFF8E43340F2CD3286
:10748000DFF8F813DFF8E00300F024FA6089390030
:1074900089B2884209D2DFF8C83340F2CE32DFF831
:1074A000E013DFF8C40300F015FA3800618980B2F8
:1074B000884202D30020070024684046698980B2D0
:1074C000884213D1002080462D68002D0ED1002C5B
:1074D0000CD0DFF88C334FF47672DFF8A813DFF8A6
:1074E000880300F0F7F97FF00F002FE0002C13D095
:1074F0006089218988420FD1206800280CD0DFF8EC
:10750000603340F2DE32DFF88013DFF85C0300F016
:10751000E1F97FF0050019E0002D13D06889298971
:1075200088420FD1286800280CD0DFF8343340F2AD
:10753000E332DFF85413DFF8300300F0CBF97FF0CB
:10754000050003E0002C7FF46BAF0020BDE8F28F54
:107550002DE9F34F81B015009946002701980028C6
:107560000BD1DFF8FC3240F2FE32DFF82013DFF8F7
:10757000F80200F0AFF9002051E00298002809D18C
:10758000B74B40F2FF32DFF80813B74800F0A2F91A
:10759000002044E05FF000080198002802D0029823
:1075A000002801D100203AE0019C280080B2002888
:1075B00033D0002C31D0484680B2002808D048464D
:1075C000618980B2884203D36089B9EB000922E067
:1075D0006089B0EB090006002800310080B289B252
:1075E000884200D22E00B2461FFA8AFA60684946E5
:1075F00089B2084400900298414689B200EB010B21
:1076000052460099584603F0F3FAF71916EB0808AA
:10761000AD1B002081462468C7E7380080B2BDE872
:10762000FE8F0000E1460020B0AA010870B40400FB
:107630000D002000002808D02B0046899BB2B342E1
:1076400003D34389ED1A0068F4E7002A00D01580BF
:1076500070BC704770B504000D00160032002900A0
:1076600089B22000FFF7E2FF70BD2DE9F34F81B032
:1076700004001600B0465FF00009002C09D1784BD9
:1076800040F284428349784800F024F97FF00F00EB
:1076900065E00298002809D1714B40F285427E498D
:1076A000714800F017F97FF00F0058E02089310091
:1076B00089B2884209D26A4B40F2864277496A48C9
:1076C00000F008F95FF0FF3049E0002C07D0029885
:1076D000002804D02089310089B2884202D27FF08C
:1076E0000F003CE02500404680B2002825D0002D48
:1076F00006D15B4B40F28E4269495B4800F0EAF8E4
:1077000047466889390089B2884201D268890700F2
:10771000BA461FFA8AFA0298494689B2084400908C
:10772000D5F804B052460099584603F061FAB8EB18
:10773000070817EB09092D68D5E7404680B20028F5
:1077400005D14846310080B289B2884206D0444B08
:1077500040F299425349444800F0BCF80020BDE88B
:10776000FE8F000088460020F96B0008FC8B0108A2
:107770002C9D0108109601081C94010850940108E2
:107780002DE9F14F82B00D0016001F006A46390046
:1077900089B20298FFF75EFF0400002C3BD02189DC
:1077A000BDF80020300080B28218914233DBB2462F
:1077B000A9466189BDF80000091A300080B28142F3
:1077C00006DA6189BDF80000091AADF8021001E07F
:1077D000ADF80260BDF8028001956068BDF8001048
:1077E00000EB010B42460199584603F001FABDF83F
:1077F0000200BAEB000ABDF802008144504680B294
:10780000002806D0524692B249462068FFF72DFF65
:1078100003E0002001E05FF0FF30BDE8FE8F0000D4
:10782000CCAF010840960108A0980108CCAA010835
:1078300024A20108D4AC0108E8AA0108E0AF0108BD
:10784000ECAC010804AB0108A0B30108E0A50108F5
:107850001CB1010804AD01081CAD010848A20108D3
:10786000FC8B0108F4AF01082C9D01086C92010803
:10787000709601082CB10108A096010834AD0108EA
:1078800020AB01083CB10108CC98010800A6010812
:107890006CA201084CAD01083CAB010820A6010810
:1078A00064AD01087CAD01087CB504000D00160034
:1078B0006A46290089B22000FFF7CCFE002808D0D4
:1078C000BDF800104289914203D24168BDF8002002
:1078D0008E5473BD0EB4C0B5024603A800210190BA
:1078E000009101AB0121044878440C3003F0D8F931
:1078F00006BC5DF810FB00BF5D350100704780B528
:1079000000F0C2FDDFF8F4060178491C0170007830
:10791000C00701D500F08AFB01BD0200002A06D095
:10792000936F8B4201D100239367D268F6E77047CB
:1079300038B50400002C08D1DFF8C436C022DFF8C7
:10794000C416DFF8C406FFF7C5FF207D012808D064
:10795000DFF8AC36C122DFF8B416DFF8AC06FFF76B
:10796000B9FF0125042D09D22100DFF8A40650F843
:1079700025000068FFF7D1FF6D1CF3E731BD3EB570
:1079800004000D002800C0B200285BD0207D042830
:1079900002D0207D072855D1606F002803D1208DAB
:1079A000B0F5A86F4ED0A07EC00609D4DFF85036DF
:1079B00040F20F12DFF85C16DFF84C06FFF78AFF83
:1079C000208B0190E08A0090231D2200616AE06C08
:1079D00002F04CF8200000F07DFFDFF83C06016863
:1079E000A14203D10168C96801600AE0006800286B
:1079F00007D0C168A14202D1E168C16001E0C0685E
:107A0000F5E70020E0600120DFF8781A0870207D9B
:107A1000042809D10A202075DFF800060168E1601A
:107A2000046002F0AFFA0BE0DFF8F4050068A04252
:107A300002D1FFF751F803E02100012002F062FAC1
:107A4000002044E0207D002803D002282CD01ED343
:107A500038E0E08A002815D0DFF8C8050168A142A7
:107A600003D10168C96801600AE00068002807D0F6
:107A7000C168A14202D1E168C16001E0C068F5E7D8
:107A80000020E0602100012002F03CFA1EE020000E
:107A9000FFF74EFF2100DFF8900500F044FF2100C2
:107AA000022002F02FFA11E02100DFF86C0500F04F
:107AB0003AFF0120DFF8CC1908702100012002F004
:107AC00021FA03E0200000F003F800E000203EBDB2
:107AD00038B50400002C09D1DFF8243540F24D12EE
:107AE000DFF82015DFF82005FFF7F4FE207D0328DE
:107AF00004D004280DD0072816D020E0200001F083
:107B000058F80500280040B2002801D10520207552
:107B100017E0200001F04DF80500280040B20028D1
:107B200001D1052020750CE0200001F042F805008D
:107B3000280040B2002801D10920207501E0002072
:107B400015E0280040B2002803D1200001F0C5FD57
:107B50000BE028005FF0FF3140B2884205D1A07EE3
:107B600050F00800A076002001E0280040B232BDAD
:107B700010B50400207D012803D0A07E50F0100035
:107B8000A07601212000FFF7FAFE10BD70B50600B7
:107B90000D001400307D012802D17FF00A0027E09B
:107BA000002D12D0B07E50F01000B076002C04D022
:107BB00001213000FFF7E3FE1AE0706F002804D0C7
:107BC000706FFFF71FFB00207067002C0FD0307D17
:107BD000C01E012801D9001F06D128000100C9B22A
:107BE0003000FFF7CCFE03E07FF00A0000E0002049
:107BF00070BD2DE9FE4F05000E00287D012809D13A
:107C0000DFF8FC334FF4F072DFF8F818DFF8F80310
:107C1000FFF760FE287D0A2809D12900DFF8FC0360
:107C200000F081FE2900012002F06CF960E00024E0
:107C30005FF0000AE86C0290686A0700D5F88C00D3
:107C4000804628698146287D002819D1E88A0028C5
:107C500022D0DFF8D0030168A94203D10168C968C6
:107C600001600AE00068002807D0C168A94202D17B
:107C7000E968C16001E0C068F5E70020E8600BE05A
:107C80003400E88A82462900DFF88C0300F04BFEBE
:107C90000120DFF8F0170870E86E002802D0E86EC7
:107CA00000F07FFCA86E002802D0A86E00F079FCDE
:107CB000286F002802D0286F00F073FC002C0AD037
:107CC000288B0190504680B200902B1D2A0039006D
:107CD000029801F0CBFE95F814B02900012002F0C3
:107CE00011F94046002803D07FF00C014846C047F8
:107CF000BDE8F78F10B5040001212000FFF779FFE0
:107D000010BD2DE9F84306000C0017005FF00408D1
:107D1000002C02D1DFF880090400002E01D0002CD5
:107D200002D17FF0050058E0307D00280CD0DFF84C
:107D3000D0324FF41172DFF8D019DFF8CC02FFF720
:107D4000C9FD7FF0050048E0380080B2002809D165
:107D500000F022F90700380080B2002829D17FF016
:107D600001003AE000208146C14522DADFF8A00296
:107D700050F8290000680500002D17D0E88A390066
:107D800089B2884210D1002D0BD02868002808D075
:107D9000002C06D02068002803D02868216888427B
:107DA00002D17FF0070018E0ED68E5E719F101095D
:107DB000DAE7002C08D02068002805D0002C01D17B
:107DC000002000E020683060F782DFF85802016888
:107DD000F160066002F0D6F80020BDE8F28370B5CD
:107DE00004000D0016002800FFF784FF7FF00C0050
:107DF00070BDF8B506000F0014000025307D002886
:107E00000CD0DFF8FC314FF42D72DFF83819DFF8B1
:107E1000F801FFF75FFD7FF00E0145E0307D01289E
:107E200003D135007FF008013EE0022002F038F86F
:107E30000500002D02D15FF0FF3135E03069286187
:107E4000F08AE88201202875707D6875307A287282
:107E5000B07AA872707A687230682860F08A002858
:107E600014D070480168B14203D10168C96801604B
:107E70000AE00068002807D0C168B14202D1F16869
:107E8000C16001E0C068F5E70020F060310001202A
:107E900002F038F8DFF8AC09A86163480168E960CE
:107EA000056002F06FF80021002C00D0217028003E
:107EB000F2BD70B505006C6A288D0419688E40F219
:107EC000A121884202DB4FF4287000E0688EE96A45
:107ED000611A081A002805D4288D6885E86A241AD2
:107EE000200018E0696AE86A091A012902DB00200B
:107EF00068850FE0E86A6E6A861BB6F5803F08D396
:107F00003F4B4FF44272DFF88819DFF8FC05FFF7AA
:107F1000E1FC6E85002070BD70B504000D00207D71
:107F2000012808D1364B4FF44872DFF89C19DFF86E
:107F3000D805FFF7CFFC208D28182085208D40F232
:107F40004151884203DB4FF4A860208515E0208D65
:107F5000002812D1207D072802D0207D092803D1D6
:107F60004FF4A860208508E0254B40F22D32DFF861
:107F70005C19DFF89405FFF7ADFC2000FFF799FFCF
:107F80000600B6F5A87F06DBA07E50F00200A076C2
:107F9000200001F0A2FB70BD30B40023DFF83009EF
:107FA0000488651C05804FF6FF75A4B2AC4202D16F
:107FB0004FF440440480002422001400E4B2042C56
:107FC00019DA134C1500EDB254F82540246821004D
:107FD00000290ED0CC8A0588AC4208D15B1C180061
:107FE00080B2B0F5804F01DB002005E0D6E7C9681C
:107FF000EEE7521CE1E7008830BC7047E446002001
:10800000548C0108ACB30108549D010894AD0108DB
:10801000CCB1010858AB0108884600208C460020EE
:10802000A446002080460020844600202DE9F04F21
:1080300085B00026DFF8587A3868401C3860DFF8D1
:10804000540A0078401CDFF84C1A08700020040025
:10805000DFF844AADAF800000500002D00F0B48132
:10806000287D002809D1DFF8343A4FF47C72DFF81C
:10807000301ADFF89404FFF72DFC287D012809D180
:10808000DFF8183A40F2F132DFF8181ADFF8780416
:10809000FFF720FC287D0A2809D1DFF8003A40F2DA
:1080A000F232DFF8041ADFF86004FFF713FCDFF8A0
:1080B000E409697F0278914201D1ED68CDE700784B
:1080C00068770020814600208046287D022806D15E
:1080D00095F84200062802DB19F1010984E095F8C1
:1080E00042000C2802DB19F101097DE095F89500AA
:1080F000002829D0DFF8B40995F89510084410F845
:1081000001BC95F894005946C9B2884204D295F84A
:108110009400401C85F8940095F894005946C9B223
:10812000884261D3280001F0DCFD00285CD10020EA
:1081300085F8940095F89500072855D295F8950094
:10814000401C85F895004FE0B5F93000002802D4B6
:10815000288E401C2886E86E002845D0B5F93000EE
:10816000B5F9401088423FDB287D022814D095F8ED
:1081700042000C2802D295F8420000E00C20B5F92C
:108180003C10B5F93E2012EBE102DFF82419C0B231
:1081900008568240A5F8402000202886B5F84800FF
:1081A000B5F85C10884204D2B5F84800ADF8080074
:1081B00003E0B5F85C00ADF80800BDF8080080B237
:1081C0004008A5F84A00B5F84A00698E490089B20E
:1081D000884203D2688E4000A5F84A00688EA5F850
:1081E0004800280001F0CAFC287D062809D1A87E95
:1081F000C00606D53968286A091A292901D319F158
:108200000109287A000736D5287D042802D0287D68
:10821000072830D1D5F89010DFF8980841184FF4AE
:10822000FA70B1FBF0F13A68286A121A914204D24E
:1082300019F1010918F101081DE0D5F8901095F821
:108240009620DFF8740800FB02114FF4FA70B1FBBE
:10825000F0F13A68286A121A91420CD2280001F013
:1082600013FD0600300040B2002804D195F89600B6
:10827000401C85F89600286F00280DD03968286AC0
:10828000091AB5F9402006204243914204D3286FD1
:1082900000F087F900202867287D032806D1396877
:1082A000286A091A292901D319F10109287D092809
:1082B00006D13968286A091AF12901D319F101098F
:1082C0004846C0B2002853D0D5F88C00039028004F
:1082D00000F000FB002C0FD0DAF80000854208D136
:1082E000DFF8B83740F28942DFF8D0178648FFF749
:1082F000F1FAE868E0600FE0DAF80000A84208D080
:10830000DFF8983740F28D42DFF8B4177E48FFF768
:10831000E1FAE868CAF800004046C0B2002809D077
:10832000288B0190E88A00902B1D2A00696AE86C6E
:1083300001F09CFB28690190287D8DF800000495D0
:10834000ED680499012001F0DDFDDFF838B100206F
:108350008BF800000398002804D07FF00C010198EE
:10836000039A90479BF8000000283FF476AE6DE634
:108370002C00ED68E07E401CE076E07E217F8842A4
:10838000FFF46BAE0020E076DFF8F8B000208BF849
:108390000000D4F88800002806D021002069D4F815
:1083A00088209047060001E0002006009BF80000AE
:1083B00000287FF44BAE300040B200287FF44DAE71
:1083C000200001F08AF948E600200090DFF8F4B6BA
:1083D000DBF800A0BAF1000F50D09AF814000A2878
:1083E00008D0DFF8B83640F2BD42DFF8DC16464868
:1083F000FFF770FA002081463968DAF82000091A80
:10840000F12901D319F101094846C0B2002830D042
:10841000504600F05FFA0098002811D0DBF8000009
:10842000824508D1DFF8743640F2CB42DFF89C1663
:108430003548FFF74FFADAF80C000099C86010E0F1
:10844000DBF80000504508D0DFF8503640F2CF424C
:10845000DFF87C162C48FFF73DFADAF80C00CBF871
:1084600000005446DAF80CA02100012001F04AFD7A
:10847000B0E7CDF800A0DAF80CA0ABE705B0BDE896
:10848000F08F0000E3460020F8B5DFF808562878A2
:10849000401C2870DFF8000600680400002C2FD074
:1084A000607F2978884229D028786077A07EC0072D
:1084B0000AD5A07E50F00200A076200001F00DF950
:1084C000A07E10F0FC00A076A07E000706D5A07E5E
:1084D00010F0F700A0762000FFF7FAFAE668606F68
:1084E000002809D0DFF8A47500203870200000F0C3
:1084F0000DF838780028CDD13400CFE7E468CDE717
:10850000F1BD000084940108549D0108F8B50400F1
:10851000606F457B666F00206067D4F8800000289C
:1085200008D00023320021002069D4F88070B847B9
:10853000070006E0002332002100002000F064F86C
:108540000700380040B200281ED1A80627D5208D8C
:10855000B0F5A86F02D0208D401C2085D4F8800093
:10856000002808D00023002221002069D4F880C010
:10857000E047010000E000217FF00C000A0003004A
:1085800052B29A420BD10BE07FF00C00390002008E
:1085900049B2914204D066677FF0040000E00020F9
:1085A000F2BD38B50400002C05D02568200000F08D
:1085B00003F82C00F7E731BD10B50400002C09D0FA
:1085C0006068002802D06068FEF71CFE21000320CE
:1085D00001F098FC10BD2DE9F0410500032001F0E9
:1085E0005FFC0400002C01D100200BE010262F00BE
:1085F000A04632003900404602F0FAFA6068FEF701
:1086000090FE2000BDE8F081F8B505000E001400D2
:108610001F00002C07D021893000FFF77DFC2000CF
:10862000FEF7F0FD07E0380040B2002803D130002B
:10863000FFF79EFA00E00020F2BD2DE9F0410600B0
:108640003000C0B2802801DB7F2700E037005FF0F8
:1086500000080025DFF840040468002C14D038001E
:10866000617DC0B288420DD3DFF824140A68206A05
:10867000121A424506D30968206A091A884625005D
:10868000607D0700E468E8E7002D02D02800FFF7CE
:1086900031FBBDE8F081000058B40108F8B50600D0
:1086A0003000C0B208280DD03000C0B2092809D06F
:1086B000DFF8E83340F2DC52DFF81814DFF8180472
:1086C000FFF708F900270025DFF8CC030468002C29
:1086D00012D0207D3100C9B288420BD1DFF8B0132F
:1086E0000A68206A121ABA4204D30968206A091A71
:1086F0000F002500E468EAE7002D03D000212800E0
:10870000FFF777FAF1BD00007C9D010870B50026E7
:108710000025DFF8B0030468002C0DD0DFF87013DB
:108720000A68206A121AB24204D30968206A091A38
:108730000E002500E468EFE7002D02D02800FFF7C7
:10874000D9FA70BD90A201082DE9F0410500012081
:1087500001F0A6FB0400002C21D1FFF7D7FF012078
:1087600001F09EFB0400002C19D10920FFF796FFB1
:10877000012001F095FB0400002C10D10820FFF728
:108780008DFF012001F08CFB0400002C07D1280094
:10879000C0B2FFF752FF012001F082FB0400002C61
:1087A0002FD098260027A0463A003100404603F01B
:1087B00059FA65754FF42870A4F860004FF4A86169
:1087C0006185618D2185FF21A1724FF4A8716186B9
:1087D0000621A4F840100621E1875FF0FF312186D1
:1087E0000121A4F84810AA4909682162A949097819
:1087F0006177A4F84A00B948C4F88000B848C4F8C2
:1088000090002000BDE8F08110B504004020FFF783
:108810009BFF10BD002800D00161704738B50400EF
:108820000D00002C0BD0207D012806D19B4B40F27F
:10883000BB62AC49A848FFF74DF8C4F8805031BD81
:1088400000000000DF7D000838B504000D00002C9A
:108850000AD0207D012806D1904B40F2CC62A2497B
:108860009D48FFF737F8E56731BD38B504000D00C6
:10887000002C0BD0207D012806D1884B4FF4DC6200
:108880009A499548FFF726F8C4F88C5031BD00008E
:1088900074AB0108002804D0027D012A01D1020036
:1088A0009161704770B504000D001600207D01280D
:1088B00006D17A4B40F203728D498748FFF70AF8D8
:1088C000C4F88850267770BDA49D0108B4A20108A1
:1088D0005001002010B50400207D002822D0207D0A
:1088E0000A281FD0207D01281CD0606F002804D0EA
:1088F000606FFEF787FC00206067206FFFF751FE76
:10890000002020675FF0FF302086A06EFFF749FE51
:10891000E06EFFF746FE0020A066A06EE066002035
:10892000A4F8640010BD38B504000D002068A8420A
:1089300003D12068C06820600AE02068002807D0C2
:10894000C168A94202D1E968C16001E0C068F5E7E9
:108950000020E8602800FFF7BDFF287D0A280CD022
:10896000287D012809D0A87EC00706D5A87E50F032
:108970000200A876280000F0B0FE287D01281DD056
:10898000A86E002806D0454B40F253725949524810
:10899000FEF7A0FFE86E002806D0404B40F254726C
:1089A00055494D48FEF796FF286F002806D03B4BEF
:1089B00040F2567251494848FEF78CFF0020287556
:1089C0000020E88231BD01004D4A1368304800683C
:1089D000C31813601068704770B505000C002000C4
:1089E00003F074F90100002902D1280080B211E0DF
:1089F000B1F92620100000B2002809D0B2F12800F9
:108A000006002800330080B29BB2984200D33500A4
:108A1000280080B270BDF8B505000E003400002CAF
:108A20000BD020682968884205D1E7682000FFF74D
:108A300061F93C00F3E7E468F1E7F1BDF8B5050042
:108A40000E00002D20D0286800281DD01248016893
:108A50002800FFF7E0FF2B4801682800FFF7DBFF45
:108A6000002E11D0306800280ED02748006804007E
:108A7000002C09D0E068070020682968884201D1ED
:108A8000306820603C00F3E7F1BD0000E3460020C1
:108A90007C460020E546002088460020548C0108D2
:108AA000F898010824990108D096010848B40108F3
:108AB000BCB10108B84C0A00F82401005099010823
:108AC0007C9901088C46002000970108CC9D010884
:108AD000F49D0108ACB10108549D01080986000805
:108AE00000DD6D001C9E0108449E01086C9E01087B
:108AF00040A60108ACAD010890AB0108C4AD010867
:108B00000C00002080460020844600202DE9F84318
:108B10000500894616001F00002216EB09011431DA
:108B200089B20120FEF78EF80400002C3ED0608947
:108B3000494689B21431884208DADFF8043B7322CF
:108B4000DFF8001BDFF8000BFEF7C4FE606880460C
:108B5000E88AFEF71FF8A8F80000288BFEF71AF83D
:108B6000A8F80200C8F80470686AFEF71BF8C8F895
:108B70000800484680B2042190FBF1F0401D00033C
:108B800050F0100080B2FEF705F8A8F80C00688DD0
:108B9000FEF700F8A8F80E000020A8F8100000204A
:108BA000A8F81200696A688D4118E9622000BDE8E2
:108BB000F28338B50400A06E00281AD0A56E28688C
:108BC000002801D02D68FAE7E8688089FDF7E2FF08
:108BD00010F0070F0DD10120FDF7DCFFE96889894E
:108BE0000843E9688881A07E50F02000A07600202C
:108BF00003E00121200000F061FC32BD2DE9F047C7
:108C000006000F0090469946089DE80702D55FF0E0
:108C1000040A01E05FF0000AA80701D5002000E087
:108C20000020290701D5002100E0002110EB0A0AED
:108C300011EB0A0A032001F033F90400002C04D1DF
:108C40003800FEF7DFFA002047E0A5720020206020
:108C5000676038895146C9B289B2884208D2DFF8C4
:108C6000E039BA22DFF8E419DFF8DC09FEF732FE5A
:108C700039895046C0B2091A218114213800FEF703
:108C8000ADFA002804D02000FFF796FC002024E075
:108C900060684068E060F08AFDF77CFFE16808806A
:108CA000308BFDF777FFE16848804846FDF77AFF93
:108CB000E16848605046C0B2042190FBF1F1491DC3
:108CC0004046C0B250EA013080B2FDF763FFE16870
:108CD00088810020E16848822000BDE8F0872DE906
:108CE000F14F0F0090469946DDF828A00B9D0C9E91
:108CF000BB463800414680B289B2884226D2A807D6
:108D00000FD49AF81A00400620D43000C0B20028D0
:108D100007D0DAF86800002803D1DAF86C000028E0
:108D200014D0404680B2390089B201F2531189084B
:108D30008900884201D2C34608E0BB461FFA8BFB7C
:108D40000BF2531B4FF6FC7010EA0B0B0022594636
:108D500089B29DF80000FDF775FF0400002C01D1D9
:108D6000002014E02068002809D0DFF8D4384FF440
:108D70008872DFF8DC18DFF8D008FEF7ABFD6089F9
:108D8000C01BA9F800002781208960812000BDE870
:108D9000F28F38B504000D00207D04280BD0207D13
:108DA000072808D0207D022805D0207D032802D086
:108DB0007FF00A0049E0280080B2002801D100209D
:108DC00043E0B4F86000290089B2884206D2A07E50
:108DD00050F08000A0765FF0FF3036E0B4F862001B
:108DE000082805DAB4F862004FF6FD71884206D310
:108DF000A07E50F08000A0765FF0FF3025E0B4F850
:108E00006200002810D0E06E00280CD1A06E00286F
:108E100009D1DFF82C384FF4AB72DFF8781BDFF89C
:108E20002808FEF757FD0FE0E06E002802D1A06E83
:108E3000002809D0DFF8083840F25912DFF8581B33
:108E4000DFF80408FEF746FD002032BD2DE9FA4F99
:108E50008BB006001700002006900024002500209B
:108E60000A90002008905FF0000900208DF80E00A5
:108E700000208DF81C000020ADF80C005FF0000809
:108E80000020ADF81400B6F85E00022190FBF1F06E
:108E9000718E814201DA718E04E0B6F85E00022123
:108EA00090FBF1F1080080B2002802D0ADF8161056
:108EB00002E0708EADF816000B9800280CD1DFF898
:108EC00080374FF4C972DFF8A01BDFF87C07FEF78C
:108ED00001FD7FF00F00EEE2390089B23000FFF7AC
:108EE00058FF8DF80F009DF90F00002802D09DF962
:108EF0000F00E0E2B6F86200ADF81000B06E002896
:108F000000F02181B06E04002068002801D02468A0
:108F1000FAE7A07AC00701D5042000E00020A17A7A
:108F2000890701D5002100E00021A27A120701D5AE
:108F3000002200E0002208181018ADF81E00BDF84D
:108F400016102289BDF81E008218914209DADFF856
:108F5000F03640F2C712DFF8C81BDFF8EC06FEF768
:108F6000B9FCBDF816102089091ABDF81EA0B1EB96
:108F70000A0AB6F86400ADF80C00BDF80C00002831
:108F800035D05046BDF80C1080B2884209D2DFF8C7
:108F9000B03640F2D912DFF88C1BDFF8AC06FEF7D2
:108FA00099FC2500BDF80C00390089B2884202D234
:108FB000BDF80C0001E0380080B2514689B2814210
:108FC00001DAD04609E0BDF80C00390089B28842C8
:108FD00002D2BDF80C8000E0B84618EB0909BDF8D4
:108FE0000C00B0EB0800ADF80C00BAEB080ABDF8B5
:108FF0000C0000280FD04846390080B289B2884260
:1090000009D0DFF83C3640F2E112DFF81C1BDFF834
:109010003806FEF75FFC4846390080B289B28842C4
:1090200080F09F80504680B2002800F09A8020890E
:10903000002800F09680514689B23A0092B2484624
:1090400080B2121A914202DAADF812A003E0B7EB37
:109050000900ADF8120025009DF83000C0072BD59F
:10906000012002909DF830000190009603AB52461B
:1090700092B2BDF812100420FFF731FE06900028CE
:1090800000F0F581BDF8120001900B98494689B2B5
:10909000084400900698D0F804B0019A0099584608
:1090A00001F0A6FDBDF810B00698FEF731F910EBFF
:1090B0000B0BADF810B041E0D4F804B0DBF80000C1
:1090C000002802D0DBF800B0F8E79BF80C0001287C
:1090D0001AD1DBF80400BBF80A1008440B99884247
:1090E00012D1484680B2002809D0DFF854354FF439
:1090F0000372DFF8381ADFF85005FEF7EBFBBDF816
:109100001200ADF8140019E00122BDF8121004207D
:10911000FDF798FD0690002800F0A9810B984946BC
:1091200089B2084406994860BDF81000009006987E
:10913000FEF7EEF800994018ADF81000BDF81200E7
:1091400010EB09090DE0B6F86400002809D0DFF83B
:10915000F03440F22522DFF8D819DFF8EC04FEF7EE
:10916000B9FB4846390080B289B2884280F0CF808E
:10917000B7EB0900ADF82400BDF816109DF80E00FD
:10918000091AADF81E10BDF82400BDF81E10884263
:1091900004D2BDF82400ADF8120003E0BDF81E00B3
:1091A000ADF812009DF83000C0073FD508980028A0
:1091B00001D1012000E00020C0B202909DF83000F3
:1091C0000190009603ABBDF81620BDF812109DF873
:1091D0000E00411889B20020FFF781FD8346002868
:1091E00000F04581BBF80A00BDF81210884209D290
:1091F000DFF84C3440F24122DFF83819DFF8480438
:10920000FEF768FBBDF8120001900B98494689B241
:1092100008440090DBF804009DF80E1000EB010AF2
:10922000019A0099504601F0E3FC2FE0BDF80C00D4
:10923000002809D0DFF8083440F24B22DFF8F81894
:10924000DFF80404FEF746FB0122BDF812100020EF
:10925000FDF7F8FC8246002800F009810B9849468A
:1092600089B20844CAF8040000229DF80E1089B2A1
:109270000020FDF7E7FC8346002803D15046FDF7A8
:10928000C1FFF4E051465846FEF766F8BDF810A05D
:109290005846FEF73DF810EB0A0AADF810A0BDF8ED
:1092A0001000092805DABDF810004FF6FD7188425C
:1092B00003D35846FDF7A6FFD9E09DF81C000090A7
:1092C000B36D484680B2C318002259463000FFF7FC
:1092D00095FC0500002800F0CA800898002801D1FC
:1092E00008950EE00A98002809D1DFF8543340F2BF
:1092F0008522DFF84818DFF85003FEF7EBFA0A98EA
:1093000005600A95BDF8120010EB090929E74046EF
:1093100080B200282BD0D4F804A0BAF1000F22D0DC
:10932000BAF8080018EB0000AAF80800DAF8000004
:10933000002815D1404680B201900B980090DAF8D1
:109340000400BAF80A1000EB010B019A0099584684
:1093500001F04EFCBAF80A0018EB0000AAF80A0067
:10936000DAF800A0D9E7208918EB00002081BDF8C9
:109370000C00A6F864000698002813D0002C07D132
:10938000AF4B40F2BB22DFF8B817AF48FEF7A2FAA6
:1093900006996068FDF7E0FF218906980089411869
:1093A00021812AE0BDF81400002826D0002C02D02C
:1093B0006068002807D1A24B40F2C122DFF8841771
:1093C000A148FEF787FA61680868002806D00A8974
:1093D000BDF8140082180A810968F5E70A89BDF80A
:1093E000140082180A814A89BDF8140082184A8143
:1093F0002289BDF8140082182281002C02D108981D
:10940000B06601E008982060B16D380080B2411864
:10941000B165B6F86000C01BA6F86000BDF810008A
:10942000A6F86200B6F8620000280DD0F06E0028A1
:109430000AD1B06E002807D1814B40F2ED22DFF84F
:1094400008178148FEF746FA002D0ED0E86800287C
:109450000BD09DF83000800707D40820FDF79AFB59
:10946000E96889890843E9688881002023E0B07EA3
:1094700050F08000B0760698002802D00698FDF7DC
:10948000C1FE0898002802D00898FFF78AF8B6F8BD
:10949000620000280DD0F06E00280AD1B06E0028BE
:1094A00007D1674B40F20232DFF89C166648FEF7A0
:1094B00011FA5FF0FF300DB0BDE8F08F2DE9F843F1
:1094C00004000D000026002715F0030F07D15C4BA8
:1094D00040F21B32DFF874165B48FEF7FBF9B4F874
:1094E0006200082805DAB4F862004FF6FD71884280
:1094F00008D3E80706D4A07E50F08000A0765FF085
:10950000FF309AE0A80701D501200600F00701D539
:10951000042700E00027B00701D5002000E000206C
:10952000310701D5002100E00021C719CF19002221
:109530003900C9B289B20020FDF784FB80460028BB
:1095400006D1A07E50F08000A0765FF0FF3074E07E
:10955000B8F80A003900C9B289B2884207D2384B3C
:1095600040F24132DFF8E8153748FEF7B3F9300032
:10957000C0B20090A36D2A00D2B241462000FFF78E
:109580003DFB8146002806D1A07E50F08000A076E9
:109590005FF0FF3051E099F80C0010F0030F07D096
:1095A000274B40F24932DFF8AC152748FEF792F915
:1095B000B9F80800002807D0214B40F24A32DFF802
:1095C00098152148FEF786F9A06E002802D1C4F84C
:1095D000689007E0A16E0868002801D00968FAE7E2
:1095E000C1F800900020A4F8640015F0030F02D029
:1095F000A06D401CA065E80703D5A07E50F02000B8
:10960000A076D9F80400FDF783FEB4F86210401884
:10961000A4F86200B4F8620000280DD0E06E0028C3
:109620000AD1A06E002807D1054B40F26D32DFF859
:109630002C150548FEF74EF90020BDE8F283000026
:10964000E4890108609701085C9F0108F4AD0108F6
:1096500030B001082DE9FF4106000027F06CFDF74E
:10966000A1FA030000223900C9B289B23000FFF725
:109670004DFA0400002C06D1B07E50F00300B07605
:109680007FF0010026E0301D02F020FB0500002DD8
:1096900002D17FF003080BE0029506200190707A5A
:1096A0000090B37A321D3100200002F052FC804657
:1096B0002000FDF7A7FD404640B2002804D0B07E50
:1096C00050F00300B07603E0B07E10F0FC00B076FE
:1096D000404640B204B0BDE8F0812DE9F84F0600E5
:1096E000307D012809D1DFF8783440F2ED32DFF81F
:1096F0007414DFF87404FEF7EDF8DFF87004006806
:10970000B04201D1002042E1B6F85C00B6F8481042
:10971000884202D2B6F85C7001E0B6F84870B46EC8
:10972000B07E80070FD5002C09D0E0684068FDF7B7
:1097300039FA716C401A21890818874203D2300027
:10974000FFF788FF23E1D6F86C80B8F1000F06D050
:10975000D8F80000002802D0D8F80080F8E7301DC3
:1097600002F0B4FA0500002D02D17FF003000EE1F3
:10977000002E02D0306800280BD1002D01D0291D09
:1097800000E00021002902D17FF00300FFE008681B
:109790003060002C1DD0E0684068FDF703FA716C62
:1097A000401A21890818874213D2002F11D0B6F829
:1097B0005C0087420DD1F06E00280AD196F8950022
:1097C000002805D1002086F89400012086F8950035
:1097D000D2E0002C00F0D080E0684068FDF7E2F9AC
:1097E000716C401A218908188742C0F0C580E06872
:1097F0008089FDF7CFF9400708D5DFF8643340F2E0
:109800004642DFF86C13D848FEF764F8F06E002883
:1098100017D0B07E10F0440F13D1B06E002808D0DE
:10982000B06E006800280CD1B06E0089718E88423D
:1098300007D2B6F86000002803D0B6F86200082806
:1098400001DB012000E00020002804D1B07E10F0F0
:10985000A00F00F09180307D022807D01020FDF786
:1098600099F9E16889890843E16888812A00310013
:10987000200000F093F88DF800009DF9000000280A
:1098800006D0B07E50F08000B0769DF900007EE0FA
:109890002068B066307D022803D0B07E10F0FC0056
:1098A000B076E0684068FDF77DF98246E06880891F
:1098B000FDF770F910F0030F01D0012100E0002145
:1098C000D146208910EB090911EB0909F06CB0EBC6
:1098D0000900002801D5C6F84C90E0688089FDF7A2
:1098E00059F910F0030F01D0012000E00020218978
:1098F000401800283AD000202060F06E002802D1E5
:10990000F466A04635E0E0684068FDF74BF9824612
:10991000D8F80C004068FDF745F9BAEB000ABAF137
:10992000000F1ED516F16C0ADAF80000002812D0DC
:10993000DAF80000C0684068FDF734F98346E06853
:109940004068FDF72FF9BBEB000BBBF1000F02D510
:10995000DAF800A0E8E7DAF800002060CAF8004072
:1099600007E0C8F80040D8F8008002E02000FEF7C9
:1099700023FEB06E04002CE7B06E002802D1002058
:10998000A6F86400B07E10F07F00B0760020BDE83D
:10999000F28F000010910108B89401082DE9FF41F1
:1099A00004000D0016006068C089012801D0002065
:1099B00056E0686AFDF7F6F8E1688860688DFDF7A3
:1099C000E9F8E168C881696A688D4118E962E06870
:1099D00010F11407A07AC0070DD5291D4FF4A87007
:1099E000FEF7FAFF8046404680B250F00170FDF766
:1099F000D9F838603F1DB5F93000002801D50020A6
:109A00002886686B002807D15A4800686863E068B8
:109A10004068FDF7C7F8A863E0686168D1F8048082
:109A2000B0EB080860684089B0EB080061684881C5
:109A300060680089B0EB080061680881E0686168CF
:109A400048600020E1680882029606200190687A4A
:109A50000090AB7A2A1D2900606802F07AFA40B2C1
:109A600004B0BDE8F0810000EC9401082DE9F14F4D
:109A700084B0884691469A460E9E0F9F002214217C
:109A80000120FDF7DFF80400002C45D06089142880
:109A900006D2334B40F24D5237493348FDF71AFF97
:109AA000D4F804B0300080B2FDF774F8ABF80000D1
:109AB000380080B2FDF76EF8ABF802000498FDF7AD
:109AC00071F8CBF804004046FDF76CF8CBF80800BD
:109AD00045F21400FDF75EF8ABF80C0044F2050007
:109AE000ABF80E000020ABF810000020ABF812001D
:109AF000504602F0EBF80500002D0AD00295062032
:109B0000019000200090FF2352464946200002F0B9
:109B100020FA2000FDF776FB05B0BDE8F08F0000CD
:109B20000CAE010800A7010820A701082C9A010823
:109B3000909701089C8F01081CB2010844B00108ED
:109B4000DC9201081493010840A70108AC8C0108BD
:109B50004C91010824AE0108589A0108849F01081D
:109B6000E4890108AC9F01085C9F0108A44600201D
:109B70003CAE01087C4600206097010838B504001F
:109B8000E06E002819D0E56E2868002801D02D6805
:109B9000FAE7A06E2860E06EA0660020E06694F808
:109BA0004200FF2804D094F84200401C84F8420090
:109BB000002060632000FFF790FD31BDF8B5040080
:109BC000E06E00282AD0E56E2868E06614F1680689
:109BD000306800280ED03068C0684068FCF7E2FFAB
:109BE0000700E8684068FCF7DDFF3F1A002F01D549
:109BF0003668EDE73068286035602868002802D1B3
:109C00000020A4F8640094F84200FF2804D094F8DF
:109C10004200401C84F8420000206063F1BD10B592
:109C20000400E06E00282ED0A07E40072BD4200038
:109C3000FFF7C4FFB4F84800B4F85C10884202D2C1
:109C4000B4F8480001E0B4F85C00022190FBF1F0A8
:109C5000A4F84A00B4F84A00618EB0EB410F04D278
:109C6000608E80B24000A4F84A00B4F84A10628EB8
:109C7000032000FB0211A4F84810A07E50F004005D
:109C8000A0760020208610BDFEB50600F06C401EB8
:109C9000FCF788FF0300002200213000FEF736FFAA
:109CA0000500002D02D15FF0FF3019E0301D02F0F9
:109CB0000DF80400002C02D17FF003070BE00294A2
:109CC0000620019000200090B37A321D3100280058
:109CD00002F03FF907002800FDF794FA380040B27F
:109CE000FEBD2DE9F84F84B00700FC6E002C01D1B9
:109CF000B86E0400002C01D100206BE0E068808980
:109D0000FCF748FFC00705D52089002802D15FF085
:109D1000010801E05FF000084046C0B2002802D010
:109D20005FF0000901E05FF00109E06843684A461E
:109D300092B200213800FEF7E9FE0500002D02D1A5
:109D40005FF0FF3046E0686803904046C0B20028EC
:109D50000BD01120FCF71EFF03998A894CF2FF01FA
:109D60000A401043039988810CE0686810F11406DA
:109D70006068038920891B1A9BB201223100606848
:109D8000FDF7E6FBE0684068FCF70CFF82461AF13D
:109D9000010AF86CB0EB0A00002801D5C7F84CA006
:109DA000381D01F093FF0600002E02D17FF0030B57
:109DB0000BE002960620019000200090BB7A3A1D2D
:109DC0003900280002F0C5F883462800FDF71AFA8A
:109DD000584640B205B0BDE8F08F30B4002513E01E
:109DE00050F8042BD30744BFA9F101039A18091FA7
:109DF000042942F8045BFAD213468C0744BF15804D
:109E00009B1CC90748BF1D7050F8041B0029E7D1EF
:109E100030BC70470021826811604268D21C9208F1
:109E2000920000214388994208DA83681B68136016
:109E300083681A6003881A44491CF3E7704710B519
:109E40000024200080B20E2808D23C48210089B2AC
:109E500050F82100FFF7DEFF641CF2E710BD70B57B
:109E6000050000F0D7FA0600A8680468002C12D09C
:109E70002068A968086014F00300002806D0304B61
:109E800040F249122F493048FDF724FD300000F020
:109E9000CAFA200003E0300000F0C5FA002070BDCF
:109EA00010B504002000C0B20E2808DB244B40F29D
:109EB000871226492448FDF70DFD002006E01F48C3
:109EC0002100C9B250F82100FFF7C9FF10BDF8B555
:109ED00004000D0015F00300002806D0184B40F2D6
:109EE0009D121B491848FDF7F5FC2E0000F092FA70
:109EF0000700A06800683060A0680660380000F0C5
:109F000092FAF1BD38B505000C002800C0B20E2849
:109F100007DB0B4B40F2DB120E490B48FDF7DAFC76
:109F200009E0002C07D0210004482A00D2B250F8E2
:109F30002200FFF7CCFF31BD000000003492010881
:109F4000A48B010800A20108B49C010880A50108A7
:109F5000A0A501085CAA010810B50400FDF7CFFC1C
:109F600093480068002803D192480068002805D073
:109F700000229149FA2000F038F802E000208F49D1
:109F8000086010BD80B58D49086800280ED188484A
:109F90000068002803D187480068002806D0012007
:109FA000086000228449FA2000F01FF801BD38B58E
:109FB000040025006868804722008149286800F075
:109FC00014F831BD10B50124042C09D27D4800EBF2
:109FD000C4027B4950F8340000F007F8641CF3E732
:109FE00002F0F1FA7849086010BD2DE9F041060051
:109FF0000F0090460A20FFF753FF0500002D08D1FF
:10A00000002D05D1714BD42271497248FDF762FCD5
:10A0100054E002F0D8FA01006F4A1068002803D11A
:10A0200000236948016002E067480368CB1A0020FA
:10A030002860AF60C5F80C80981968601068002827
:10A0400001D115603AE01068406886420AD2106873
:10A050004068801BD2F800C0CCF80400106828606B
:10A0600015602BE010680400002C27D0D5F804C040
:10A070006068BCEB000CC5F804C02068002806D05E
:10A080006868D4F800C0DCF804C0604514D22068C9
:10A09000002806D0206842686868121A206842606A
:10A0A00006E06868864203D21068406880196860DC
:10A0B00020682860256001E02468D5E7BDE8F081CC
:10A0C0002DE9F84F444D2868002837D002F07BFA7C
:10A0D0008046DFF8F490D9F800A0B8EB0A0A002017
:10A0E000070028680400002C24D06068824521D332
:10A0F00001200700D9F8001060684118C9F8001065
:10A100006068BAEB000A20682860A0680600E06872
:10A11000009021000A20FFF7F5FE3000002809D04A
:10A12000DFF8B8B0584600F04DF90098B0475846EF
:10A1300000F050F93800C0B20028D0D1BDE8F18F4E
:10A1400010B5254C2068002802D15FF0FF300EE0EA
:10A1500002F039FA1C490968411A206840688842AF
:10A1600001D2002003E020684068411A080010BDB9
:10A1700070B505000E0018480068002805D10022BF
:10A180003100280000F069F80FE0FFF7D9FF040064
:10A19000002C07D022003100280000F05EF810F1FA
:10A1A000010F02D1FFF78CFFE5E770BD0000000052
:10A1B000884600208C460020599F0008C046002099
:10A1C000AF9F000880A70108BC460020408A010814
:10A1D000DC8F0108FC9F0108B8460020B44600202F
:10A1E00038B584B004000D0068469249102200F092
:10A1F0000FFD00950021684602F00CFC20602068ED
:10A20000002802D15FF0FF3000E0002005B030BD33
:10A2100010B50400206802F0A3FC206802F0AEFC38
:10A2200010BD38B504000D005FF0FF322900206832
:10A2300002F008FC0028F7D131BD38B504000D004C
:10A2400000222900206802F0FDFB002801D1002037
:10A2500001E05FF0FF3040B232BDFEB505000E00F8
:10A26000140002F07AFA0700002C11D022002968AD
:10A27000684602F019FC0098102806D10198306059
:10A2800002F06BFAC71B38000EE05FF0FF300BE006
:10A290005FF0FF322968684602F006FC01983060E2
:10A2A00002F05BFAC71B3800FEBD3EB504000D008E
:10A2B00000222168684602F0F7FB0098102803D1BD
:10A2C00001982860002001E05FF0FF303EBD0100F2
:10A2D0000868002801D1002000E00120704700211B
:10A2E000016070473EB504000D005348D0E90023DB
:10A2F000CDE900230121684602F0EFFA20602068D2
:10A30000002802D15FF0FF3008E02800C0B200282A
:10A3100003D10021206802F007FB00203EBD70B58C
:10A3200005000C0002F019FA0600002C0DD02100E7
:10A33000286802F0F9FA002804D102F00EFA861B10
:10A3400030000DE05FF0FF300AE05FF0FF31286879
:10A3500002F0EAFA0028F8D102F0FFF9861B30007B
:10A3600070BD10B50400206802F01DFB10BD10B5D3
:10A370000400206802F041FB10BD010008680028BD
:10A3800001D1002000E001207047002101607047EA
:10A3900080B52A4802F02AFA2949086001BD1CB597
:10A3A00004002848D0E90023CDE90023684602F0E4
:10A3B0001DFA20602068002802D15FF0FF3000E025
:10A3C000002016BD10B504005FF0FF31206802F0D8
:10A3D0001BFA10BD10B50400206802F054FA10BD3D
:10A3E0002DE9F84187B004000D0016001F00DDF8CC
:10A3F000388068461C2102F0CFFB0094019540464E
:10A40000ADF8080004973100684602F0B1F908B0D1
:10A41000BDE8F08180B55FF0FF310948006802F0C7
:10A42000F3F9012002BD10B504000548006802F0F0
:10A430002AFA10BD8CB1010820B4010828B4010823
:10A440003C46002030B4010838B504008149086852
:10A45000002803D080480068096888477F4D28009D
:10A46000FFF7B0FF2800FFF7B5FF69467C48FFF70C
:10A470007FFE2800FFF7A6FF0098002806D1794B41
:10A48000692279497948FDF725FAEBE700980078C9
:10A49000022804D01FD3042817D00CD31BE0009847
:10A4A000816800984068009AD26890470099092016
:10A4B000FFF728FDD6E7009880680099496888472B
:10A4C00000990820FFF71EFDCCE7009880680099EE
:10A4D00049688847C6E7634B9B2263496348FDF799
:10A4E000F9F9BFE72DE9F04105000E001700DFF88C
:10A4F00070814046FFF7EBFE002805D1594BB5228D
:10A500005B495A48FDF7E6F90920FFF7C9FC04004A
:10A51000002C02D15FF0FF3012E002202070656055
:10A52000A660E76021004046FFF787FE002806D0BE
:10A5300021000920FFF7E6FC5FF0FF3000E000207B
:10A54000BDE8F08138B504000D0095F82F0010F03B
:10A55000180F05D0474A29002000FFF7C3FF04E089
:10A56000454A29002000FFF7BDFF32BD2DE9F0412B
:10A5700005000E001700DFF8E8804046FFF7A7FE51
:10A58000002805D1374BEE2239493848FDF7A2F9AA
:10A590000820FFF785FC0400002C02D15FF0FF309B
:10A5A0001AE0032020706560A6603800C0B2002861
:10A5B00004D021004046FFF734FE0CE02100404665
:10A5C000FFF73BFE002806D021000820FFF79AFC89
:10A5D0005FF0FF3000E00020BDE8F081F8B5040036
:10A5E0000D0016001D4F3800FFF7ECFE2800A047B5
:10A5F0003800FFF7EFFE0020F2BD38B504000D0073
:10A6000002F0CEFA1348046013480560062114488E
:10A61000FFF7E6FD002806D0124B40F2D51217498D
:10A620001248FDF757F90D48FFF7B9FE002806D08C
:10A630000C4B40F2D91212490C48FDF74BF900209F
:10A6400000904FF4007300220E490F48FFF7C8FE38
:10A6500031BD0000A8460020AC460020B4460020D2
:10A66000B0460020048D010860A70108D49F0108AE
:10A670002CB201089932010843BD0008D8A2010894
:10A68000FCA2010849A400083CB2010870B504000E
:10A69000DFF808552868844209D2DFF8043540F213
:10A6A0005D12DFF80015DFF80005FDF713F9DFF89C
:10A6B000FC643068844209D3DFF8E4344FF4AF72AD
:10A6C000DFF8EC14DFF8E004FDF704F92079002846
:10A6D00009D0DFF8CC3440F25F12DFF8D814DFF88D
:10A6E000C804FDF7F7F8208840F20141884209D3F9
:10A6F000DFF8AC344FF4B172DFF8BC14DFF8A80413
:10A70000FDF7E8F82868218801448C4213D00879C5
:10A71000002810D1306881420DD0DFF8A004026813
:10A720008A4200D10460088820802868201A2A689C
:10A730000B881A445080286862880244A24210D0D4
:10A74000107900280DD1DFF874040368A34200D10A
:10A750000260208810802868101A2B6825882B44F6
:10A76000588070BD38B5DFF83404DFF85414890818
:10A770008900016004684FF48061218000226280BA
:10A7800000222271DFF82424036813F5806313602C
:10A79000012315682B7113681980126851800068B5
:10A7A000DFF818140860DFF81C04FFF7F8FD002834
:10A7B00009D0DFF8EC334FF4CC72DFF80C14DFF87B
:10A7C000E803FDF787F831BD70B50400002C52D0C6
:10A7D00014F00300002809D0DFF8C4334FF4D67218
:10A7E000DFF8E813DFF8C003FDF774F8DFF8AC53C7
:10A7F0002868844204D3DFF8B4030068844209D394
:10A80000DFF89C3340F2AF12DFF8C413DFF898038F
:10A81000FDF760F82868844204D3DFF890030068ED
:10A82000844206D3FFF7F6FD05002800FFF7FBFD85
:10A8300021E0DFF890633000FFF7C4FDB4F10805B4
:10A840002879002809D1DFF858334FF4E072DFF897
:10A850008413DFF85403FDF73DF800202871DFF87A
:10A860005C0301688D4200D205602800FFF70EFFEF
:10A870003000FFF7AFFD70BD2DE9F84F060089B23B
:10A88000C91C4FF6FC7001400C00200080B20C285F
:10A8900001D20C200400200080B240F20141884225
:10A8A00001D30020B2E0DFF8F492D9F8000086422C
:10A8B00003D3BE480068864206D3B94B4FF4FA7200
:10A8C000C549B948FDF706F8D9F80000864203D318
:10A8D000B6480068864207D3FFF79CFD07003800A2
:10A8E000FFF7A1FD300091E0B6F10807D9F800802C
:10A8F000B7EB08083988404680B2091AB1F1080060
:10A90000ADF80000BDF80000210089B2884206D2EF
:10A91000A34B40F20622B149A348FCF7DBFFBDF888
:10A920000000210089B2884201D200206EE02000A0
:10A93000BDF8001080B2884201D1300066E0DFF837
